:020000040800F2
:10000000D029002059020008133500082D320008BD
:1000100011350008B9160008295300080000000037
:100020000000000000000000000000002B37000866
:1000300031170008000000008F360008373700082D
:1000400073020008730200087302000873020008BC
:1000500073020008730200087302000873020008AC
:10006000730200087302000873020008730200089C
:10007000730200087302000873020008730200088C
:1000800073020008730200087302000800000000F9
:1000900000000000000000000000000073020008E3
:1000A000730200087302000873020008730200085C
:1000B000730200087302000873020008730200084C
:1000C000730200087302000873020008730200083C
:1000D00073020008730200087302000800000000A9
:1000E0007302000873020008730200080000000099
:1000F0000000000000000000000000007302000883
:100100000000000073020008730200087302000878
:1001100000000000000000000000000000000000DF
:1001200073020008730200087302000873020008DB
:100130007302000800000000000000000000000042
:10014000000000000000000000000000153500085D
:1001500073020008730200087302000873020008AB
:100160007302000873020008000000000000000095
:10017000000000000000000000000000000000007F
:1001800000000000730200080000000000000000F2
:10019000730200087302000800F002F800F04CF847
:1001A0000AA090E8000C82448344AAF10107DA45D2
:1001B00001D100F041F8AFF2090EBAE80F0013F0D8
:1001C000010F18BFFB1A43F0010318471855000030
:1001D00038550000103A24BF78C878C1FAD85207C1
:1001E00024BF30C830C144BF04680C6070470000B1
:1001F0000023002400250026103A28BF78C1FBD830
:10020000520728BF30C148BF0B607047662905F010
:100210000B82642900F0F680002070471FB505F0BE
:10022000FEF900F077FC04000020002105F06AF9D7
:10023000E0601FBD10B510BD00F06CFD1146FFF76A
:10024000EDFF05F0A1F800F08AFD03B4FFF7F2FF1F
:1002500003BC00F0CDFD0000094880470948004775
:10026000FEE7FEE7FEE7FEE7FEE7FEE7FEE7FEE766
:10027000FEE7FEE704480549054A064B70470000C3
:10028000D537000899010008D01D0020D029002092
:10029000D0250020D025002053EA020C00F0698010
:1002A0002DE9F04B4FF00006002B1FBFB3FA83F58A
:1002B00003FA05F424FA05F65E4012BF1643B2FABB
:1002C00082F502FA05F4C5F120051EBF22FA05FCED
:1002D00044EA0C04203556EA044C4FEA144418BF93
:1002E000641C4FF000084FF00009904271EB030CC2
:1002F00039D3002919BFB1FA81F701FA07F6B0FA2C
:1003000080F700FA07F6C7F120071EBF20FA07FCA6
:1003100046EA0C062037B6FBF4FCA7EB0507103FB6
:1003200007F01F0BCBF120060CFA0BFB2CFA06F69C
:1003300044BFB3460026202FA4BF5E464FF0000BFB
:100340005BEA060C08BF4FF0010B19EB0B09ABFB86
:10035000027C48EB0608C01B06FB02CC0BFB03CC5F
:1003600071EB0C01C1E70B46024641464846BDE829
:10037000F08B13B54FF000004FF00001AFF3008099
:10038000BDE81C40704700000FB41CB5084B06AA1E
:100390007B4469460090059800F0A3FB04460020CA
:1003A000694600F0B1FB20461CBC5DF814FB000060
:1003B0007507000070B5044685690068C10601D55F
:1003C000302600E02026C00707D070BDD4E9012107
:1003D00030469047206A401C20626D1EF6D570BDE5
:1003E00070B5044685690078C00707D170BDD4E9AF
:1003F000012120209047206A401C20626D1EF6D506
:1004000070BD00002DE9F0410646002410687529F2
:10041000314616A510D0AFF30080002802DA404222
:1004200013A507E031688A0701D512A502E0490744
:1004300004D511A5012401E0AFF3008000210A22B8
:1004400006F1240709E0B0FBF2FCB0FBF2F302FB7B
:100450001C00303078541846491C0028F3D123463C
:100460002A463046BDE8F04100F0CEB8000000005A
:100470002D0000002B000000200000002DE9F05F9F
:10048000894604464FF0000ADFF824B1FB44C0F867
:1004900020A02046E168884700287DD0252806D086
:1004A000D4E901219047206A401C2062F1E7002531
:1004B0005F462046E16888472028064607DB312E44
:1004C00005D2B81910F8200C08B10543F1E7A807C8
:1004D00001D525F00405C4F81CA00027C4F818A015
:1004E0002A2E09D0304604F048FF38B304EB8708C1
:1004F000303EC8F8186019E059F8041B204604EB98
:1005000087029161E1688847012F064618D1E069AA
:10051000002820DA25F020051DE0D8F8180000EBAF
:10052000800006EB40003038C8F818002046E1682B
:100530008847064604F021FF0028EED1012F0AD09B
:100540002E2E08D12046E16888477F1C0646022FE0
:1005500045F02005C4DBA069002803DA404245F0DD
:100560000105A061E80701D025F01005A6B1A6F1AC
:100570004100192802D8203645F400654A46314624
:10058000204625604D46FFF741FE60B1012807D0A7
:10059000ED1D25F0070000E007E000F1080978E70D
:1005A00005F1040975E730467AE7206ABDE8F09F57
:1005B000AC5100004FF0000200B513469446964639
:1005C000203922BFA0E80C50A0E80C50B1F1200166
:1005D000BFF4F7AF090728BFA0E80C5048BF0CC014
:1005E0005DF804EB890028BF40F8042B08BF704772
:1005F00048BF20F8022B11F0804F18BF00F8012BE4
:1006000070477047704770472DE9F0470D4699468F
:100610009246044600F124080168880604D5E06982
:1006200021F01001216000E00120A84201DD471BFC
:1006300000E00027A1697A1902EB0900081AA061FD
:100640002078C00602D42046FFF7B4FE002608E05A
:10065000D4E901211AF806009047206A401C761C54
:1006600020624E45F4DB2078C0060AD52046FFF70D
:10067000A1FE06E0D4E9012130209047206A401C09
:100680002062381EA7F10107F4DC07E0D4E901215C
:1006900018F805009047206A401C2062281EA5F12A
:1006A0000105F3DC2046FFF79BFE2078000602D50B
:1006B0000220BDE8F0870120FBE770472DE9FF4FDE
:1006C0000C461E464FF0FF378BB0D2E90001DDF833
:1006D00060800A908A46C1F30A5505B93D4600215B
:1006E00008464FF00000BAF1000F00F4400005DAB0
:1006F00000EB80004FF4400101EA50004FEA9059AE
:10070000B9F1010F00DDB9460A9850EA4A000ED04F
:1007100044F61050A5F2FF3545432F14B8F1000FF1
:100720001ED07542291E1EDDC9F100021CE0B8F181
:10073000010F4FF0000001D0302103E0F24305E04B
:100740002154401CB042FBDB3046002200212154E2
:100750000B99C1F80880C1E900200FB0BDE8F08F07
:10076000BD1B6D1CDEE74A4600DA694206A800F0B0
:100770005BFA06AB93E8070003AB83E8070050463B
:100780000A9900F03CFB8DE80700A0F500501F38E7
:1007900000900398002D0ADD42F21F014A460844EA
:1007A000002303A90390684600F0A5FD09E0A0F529
:1007B00000504A461F38002303A90390684600F002
:1007C000AFFD8DE807000004000C03D04FF0FF30B0
:1007D000410800E01046B8F1000F03D0002200925B
:1007E00015461EE0751E05D400F098F930326255AA
:1007F0006D1EF9D5B3460122084302D000227F1CAA
:1008000004E02078302801D100227F1E002A0997B9
:1008100084D01DE0112D07DA00F080F930326255E6
:100820006D1C50EA0102F5D1084302D00098C8B10E
:100830000EE00021681E05E0235C625C63542254D4
:10084000401E491C8142F7DBAB46A81B401E0990A5
:10085000002004F80B000B98099AC0F80880C0E942
:10086000002B7AE711264FF0000857E72DE9F04FEB
:1008700088460446D21D22F0070191B0D1E900015B
:10088000CDE90A0104F051FD02460B98C00F01D0DA
:100890002D2007E02068810701D52B2002E02021D0
:1008A00001EAC000032A099001D0072A05DB0346AC
:1008B0004146204600F078F90BE12078800601D50A
:1008C000E06900E00620B8F1650F814606D0B8F176
:1008D000660F18D0B8F1670F70D131E00020B9F180
:1008E000110F009001DB112301E009F101030AAAB5
:1008F00001A90CA8FFF7E2FEDDE90C70002609F162
:100900000105834647E001204B4600904FF0004729
:100910000AAA01A90CA8FFF7D1FEDDE90DB00C99D8
:100920005D46002610B909F101000D18B9EB05006C
:1009300003D4C0F1FF3609F10105A5EB09002BE056
:10094000B9F1010F01DA4FF001090020B9F1110FDF
:100950000090484601DD112300E003460AAA01A9E0
:100960000CA8FFF7ABFEDDE90C704D460026834670
:10097000207800070AD4AB4500DA5D4601A8012DB6
:1009800004DD411911F8011C302907D04F4502DA66
:1009900017F1040F04DA012082460FE06D1EEEE726
:1009A000002F02DCED1B3E4403E0781CA84200DD72
:1009B0007D1CB81B00F1010A4FF0004720780007AA
:1009C00003D4AA4501DB4FF0FF3A0021B7F1004FF5
:1009D0000DF143088DF8431024D002202B23002F63
:1009E00001DA7F422D230A21021EA0F1010000DC62
:1009F0005FB197FBF1FC97FBF1F201FB1C7C174602
:100A00000CF1300C08F801CDEEE7A8F101000370FD
:100A10002188090501D5452100E06521A0F10108E3
:100A200000F8011C09980FA9A1EB0807FF1D00B1F0
:100A30000120411901EBEA70A1693844081A401EEF
:100A4000A0612078C00602D42046FFF7B3FC0998C5
:100A500028B1D4E901219047206A401C2062207807
:100A6000C00622D52046FFF7A5FC1EE0002E04DBC1
:100A7000B34502DD01A8805D00E03020D4E901210A
:100A80009047206A401C2062761CAAF101005FEAB0
:100A9000000A0AD100F03EF8C0680168405CD4E961
:100AA00001219047206A401C2062281EA5F1010503
:100AB000DCDC07E0D4E9012118F8010B9047206A3B
:100AC000401C2062381EA7F10107F3DC2046FFF727
:100AD00087FC032011B041E601694A1C02610878D5
:100AE000704700B58FB0CDE901310021059105496E
:100AF0007944CDE9031011466846FFF7BFFC0FB0FB
:100B000000BD0000E5FFFFFF0A6802F8010B0A6064
:100B100070470000004870478C1D002030B5B0F1D0
:100B20000A024FEA900E71F100034EEA817EB0EBAB
:100B30000E0061EB91014FEA101E4EEA017E10EBB0
:100B40000E0041EB11114FEA102E4EEA016E10EB30
:100B50000E0041EB11214FEA104E4EEA014E10EB10
:100B60000E0041EB1141401841F100014FEAD00065
:100B700040EA41704FEAD10110EB80054FEA810451
:100B800044EA907444EB01046D1944EB0404521BD5
:100B9000A3414FF0000348BF0A3200D530BD401CCE
:100BA00041F1000130BD00002DE9F0411F4604462F
:100BB00003260168072A01F4006004DB08B116A5CA
:100BC00005E016A503E008B115A500E015A521F084
:100BD00010002060A069C01EA0610FB1401EA0617E
:100BE0002046FFF7E7FB4FB1D4E901213846904793
:100BF000206A401C2062C01C206206E0206AFAE7DE
:100C0000D4E9012115F8010B9047761EF8D2204651
:100C1000FFF7E6FBBDE8F0814E414E006E616E00CD
:100C2000494E4600696E66002DE9F047814616463A
:100C30008AB0354878440DC88DE80D0032487844B4
:100C4000801C03AC0DC884E80D0041F69B300844BD
:100C5000372190FBF1F290FBF1F5A5F1800501FB46
:100C600012041B3C02D56442012000E00020DFF8A2
:100C700098A080460027FA44AAF1BE0A0EE0E007D9
:100C80000AD03246684607EB470101230AEB81018F
:100C900000F046FB8DE8070064107F1C002CEED1AD
:100CA000194F7F44AE3F19E0E80715D007EB041059
:100CB0000DF1180A90E80E008AE80E00C068F042B4
:100CC00001D1981908903246012306A903A800F023
:100CD00027FB03AB83E807006D10641C002DE3D1F4
:100CE0004FF0010332466946B8F1000F03A802D065
:100CF00000F001FB01E000F013FBC9E90001C9F8B5
:100D000008200AB0BDE8F087944A00000048704708
:100D10006C1D00207546FFF7F9FFAE4605006946D9
:100D2000534620F00700854618B020B5FFF7A2FA19
:100D3000BDE820404FF000064FF000074FF00008DC
:100D40004FF0000B21F00701AC46ACE8C009ACE85D
:100D5000C009ACE8C009ACE8C0098D46704710B5C1
:100D60000446AFF300802046BDE81040FFF76DBA9F
:100D70004FF0013C50F8042B51F8043B9A4221D12A
:100D8000A2EB0C03934313EACC1317D150F8042BB6
:100D900051F8043B9A4215D1A2EB0C03934313EA9A
:100DA000CC130BD150F8042B51F8043B9A4209D1D3
:100DB000A2EB0C03934313EACC13DBD04FF00000FB
:100DC000704700BFD01A01BAB1FA81F101F01801E1
:100DD00022FA01F0CB40C1F12001DBB2C0B2C01A4F
:100DE0002CFA01F3D11A914311EAC311E6D17047ED
:100DF00001491820ABBEFEE72600020070475FEAFB
:100E0000400C08BF91F0000F4FEA8C234FEAC1223B
:100E100043EA51514FEA1C5018BF00F5F0404FEA29
:100E2000300018BF41F000415FEA6C5C00F029809F
:100E3000BCF1FF3F08BF40F080407047130C06BF75
:100E400012044FF0100C4FF0000C130E04BF1202EE
:100E50000CF1080C130F04BF12010CF1040C930FDA
:100E600004BF92000CF1020CD30F04BF52000CF12E
:100E7000010C11464FF00002A0F11F00A0EB0C0086
:100E8000704711F0004F08BF704731F000413FF448
:100E9000D5AF0B0C06BF09044FF0100C4FF0000C3F
:100EA0000B0E04BF09020CF1080C0B0F04BF090163
:100EB0000CF1040C8B0F04BF89000CF1020CCB0F5A
:100EC00004BF49000CF1010CCCF12003A0EB0C0095
:100ED00022FA03F302FA0CF241EA030100F10100E5
:100EE000704720F07F4C80EA030023F07F47ACEB93
:100EF000070303F57C5300F0004003F1FF032DE9E5
:100F000080494FEA154B09B44FEA144325EA0B4ECA
:100F100024EA03480FF2042606EB132749083E781B
:100F20005FEA320203FB0667C7F5000707FB06F618
:100F30004FEA54374FEAD64606F1020607FB066C25
:100F4000CCF1005C4FEA1C472CEA074C07FB06F487
:100F50000CFB06F504EB15464FEA961634BF00204D
:100F60004FF000404FEAD13706FB07FC4FEA1C4C1C
:100F70000CFB0BF7D21B03FB0CF761EB07010CFB1F
:100F80000EF7B0EB074072EB17420CFB08F734BFCB
:100F9000A2EB0742B2EB074261EB17414FEA0C4468
:100FA0004FEA910706FB07FC4FEA1C4C0CFB0BF7C2
:100FB000B0EBC74072EB573203FB0CF734BFA2EB28
:100FC000C742B2EBC74261EB57310CFB0EF7B0EBF7
:100FD000C70072EB57720CFB08F734BFA2EBC702D5
:100FE000B2EBC70261EB5771039F4FEA816141EA9F
:100FF000921104EBCC044FEAD1374FEA826206FB30
:1010000007FC42EA90124FEA80604FEA1C4C0CFB4E
:101010000BF7D21B03FB0CF761EB07010CFB0EF780
:10102000B0EB074072EB17420CFB08F734BFA2EBA2
:101030000742B2EB074261EB17414FEA8C554FEA8A
:10104000910704EB9C2406FB07FC4FEA1C4C0CFBAD
:101050000BF7B0EBC74072EB573203FB0CF734BF12
:10106000A2EBC742B2EBC74261EB57310CFB0EF764
:10107000B0EBC70072EB57720CFB08F734BFA2EB62
:10108000C702B2EBC70261EB577115EB4C254FEA73
:10109000816141EA92114FEA82624FEAD13742EA16
:1010A000901206FB07FC44F100044FEA80604FEA0F
:1010B0001C4C0CFB0BF7D21B03FB0CF761EB07017D
:1010C0000CFB0EF7B0EB074072EB17420CFB08F776
:1010D00034BFA2EB0742B2EB074261EB174115EBBD
:1010E0001C154FEA813141EA92414FEA823242EACD
:1010F00090424FEA80304FEA0C7644F1000448EA0F
:1011000003434EEA0B484FF0000EB2EB080C71EBB4
:10111000030724BF624639464EEB0E0E4FF0000B1C
:101120000018524149414BEB0B0BB2EB080C71EB31
:1011300003077BF1000B24BF624639464EEB0E0ECF
:101140004FF0000B0018524149414BEB0B0BB2EB37
:10115000080C71EB03077BF1000B24BF6246394694
:101160004EEB0E0E51EA020718BF46F0010616EBD1
:101170000E7655F1000254F1000103D5BDE8890156
:10118000BDE80088BDE88901BDE80048B6195241B4
:1011900041EB0101A3F10103704780807F7E7D7CDC
:1011A0007B7A7978777676757473727171706F6EF9
:1011B0006E6D6C6C6B6A6A696868676666656464A4
:1011C000636362616160605F5F5E5E5D5D5C5C5B2E
:1011D0005B5A5A595958585757565655555554549D
:1011E000535352525251515050504F4F4F4E4E4DFB
:1011F0004D4D4C4C4C4B4B4B4A4A4A494949484847
:101200004847474747464646454545444444444386
:1012100043434342424242414141002B9C4630D429
:1012200077002BD01CB54FEA370703B44FF01000FE
:101230004FF01001BAF1000F06D0BCF1000FDCBF77
:1012400040F0080040F008014FF000000FBCBDE87E
:1012500010400BF1010BBBF1010F08BF5FEA17074C
:1012600022BF12F1010211F101014FF0004143F1DF
:10127000000300F0004043EA00007047F9D357082C
:10128000D0E746EA064613F1400F4FEA16461FDD47
:1012900013F1200FDFBF16430A46002120335B42C3
:1012A000BED0C3F1200746EA064602FA07F74FEA26
:1012B000164646EA0706C3F1200722FA03F201FAAE
:1012C00007F721FA03F14FF0000342EA0702A7E70C
:1012D00046EA020646EA06464FEA164646EA01068E
:1012E000BCBF46EA0646360C4FF000034FF0000242
:1012F0004FF0000194E72DE9804C9A46934670B474
:1013000091E8380007C831EA400C48BF34EA430C82
:1013100003D5FFF7E6FDFFF780FFF0BCBDE8008CCA
:101320002DE9804C9A46934670B491E8380007C87E
:1013300010F0804F08BF13F0804F03D100F005F884
:10134000FFF76BFFF0BCBDE8008C20F07F4780EA20
:10135000030023F07F4C07EB0C03A3F57C5300F054
:101360000040A3F1FE0392F0000F00F0B38095F06F
:10137000000F00F077802DE901494FEA11404FEA54
:10138000144621EA004800FB06FC24EA064708FB55
:1013900006F607FB08F800FB07F718EB06484CEBCE
:1013A000164C4FEA124B18EB07484FEA15464CEB28
:1013B000174022EA0B4E0BFB06FC25EA06470EFB04
:1013C00006F607FB0EFE0BFB07F71EEB064E4CEB7B
:1013D000164C4FF000061EEB074E4CEB174B18EB6C
:1013E0000B0840F1000018EB0E0B58EB000840F121
:1013F00000008F1A4FF000013CBFC943661B14BFA9
:10140000B5EB040C00213CBFC943F61B4FEA17445F
:101410004EEA8E0E27EA04454FEA1C4704FB07629A
:101420002CEA074C05FB07F70CFB05F604FB0CFC4C
:1014300016EB074642EB174216EB0C4642EB1C42FA
:101440001BEB060658EB0202414146EA9E0601D517
:10145000BDE80189B619524141EB0101A3F1010335
:10146000BDE801894FEA14454FEA114724EA0546D1
:1014700021EA074C05FB07F406FB07F70CFB06F116
:1014800005FB0CFC11EB074144EB17444FEA1247F4
:1014900011EB0C4144EB1C4422EA074C05FB07F21C
:1014A00006FB07F70CFB06F605FB0CFC16EB0746E4
:1014B00042EB174216EB0C4642EB1C456A1854F1FE
:1014C000000148BF7047B619524141EB0101A3F139
:1014D0000103704795F0000F37D04FEA11424FEAF1
:1014E000144721EA024624EA074C02FB07F106FBF7
:1014F00007F70CFB06F402FB0CFC14EB074441EB72
:1015000017414FEA154714EB0C4441EB1C4125EA07
:10151000074C02FB07F506FB07F70CFB06F602FB80
:101520000CFC16EB074645EB174516EB0C4645EB56
:101530001C42121951F1000148BF7047B6195241BF
:1015400041EB0101A3F1010370474FEA14454FEA53
:10155000114724EA054621EA074C05FB07F106FB83
:1015600007F70CFB06F24FF0000605FB0CFC12EB34
:10157000074241EB174112EB0C4251EB1C4148BFB3
:101580007047921841EB0101A3F10103704700007D
:10159000464910B54A6822F440324A604A684368B6
:1015A0001A434A6001684A6822F480724A600168FE
:1015B0004A68036942EA03224A6001684A6822F0E5
:1015C00040724A6001684A6883681A434A60016849
:1015D0008A6822F400628A6001688A68C3681A43D4
:1015E0008A60816A6FF07062D14201688A6822F075
:1015F00070628A6001688A680CD0836A1A438A60C4
:1016000001688A6822F040528A6001688A68C36A69
:101610001A4301E022F040528A6001688A6822F091
:1016200002028A6001688A68037E42EA43028A6095
:1016300090F82010002901684A680FD042F4006237
:101640004A6001684A6822F460424A6001684A6858
:10165000174C436A04EB43331A4301E022F400625F
:101660004A600168CA6A22F47002CA620168CA6AE2
:10167000838B104C04EB03531A43CA6201688A68D7
:1016800022F400728A6001688A6890F8303042EA79
:1016900043228A6001688A6822F480628A60016855
:1016A0008A68406942EA8020886010BD00230140BA
:1016B00000E0FFFF0000F0FFFEE700207047002081
:1016C0007047000010B500220449054802F070FA86
:1016D0000449034802F05FFA002010BD680E0020A4
:1016E0008C0100206806002010B50146034802F076
:1016F00052FA024802F028FA002010BD8C010020A6
:1017000000207047094A10B5D2F8BC22D2F8142242
:101710000AB1012010BD0A460146044802F048FA09
:10172000BDE81040014802F0BDBA00008C01002065
:10173000704772B6FEE7000078B50024009490F878
:101740003C20012A19D0012280F83C200A68072396
:101750000568092A13D9EE680A3A02EB420293405F
:101760009E43EE600B788A680A3B03EB43039A4082
:101770000368DD682A43DA6010E0022078BD2E6934
:1017800002EB420293409E432E610B788A6803EB82
:1017900043039A4003681D692A431A614A681F235C
:1017A000072A13D205686E6B521E02EB8202934029
:1017B0009E436E630A8893B20A79521E02EB82023C
:1017C00093400268556B2B43536327E005680D2A4D
:1017D00012D22E6BD21F02EB820293409E432E63E5
:1017E0000B790A88DB1F92B203EB83039A400368EC
:1017F0001D6B2A431A6311E0EE6A0D3A02EB820276
:1018000093409E43EE620B790A880D3B92B203EB44
:1018100083039A400368DD6A2A43DA621B4B05683A
:10182000194A9D420AD10D68122D07D1556825F439
:1018300000055560556845F48005556005689D4272
:101840001DD1134D0B68AB4201D0112B17D153683A
:1018500023F480035360536843F400035360096822
:10186000A9420CD10B490C4A0968B1FBF2F101EB1A
:101870008101490000E0491E00910029FBD180F858
:101880003C40002078BD00000023014000200140C2
:10189000120000108400002040420F000068C06C5D
:1018A000704770B504004FF0000503D0206C00268F
:1018B00010B107E0012070BD204600F01DF86664FD
:1018C00084F83C60206CC00610D4206C20F4885052
:1018D00040F0020020642046FFF75AFE6664206C48
:1018E00020F0020040F00100206400E0012584F8AF
:1018F0003C60284670BD000010B586B00446142137
:101900006846FEF757FE1149206888421CD11048EE
:101910000021026842F480720260006800F4807066
:1019200005900B481438026842F00102026000681A
:1019300000F001000590012000900320CDE9010195
:101940006946044800F0F4F806B010BD00200140DC
:1019500044380240000002402DE9F041044600688E
:101960000D4681684FF0000749050BD58068C0051A
:1019700008D5206C40F02000206484F83C700120E1
:10198000BDE8F08100F0CAF9064613E0681C11D0EA
:1019900025B100F0C3F9801BA8420BD9206800686C
:1019A000800707D4206C40F00400206484F83C7069
:1019B0000320E5E7206800688007E7D521686FF01D
:1019C00012000860206C40F4007020642068816878
:1019D00011F0405F13D1217E89B9C16A11F4700FF3
:1019E00002D0806840050AD4206C20F48070206406
:1019F000206CC00403D4206C40F00100206400205F
:101A0000BEE7000018B50021009190F83C20012AA3
:101A100007D0012280F83C2002689368DB0702D0DF
:101A200011E0022018BD936843F001039360244A3B
:101A3000244B1268B2FBF3F202EB420200E0521EAA
:101A40000092002AFBD102689368DB072ED0036C5A
:101A500040F20164A34343F48073036453685B055D
:101A600005D5036C23F4005343F480530364036CE3
:101A7000DB0404D5436C23F00603436400E04164B7
:101A800080F83C1010496FF0220313604968006829
:101A9000C90602D00D49884210D1816811F0405F1B
:101AA0000CD1816841F08041816007E0016C41F018
:101AB00010010164416C41F001014164002018BD36
:101AC0008400002040420F0000230140002001401C
:101AD00090F83C1001290CD0012180F83C100168DD
:101AE0008A6822F001028A6001688968C90702D009
:101AF00007E002207047016C21F4885141F0010198
:101B00000164002180F83C100846704770B5044617
:101B100000F004F90546601C02D004480078044433
:101B200000F0FCF8401BA042FAD370BD7800002002
:101B30002DE9F84FDFF8B8A10022012403254FF06A
:101B40000F090AF1040BAAF1040E00BF0B6804FA96
:101B500002F63340B34273D10F7907F00307012F28
:101B600001D0022F16D187684FEA420805FA08FC17
:101B700027EA0C07D1F80CC00CFA08FC4CEA070C59
:101B8000C0F808C04768B7430E79C6F30016964000
:101B90003E4346600E79F643B6070DD0C76856003F
:101BA00005FA06FC27EA0C07D1F808C00CFA06FC77
:101BB0004CEA070CC0F80CC00E7906F00306022EA2
:101BC00010D1D60800EB8608D8F8206057074FEAF6
:101BD000D76C09FA0CF7BE430F6907FA0CF73743C5
:101BE000C8F8207006684FEA420C05FA0CF7BE43AD
:101BF0000F7907F0030707FA0CF7374307604E68C1
:101C000016F4403F6DD03B4E376847F4804737604D
:101C1000366822F0030706F480460096364E07EB3E
:101C2000060CDCF8086897073F0F09FA07F826EA60
:101C30000806DFF8C880404503D14FF000081EE0D9
:101C40004FE0DFF8BC80404502D14FF0010816E0BC
:101C5000DFF8B080404502D14FF002080FE0DFF816
:101C6000A880404502D14FF0030808E0DFF89C80CF
:101C7000404502D14FF0040801E04FF0070808FA90
:101C800007F848EA0608CCF80888DAF800605746F2
:101C9000D1F804C09E435FEACC2C00D51E433E60C1
:101CA000DBF800605F46D1F804C09E435FEA8C2CED
:101CB00000D51E433E60DEF800607746D1F804C0D0
:101CC0009E435FEA8C3C00D51E433E60084F083FB0
:101CD0003E68D1F804C09E435FEACC3C00D51E4369
:101CE0003E60521C102AFFF431AFBDE8F88F0000AF
:101CF000083C0140443802400030014000000240EE
:101D00000004024000080240000C024000100240A3
:101D10000AB1816170470904FBE70000014880684F
:101D20007047000078000020024881680278114462
:101D300081607047780000200B4810B5016841F4BD
:101D400000710160016841F480610160016841F443
:101D500080710160032000F06FF8002000F006F8A9
:101D600000F024F8002010BD003C024070B50D4D7D
:101D700004464FF47A712878B1FBF0F00A490968FB
:101D8000B1FBF0F001F03EFA48B9102C07D2002266
:101D90002146501E00F030F800206C6070BD01201C
:101DA00070BD000078000020840000200A4808B5BB
:101DB000016841F480410160006800F480400090B7
:101DC0000548001F016841F080510160006800F083
:101DD0008050009008BD000044380240002809DB14
:101DE00000F01F02012191404009800000F1E02035
:101DF000C0F8001170470000F0B40E4B1B680C4691
:101E0000C3F30223C3F10705042D00D90425191DCE
:101E1000072901D2002300E0DB1E012606FA05F1A6
:101E2000491E214099409E40761E16403143F0BC29
:101E300003F093BA0CED00E0064900F007020868D1
:101E40004FF6FF03184040EA0220034A104308609F
:101E5000704700000CED00E00000FA0570470068D4
:101E6000416200207047F0B50368586A39B19C6A36
:101E70004FF4827600EB144400204D1E0AE040EA45
:101E8000024098620FE006EB8007DF59401C04EB2C
:101E90001744C0B2A842F6D344EA02404FF480721D
:101EA00002EB810158500020F0BDD0F8E00402F0B0
:101EB00092B901EBC10200EB8202D0F8E004126A91
:101EC00002F0E3B801EBC10200EB8202D0F8E004BB
:101ED000D2F8602202F035B9D0F8E00402F07DB902
:101EE0000A0601F00F0101EBC10100EB810101D5F0
:101EF000143101E001F51571006803F063B870B5A5
:101F000004460B0601F00F0000EBC00104EB810159
:101F10004FF001024FF0000502D54A75143103E07D
:101F200081F8555201F51571087094F89404012850
:101F300008D084F89424206802F05EFD84F894545C
:101F4000002070BD022070BD70B5044601F00F0086
:101F50002279904201D9012070BD0B0601F00F01DA
:101F600001EBC10104EB81014FF001024FF00005CC
:101F700002D54A75143103E081F8555201F5157107
:101F80008D70087094F89404012808D084F8942483
:101F9000206802F0A3FE84F89454002070BD022053
:101FA00070BD01F00F0101EBC10100EB8100D0F821
:101FB000680270472DE9F04104460F0601F00F005A
:101FC00000EBC00104EB81014FF001064FF000056A
:101FD00002D54E75143103E081F8555201F51571A3
:101FE000C2F30A0208708A600B714A7802B1488312
:101FF000022B00D14D7194F89404012809D084F883
:102000009464206802F046FC284684F89454BDE8A5
:10201000F0810220FBE710B501F00F0404EBC401CE
:1020200000EB8101C1E998230023C1F8683281F8EF
:10203000553281F85442837901F51571012B00D195
:10204000CA618279006802F0A1FE002010BD70B55F
:1020500004460D4601F00F002179884201D9012084
:1020600070BD29064FF000064FF0010206D500EBC7
:10207000C00104EB81014A75143107E005EBC5018D
:1020800004EB810181F8556201F515718A700870C1
:1020900094F89404012807D084F89424206802F06E
:1020A00049FE280702D007E0022070BDA17904F2A2
:1020B0009C42206802F0E6FD84F89464002070BD24
:1020C00010B501F00F0404EBC40100EB8101C1E97C
:1020D000082300238B6201234B7501F8144F837989
:1020E000012B00D1CA618279006802F04FFE002006
:1020F00010BD00002DE9FC5F05680446284602F08B
:10210000FDFF00287DD1206803F024F8002878D056
:10211000D5F80808C0F30D20C4F8D404206803F0F3
:1021200019F8800704D52068416901F00201416176
:10213000206803F00FF8C10604F29C40009034D5EB
:102140002068816921F0100181612F6A07F00F007A
:1021500000EBC00004EB8006C7F3434006F515769C
:10216000022802D0062811D01AE047F6F070074284
:1021700016D0C7F30A1217462846F16802F0EEFFA0
:10218000F0683844F0607069384408E00822284656
:10219000009902F0E3FF7069C7F30A110844706107
:1021A0002068816941F010018161206802F0D2FF4E
:1021B00000034FF0080B4FF0000A4FF001097CD5E7
:1021C0000026206802F0A5FF074674E0F80770D0EB
:1021D000F1B2206802F0B6FF8046C00707D005EBD9
:1021E0004611C1F8089B3146204601F099F95FEA93
:1021F000087024D505EB4611C1F808BB2068016CB6
:1022000000E023E200EB46100191D0F8082BFB4BD5
:10221000994205D9110403D54FF40041C0F8081BB9
:10222000204600F0F3FAF5490198884207D9A079D1
:10223000012804D120680121009A02F023FD5FEA01
:10224000C86004D505EB46111020C1F8080B5FEA01
:1022500088701DD56869000605D5D5F8040840F4D6
:102260008061C5F8041806EBC60004EB800090F806
:10227000571200F51570012905D180F803A0F1B2BD
:10228000204600F0E9F905EB46110220C1F8080BE1
:102290005FEA886004D505EB46102021C0F8081BD2
:1022A0005FEA884005D505EB46104FF40051C0F8B1
:1022B000081B7F08761C002F88D1206802F04AFF97
:1022C00040036ED5206802F01DFF0746002666E039
:1022D000F80762D0F1B2206802F022FF8046C00702
:1022E00023D006F00F01D5F8342809FA01F18A430A
:1022F000C5F8342805EB4611C1F80899A0790128E2
:102300000FD106EBC60004EB8000D0E90721114491
:10231000016236B9606A20B920680121009A02F092
:10232000B1FCF1B22046FFF7C4FD5FEA087003D5A7
:1023300005EB4611C1F808B95FEAC86004D505EBA2
:1023400046111020C1F808095FEA486004D505EB82
:1023500046104021C0F808195FEA887016D531464A
:10236000284602F0A0FE06EBC60004EB8000C17D0B
:102370001430012905D180F803A0F1B2204600F005
:1023800067F905EB46110220C1F808095FEA086009
:1023900003D53146204601F029F97F08761C002F2D
:1023A00096D1206802F0D6FE002811DAD5F804088C
:1023B00020F00101C5F8041894F8CC0401282BD0B2
:1023C000204600F008FA2068416901F000414161AF
:1023D000206802F0BFFE00050BD5D5F80808C0073D
:1023E00002D0204600F03AFA2068416901F4006109
:1023F0004161206802F0AEFEC00467D5D5F804083C
:1024000020F00100C5F804081021206802F04BFEFE
:1024100000214FF67F3220E084F8CCA40021204632
:10242000FFF71CFDCFE700BF05EB4110C0F80829FE
:10243000D0F8003923F40013C0F80039C0F8082B95
:10244000D0F8003B23F40013C0F8003BD0F8003B69
:1024500043F00063C0F8003B491C20798842E3D870
:10246000D5F81C0840F00111C5F81C18E07B0028C5
:1024700028460DD0D0F8840840F00B01C5F8841828
:10248000D5F8440840F00B012846C5F844180DE083
:10249000D0F8140842F22B010843C5F81408D5F807
:1024A000100840F00B012846C5F81018D0F80008B5
:1024B00020F4FE61C5F80018A1792068009A02F0A6
:1024C000E1FB2068416901F480514161206802F01C
:1024D00041FE800415D5206802F01CFA206802F045
:1024E00000FEE07100F016FB0146E279206802F080
:1024F00093FE204600F05CF92068416901F4005128
:102500004161206802F026FE000707D5204600F052
:1025100066F92068416901F008014161206802F014
:1025200019FE000616D5A86920F08001A9610126D0
:102530000DE000BF06EBC60004EB800090F85702E8
:10254000012803D1F1B22046FFF7CAFC761C20799E
:10255000B042EFD8206802F0FDFDC0021FD5012671
:102560004F4614E005EB4610D0F8000906EBC60113
:1025700004EB81010A7E012A08D1002806DACF7512
:10258000F0B240F080012046FFF7AAFC761C2079CB
:10259000B042E7D82068416901F4801141612068A8
:1025A00002F0D8FD800234D501204A4629E000BF60
:1025B00005EB4011D1F8001B00EBC00304EB8303D3
:1025C00093F85862012E1BD1002919DA94F8D464CB
:1025D000C1F3004106F001068E4211D183F8572263
:1025E000A96941F08003AB616969090608D4D5F88F
:1025F000040840F40070C5F8040805E00A30544FA0
:10260000401C21798142D3D82068416901F400112E
:102610004161206802F09EFD400007D52046FFF78B
:1026200044FC2068416901F080414161206802F06A
:1026300091FD40070AD520684568680702D5204605
:10264000FFF74AFC2068416829434160BDE8FC9FD0
:10265000D0F8E00401F013BED0F8E00401F023BE8E
:10266000F8B5040005D094F895042668002510B14B
:1026700006E00120F8BD84F89454204600F056F896
:10268000032084F89504B6F1A04F00D1A57120680D
:1026900002F0F2FA207C8DF8000094E80F0002F0BE
:1026A00047F90226B8BB0021206802F076FD90BBF6
:1026B000002001270DE000BF00EBC00104EB810109
:1026C0004F750875C8850D76CD610D62401CC0B28E
:1026D0004D6221798142EFD8002011E000EBC0016A
:1026E00004EB810181F8555281F8540281F8585267
:1026F000C1F85C52C1F86052401CC0B2C1F86452CB
:1027000021798142EAD8207C8DF8000094E80F00FE
:1027100002F0F4F910B184F89564AAE7657484F8BE
:102720009574206802F0DCF90020F8BD10B586B081
:10273000044614216846FDF73DFF2068B0F1A04F24
:102740002FD119480021026842F00102026000689E
:1027500000F0010005904FF4C05000900220CDE938
:102760000101032003900A20049069460F48FFF7F7
:10277000DFF90D48001D016841F0800101600A4841
:102780001430016841F4804101600068002200F4C7
:102790008040059011464320FFF72EFB4320FFF7B2
:1027A0001DFB06B010BD00003038024000000240A2
:1027B00070B50446C0790125022801D0FEF7B9FFA3
:1027C0002946D4F8E00401F0DDFDD4F8E004BDE8CA
:1027D000704001F091BDD0F8E00401F0BCBDD0F82C
:1027E000E00401F0C2BD10B5044690F8940401283D
:1027F0000AD0012084F894046174206802F0FBFC84
:10280000002084F8940410BD022010BDD0F8E0240C
:1028100000F29C41104601F0C1BD10B504460068AD
:1028200094F89414012909D0012184F89414C16802
:10283000490609D5617B012902D005E0022010BDBF
:10284000816B41F480318163206802F00AFC2068CA
:1028500002F038F9002084F8940410BD10B5044645
:10286000D0F8E00401F0DCFD2068D0F8001E41F053
:102870000101C0F8001EE07A002804D00248016877
:1028800041F00601016010BD10ED00E02DE9F843B4
:10289000044600684FF00109C1074FF0000601D15E
:1028A000400729D5DFF82081C8F86860FFF736FABD
:1028B0000746464D05E000BFFFF730FAC01B02286F
:1028C00059D828680001F7D4A068217B800140EA2C
:1028D0000170616808433D4984310860C8F8689018
:1028E000FFF71CFA074604E0FFF718FAC01B02289E
:1028F00041D828680001F7D52078800752D53348A1
:102900004030016841F0805101600068304D00F0B6
:1029100080500090286840F480702860FFF7FEF92E
:10292000074604E0FFF7FAF9C01B022823D82868FD
:10293000C005F7D5254D7035286810F4407020D0BB
:10294000218A01F4407181421BD02868214920F47A
:102950004070C1F800900E6028602868C00710D051
:10296000FFF7DCF9064641F2883707E0FFF7D6F9B2
:10297000801BB84202D90320BDE8F883286880078D
:10298000F4D521691148C1F301220830032A12D07D
:10299000016821F4F81101602868218AC1F30B0154
:1029A000084328602078000703D50B49207DC1F833
:1029B000E0010020E0E70268084B22F4F812194019
:1029C0000A430260E8E70000000047420038024086
:1029D00000700040400E474200104742FFFCFF0FCE
:1029E0002DE9F0470E46050065D0DFF81481D8F8D0
:1029F0000000F7B200F00700B04207D288F800707C
:102A0000D8F8000000F00700B04254D128683D4CCF
:102A1000810712D5400703D5206840F4E0502060BC
:102A20002878000703D5206840F4604020602068C3
:102A3000A96820F0F000084320602878C0072DD056
:102A4000304968680839012812D0022813D00328B9
:102A500011D00968890700292DDA216821F00301C6
:102A600001432160FFF75AF9814641F2883A0EE0AE
:102A700009688903EFE709688901ECE7FFF74EF978
:102A8000A0EB0901514502D90320BDE8F087206879
:102A9000696800F00C00B0EB810FEFD1D8F800109E
:102AA000404601F00701B14207D90770006800F005
:102AB0000700B04201D00120E7E72878400705D59C
:102AC0002068E96820F4E050084320602878000777
:102AD00006D52068296920F4604040EAC1002060E2
:102AE00000F01EF82168084AC1F30311515CC84088
:102AF0000649086006480068FFF738F90020C4E777
:102B0000003C0240083802402C5600088400002097
:102B10007C0000200148006870470000840000200D
:102B2000154810B5006810F00C02144813D0144971
:102B3000042A0FD0082A0ED10F4C241F22682368C4
:102B400002F03F025B0207D52068C0F38810A0FBAB
:102B5000010106E0084610BD2168C1F38811A1FB00
:102B600000010023FDF798FB2168C1F30141491CD6
:102B70004900B0FBF1F010BD083802400024F40019
:102B800040787D012DE9F84F04006ED02078DFF801
:102B90004C93C007A9F104054AD009F1040001686B
:102BA000C1F38101012908D00068C0F38100022827
:102BB0000AD1D9F80000400206D52868800337D52D
:102BC00060680028E1D033E06068B0F5803F10D045
:102BD000B0F5A02F286810D020F480302860286835
:102BE00020F4802028606068A8B1FFF797F80646B7
:102BF0000DE0286840F48030F4E740F4802028603D
:102C0000F7E700BFFFF78AF8801B642873D82868AD
:102C10008003F7D50CE0FFF781F8064605E000BF1A
:102C2000FFF77CF8801B6428F0D828688003F7D46D
:102C30002078DFF8AC8280074FF0000A3ED5A74825
:102C4000001D016811F00C0F08D00068C0F381006E
:102C500002280BD1D9F80000400207D42868800769
:102C600016D5E068012800D112E033E1E068B8B180
:102C70000120C8F80000FFF751F8064605E000BF44
:102C8000FFF74CF8801B0228C0D828688007F7D5CA
:102C90002868216920F0F80040EAC10028600DE0B2
:102CA000C8F800A0FFF73AF8064604E0FFF736F848
:102CB000801B02281FD828688007F7D420780007D7
:102CC00022D5864F87486169703771B10121016053
:102CD000FFF724F8064604E0FFF720F8801B0228DF
:102CE00009D838688007F7D50EE0C0F800A0FFF7D4
:102CF00015F8064605E082E0FFF710F8801B022871
:102D00007DD838688007F7D42078400768D5DFF889
:102D1000CCB100270BF13C0BDBF80000C0000BD45A
:102D2000DBF8001041F08051CBF80010DBF8000018
:102D3000012700F0805000906B4E3068C00510D421
:102D4000306840F480703060FEF7E8FF009005E0E6
:102D5000FEF7E4FF0099401A022850D83068C005F9
:102D6000F6D55E4EA0686C3601280FD00528306875
:102D700010D020F001003060306820F00400306096
:102D8000A068B8B1FEF7CAFF00900FE0306840F0CD
:102D90000100F4E740F004003060F7E7FEF7BEFF03
:102DA0000099411A41F28830814266D83068800724
:102DB000F4D50EE0FEF7B2FF009007E0FEF7AEFF9D
:102DC0000099411A41F28830814256D83068800714
:102DD000F4D42FB1DBF8001021F08051CBF80010B3
:102DE000A069C8B33D49091D0968C1F381010229E1
:102DF0004AD00228504607D0C8F8600000E03CE006
:102E0000FEF78CFF04463BE04746C8F86000FEF73B
:102E100085FF064605E000BFFEF780FF801B022805
:102E20002BD828688001F7D4D4E907010843A16AA8
:102E30002E4A490802EB0141626A41EA82110843C5
:102E400094F82C1040EA0161C9F80010012038669E
:102E5000FEF764FF044606E03EE000BFFEF75EFFBB
:102E6000001B022809D828688001F7D534E000BF8C
:102E7000FEF754FF001B022802D90320BDE8F88F9B
:102E800028688001F4D427E00128F7D0D9F80000A1
:102E9000E26900F4800191421CD1226A00F03F01F6
:102EA000914217D147F6C071626A0140B1EB821FAF
:102EB00010D1A26A4FF0FF3300F4403103EB52020D
:102EC000B1EB024F06D194F82C1000F07060B0EB1B
:102ED000016F01D00120D1E70020CFE70438024084
:102EE00000004742800E4742007000400000FFFF94
:102EF0000068503050F8210070470068503040F8AA
:102F00002120704710B500680B4641680D4801400C
:102F1000080CD870C1F304245C7001F03F049C706D
:102F2000C1F34231197052B900F0B2FBD870587831
:102F300000F0AEFB5870987800F0AAFB9870002063
:102F400010BD00003FFFFF0010B50B460168896A05
:102F5000596001680969C1F30E0199600068016850
:102F60000D480140C1F305401870C1F306245C70A0
:102F700001F07F049C70890DD97052B900F088FB74
:102F80001870587800F084FB5870987800F080FB37
:102F90009870002010BD00007F7F7F0010B50400F6
:102FA00002D0607F10B106E0012010BD0020207724
:102FB000204600F041F8022060772068C168C943CC
:102FC000C90632D5CA214162216853204862204691
:102FD00000F072FB20BB20688168164A11408160B6
:102FE0002168886862681043D4E904231A431043B7
:102FF00088602168E068086120680169228941EAE7
:1030000002410161204600F07BFB48B921680A6C4F
:1030100022F480220A6421680A6CA3691A430A64B4
:103020002268FF21516208B110BD002001216177A3
:1030300010BD0000BFFF8FFF10B586B004461821F9
:103040006846FDF7B7FA0949206888420CD102208A
:103050000090C00104906846FFF718FC08B1FEF725
:1030600068FB03490120086006B010BD002800403D
:103070003C0E474270B50446007F0B46012819D02C
:103080000126267702206077B2B19878D97840EA95
:10309000014558781978000240EA4130054321681B
:1030A000CA204862216853204862204600F004FB91
:1030B000D0B122E0022070BD5878C10603D500F0DF
:1030C000EF000A305870D87800F0EBFA0204587814
:1030D00000F0E7FA42EA0022987800F0E2FA0243B0
:1030E000187842EA4035DAE707480540206845602D
:1030F000204600F005FB00B966772268FF21516287
:103100000021217770BD00003FFFFF002DE9F04155
:103110000446007F0D46012823D04FF0010884F8B3
:103120001C80022060772068002780684FEA40609A
:10313000D2B1002800DBEF70A878297840EA014678
:103140006878E978000240EA815006432168CA2085
:103150004862216853204862204600F0ADFAB8B1B9
:103160002CE00220BDE8F081002800DBEF70287819
:1031700000F097FA0204687800F093FA42EA00221D
:10318000A87800F08EFA0243E87842EA8056DDE73C
:103190000D480640206806602068816821F480217F
:1031A0008160D5E90301084321688A68104388607B
:1031B000204600F0A5FA08B984F81D802268FF2196
:1031C00051622777CEE700007F7F7F0070B504460D
:1031D0000B482168C860FEF7A1FD05464FF47A76DA
:1031E00007E000BFFEF79AFD401BB04201D9032063
:1031F00070BD2068C0688006F4D5002070BD000056
:103200005F3F010010B5401EB0F1807F01D3012067
:1032100010BD4FF0E02460610F21601702F09DF8AF
:103220000020A06107202061002010BDFEE7000003
:10323000F0B500230A24302537261F4611E000BFD1
:10324000B4EB107F02D905EB107C01E006EB107C9B
:1032500001F813C001EB430C00015B1C8CF80170FA
:10326000DBB29342ECD3F0BD2DE9F0410B4F0C469D
:1032700005464FF40056002231463846FEF748FD19
:10328000681EFEF743FC012231463846FEF740FD3A
:10329000601EBDE8F041FEF739BC000000080240A6
:1032A0007FB5002421480094019402941E490394A0
:1032B000016001254FF480310561C0E901140476F5
:1032C00080F820501A494562C0E90A140326C661F5
:1032D000C46080F830404561FEF7E3FA08B1FEF7BC
:1032E00028FA06200094CDE9015069460F48FEF700
:1032F00023FA08B1FEF71DFA0E4800900220019053
:1033000069460A48FEF718FA08B1FEF712FA1120CA
:10331000CDE9000669460548FEF70EFA002801D0FF
:10332000FEF707FA7FBD00000020014024010020C5
:103330000100000F1200001070B586B0142168461D
:10334000FDF738F915480024016841F004010160D7
:10335000016801F004010591016841F080010160FC
:10336000016801F080010591016841F001010160EF
:103370000068012200F00100094E5503059029461E
:103380003046FEF7C5FC01200095CDE901046946F1
:1033900030460394FEF7CCFB06B070BD30380240D7
:1033A0000008024070B586B014216846FDF702F9A6
:1033B0003F4800243D490594C0E900147F21816005
:1033C000FF21C0E9031444618461FFF7E7FD08B100
:1033D000FEF7AFF901213648FFF78AFD43F2F222EA
:1033E000904229D001213248FFF787FD8DF8004037
:1033F0008DF801408DF802400394012269462C4863
:103400000494FFF783FE08B1FEF793F901208DF8CD
:10341000140006218DF815108DF8160020208DF867
:103420001700012205A92248FFF724FE002801D039
:10343000FEF77FF906B070BD1E4D28681E4C0001D6
:103440004FF400560CD5002231462046FEF760FCB2
:103450000920FEF75BFB012231462046FEF758FCAF
:10346000286840011CD5002231462046FEF750FC5A
:103470000920FEF74BFB012231462046FEF748FCAF
:103480006320FEF743FB002231462046FEF740FC56
:103490000920FEF73BFB012231462046FEF738FCAF
:1034A000286840F080702860C4E7000000280040D1
:1034B0006C010020743802400008024010B5002260
:1034C0000F49104800F0BCFD08B1FEF732F90E4973
:1034D0000C4800F0D1FF08B1FEF72BF90B49094861
:1034E00000F04EFB08B1FEF724F9064801F048F859
:1034F000002803D0BDE81040FEF71BB910BD000046
:10350000140000208C010020E00000206400002056
:10351000FEE7FEE70148FEF7EDBD00008818002039
:103520002DE9F04103680D4604461E6C03EB45117E
:10353000D1F8080B94F806E04FF400474FF0200C48
:1035400004F29C42BEF1010F09D0DFF898E0764505
:1035500039D1020432D500BFC1F8087B3FE0224BCD
:103560005FEA007E04D59E4239D90004F4D436E0E7
:103570005FEA806E02D5C1F808CB30E010F0280F6A
:103580002DD19E4201D90004E6D405EBC50004EB21
:103590008000D1F8101BD0F87432C1F31201591A0F
:1035A000C0F8681200F51570ADB903691BB1C268A7
:1035B0001144C1600FE0012120680AE080060AD5AD
:1035C000C1F808CB07E035B9D4F8640218B9002176
:1035D000184601F057FBE9B22046FEF773FC0020C5
:1035E000BDE8F0810A31544F0A30544F2DE9F84FAD
:1035F0000E4601EBC60100EB810481460568D4E963
:1036000009101434884202D90120BDE8F88F081A45
:10361000A168814200D20846C01C870805EB461805
:103620001BE000BFA0EB010AA068504500D2824613
:103630000AF10300870899F8060000901FFA8AF340
:10364000F2B22846E16801F05BFEE16801EB0A0096
:10365000E060616901EB0A006061D8F8180980B286
:10366000B84205D3D4E90401814201D20028D9D15E
:10367000D4E90401884208D806F00F0101208840EF
:10368000D5F834188143C5F834180020BDE77047D9
:10369000010901EB810100F00F0000EB4100C0B215
:1036A0007047002102E00A38C0B2491C0A28FAD249
:1036B000090740EA116070472DE9F04104460068AF
:1036C0000025C168490618D4C16841F08001C16075
:1036D000FEF724FB06464FF47A78042707E000BF84
:1036E000FEF71CFB801B404501D967770125206848
:1036F000C068400601D4002DF2D02846BDE8F08114
:1037000070B5044600680025C16821F08001C160E1
:1037100020688068800606D42046FFF757FD10B168
:10372000042060770125284670BD704701784078F5
:1037300041EA00207047FEF7F7BA000030B593B0B9
:1037400030216846FCF736FF14210CA8FCF732FF45
:103750001E480025016841F080510160006800F0BA
:10376000805011901A48016841F44041016000689E
:10377000022400F440401190052000904FF4803066
:103780000190012002908005CDE9064019200890A3
:10379000C020CDE9090404200B906846FFF7F2F938
:1037A00008B172B6FEE70CA90F2081E831004FF492
:1037B0008050CDE90F0503210CA8FFF711F900286F
:1037C00001D072B6FEE713B030BD000040380240B1
:1037D000007000400248016841F4700101607047C8
:1037E00088ED00E02DE9F0410C46D0F8D412D0F875
:1037F000C82200EB8101D1F8C01229B304F00F06F2
:1038000006EB860300EB830500276B694BB106EBE3
:10381000C60602EB8602D269B3FBF2F602FB163251
:10382000A2B1C1F81472D0F8D42200EB8200D0F813
:10383000C40203692BB1D1F80802224601F50471D4
:1038400098470020BDE8F0810320FBE700231A46DB
:1038500021466F6100F0F1FDF3E770B50546D0F841
:10386000D40205EB8000D0F8C04294B1284600F0A5
:10387000C3FCC4F80C02D5F8D412D4F8040205EB4A
:103880008101D1F8C412CA6804F503719047002081
:1038900070BD032070BD000070B5234D044629782B
:1038A00000F0EAFB2878002600F00F0000EB800013
:1038B00004EB800080F823606978204600F0DCFB90
:1038C000687800F00F0000EB800004EB800080F8C7
:1038D0006361A978204600F0CFFBA87800F00F00C4
:1038E00000EB800004EB800080F82360C661D4F810
:1038F000D40204EB8000D0F8C01299B1D0F8C40211
:1039000040688047D4F8D40204EB8000D0F8C002AD
:1039100000F0BAFFD4F8D40204EB8000C0F8C06213
:10392000C4F8BC62002070BD8C00002010B5D0F837
:10393000D41200EB8100D0F8C04284B1D0F8C41298
:1039400059B194F80002FF2807D08B6894F801223F
:1039500021469847FF2084F80002002010BD032074
:1039600010BD00000A21018000487047900000202F
:1039700070B5064682210C4800F001FB0546012186
:10398000094800F0FCFA04468121074800F0F7FAE4
:103990000DB11021A971402104B1A18000B1818035
:1039A00043203080004870BD9C00002070B5064662
:1039B00082210D4800F0E3FA054601210A4800F093
:1039C000DEFA04468121084800F0D9FA0DB1102131
:1039D000A9714FF4007104B1A18000B1818043202E
:1039E0003080014870BD00009C00002070B5064684
:1039F00082210C4800F0C3FA05460121094800F075
:103A0000BEFA04468121074800F0B9FA0DB1102131
:103A1000A971402104B1A18000B181804320308090
:103A2000004870BD9C0000202DE9F04704464FF48B
:103A30000775284600F02AFF06004FF0000865D001
:103A40002946FCF7B7FDD4F8D4023E4D04EB8000C4
:103A50004FF01009C0F8C062C4F8BC62207C4FF47B
:103A6000007A0127E8B3402302222978204600F09B
:103A70002EFC2878402300F00F0000EB800004EBC0
:103A8000800080F8237002226978204600F01FFC35
:103A90006878082300F00F0000EB800004EB800042
:103AA000032280F86371A978204601F00F0101EB31
:103AB000810104EB8101C1F81C90A97800F007FC9A
:103AC000A87800F00F0000EB800004EB800080F885
:103AD0002370C6F80482D4F8D402474604EB800071
:103AE00000E01BE0D0F8C40206F5017600688047CC
:103AF0003761776132687AB1207C00B340236978FE
:103B0000204600F0F0FB0020BDE8F087D4F8D41286
:103B100004EB8101C1F8C0820220F5E7534602227E
:103B20002978204600F0D3FB2878534600F00F0098
:103B300000EB800004EB800080F82370A3E753467D
:103B4000DDE700008C00002010B5D0F8D41200EBA7
:103B50008101D1F8C01259B1027C084C002AD1F879
:103B6000042207D04023617800F0BDFB002010BD87
:103B7000032010BD4FF40073F5E700008C00002017
:103B800039B1D0F8D42200EB8200C0F8C412002072
:103B9000704703207047D0F8D42200EB8200D0F8A1
:103BA000C00218B1C0F8041200207047032070470B
:103BB000D0F8D43200EB8300D0F8C00228B1C0F8AE
:103BC0001022C0F8081200207047032070472DE92A
:103BD000FC410646D0F8D4020C4606EB80000021DA
:103BE000D0F8C0728DF80010ADF804100D4637B152
:103BF000217811F060022FD0202A4BD102E003205F
:103C0000BDE8FC81E288F2B109060DD5D0F8C40206
:103C100063783946D0F808C01846E047E288072A9A
:103C200000D9072239462DE0607887F80002E08845
:103C3000402800D34020C2B287F8012239463046DE
:103C400000F081F82BE0D0F8C40263780022866887
:103C500021461846B04722E0607830B101281ED0D6
:103C60000A2809D00B2815D110E096F89C020328E9
:103C700010D1022201A905E096F89C02032809D17F
:103C800001226946304600F07AF808E096F89C0276
:103C9000032804D02146304600F04AF80325284680
:103CA000AEE7000010B5D0F8D41200EB8101D1F8D6
:103CB000C02201211AB1D2F8143213B116E0032048
:103CC00010BD0121C2F814120949D2F81032097846
:103CD00001F00F0404EB840400EB84046361D2F868
:103CE0001032D2F8082200F0A8FB0021084610BDCF
:103CF0008C00002010B5D0F8B822002452689047FC
:103D000000B10324204610BD0020704700207047FA
:103D1000134610B50A46002100F0E5FA002010BD58
:103D2000134610B50A46002100F087FB002010BDA5
:103D300010B50446802100F061FB2046BDE810402C
:103D4000002100F05BBB10B50323C0F89432C0F82B
:103D50005421C0F858211346C0F864110A460021C6
:103D600000F0C1FA002010BD10B50521C0F8941272
:103D700000231A46194600F0B6FA002010BD10B50F
:103D80000223C0F8943242618261134641620A46BE
:103D9000002100F052FB002010BD10B50421C0F836
:103DA000941200231A46194600F047FB002010BD6C
:103DB00010B50A46024903A000F00FF9004810BDF3
:103DC0006804002043444320436F6E666967000027
:103DD00012200880004870473400002010B50A46C1
:103DE000024903A000F0F9F8004810BD6804002063
:103DF00043444320496E7465726661636500000048
:103E000004200880004870473000002010B50A46A2
:103E1000024903A000F0E1F8004810BD680400204A
:103E200053544D6963726F656C656374726F6E692C
:103E30006373000010B50A46024903A000F0CDF8F4
:103E4000004810BD6804002053544D333220566999
:103E5000727475616C20436F6D506F727400000056
:103E600010B51A2008800A480168001D0468001D6A
:103E70000068081809D008220649FFF7D9F9054952
:103E8000042210312046FFF7D3F90248801E10BDEE
:103E9000107AFF1F4A000020F8B504460020ADF854
:103EA000000048880D46010A08295FD2DFE801F0CA
:103EB0005E0409175E5E3C45D4F8B412207C0A68A3
:103EC00019E0207C02260028D4F8B80205D0C16A87
:103ED000684688470146467039E0816AF8E7C0B213
:103EE000062843D2DFE800F0030A1014181CD4F8A7
:103EF000B402426805E0694690471CE0D4F8B40279
:103F0000826892B3207CF6E7D4F8B402C268F8E77E
:103F1000D4F8B4020269F4E7D4F8B4024269F0E7D5
:103F2000D4F8B4028269ECE7207CF0B9D4F8B80286
:103F3000416B68468847014609E0207CA8B9D4F85F
:103F4000B802016B68468847014607204870EA8836
:103F50008AB1BDF8000040B1824200D90246ADF8F6
:103F600000202046FFF70BFFF8BDFFE7294620465B
:103F7000FFF7DEFEF8E72046FFF70FFFF4E778B51E
:103F80000E4642880178002504468A4212D9ADF8CF
:103F900000100AE0694600F019F84178052904D1BB
:103FA00081780546B14205D000256188BDF8002022
:103FB0009142EFD8284678BD0146002002E0401C1F
:103FC000C0B2491C0A78002AF9D170470A880378E0
:103FD0001A440A8001780844704770B516460D46A9
:103FE000002820D00446FFF7E7FF022101EB400143
:103FF0004FF40070814204D82046FFF7DDFF4000F7
:10400000801C3080307828700320687002200022E5
:1040100006E02954401CC0B22A54401CC0B2641CA3
:1040200021780029F5D170BD01004FF0000004D0C7
:10403000012901D0022901D00320704701207047D7
:1040400078B10023C0F8B832C0F8C432C0F8D0321A
:1040500009B1C0F8B412012180F89C12027000F07E
:10406000CFB80320704710B5D0F8C802FDF76CFF39
:10407000BDE81040FFF7D8BF10B5D0F8C802FDF773
:104080003EFFBDE81040FFF7CFBF70B504460025E6
:1040900021B194F89C02032846D050E0D4F8941241
:1040A00004F11400022939D1818942688A420AD96F
:1040B000511A4160828901691144016142682046B8
:1040C000FFF72EFE0FE0914214D10068884211D311
:1040D000D4F8981288420DD2002211462046FFF7EC
:1040E0001FFEC4F8985200231A461946204600F0D5
:1040F000FAF813E094F89C02032808D1D4F8B80227
:10410000C16821B1C4F8D452C168204688478021D3
:10411000204600F073F92046FFF726FE94F8A0022F
:1041200068B184F8A0520AE0D4F8B802426932B10A
:10413000C4F8D452426920469047002800D100209C
:1041400070BD10B50446002221B194F89C020328EA
:1041500034D03EE0D4F8941204F5AA70032938D183
:10416000818943688B420ED9591A4160828901695D
:104170001144016142688089824200D8024620468B
:10418000FFF7C6FD25E094F8AA0210F01F0003D047
:10419000012802D0022800D0002294F89C020328B3
:1041A00008D1D4F8B802016921B1C4F8D422016958
:1041B000204688472046FFF7F0FD0AE0D4F8B80211
:1041C000836933B1C4F8D42282692046904700281D
:1041D00000D1002010BD0020704710B5002401213F
:1041E00080F89C12D0F8B82222B152680179904729
:1041F00000B10324204610BDD0F8C802FDF7D1BE9F
:1042000010B5017839BB15490222C1F8E004C0F8A5
:10421000C8124FF0A040086004200871CA71002045
:1042200088714A728872C87208738873C8730846A6
:10423000FEF716FA08B1FDF77CFA80210748FDF772
:104240000EFE402200210548FDF70DFE80220121CF
:104250000248FDF708FE002010BD0000881800206D
:104260000A0601F07F01D0F8C80201EBC10100EBA2
:10427000810001D5807D704790F85602704710B5D7
:10428000D0F8D42200EB8202D2F8B82222B190F802
:104290009C32032B02D004E0032010BD126A02B14D
:1042A0009047002010BD10B5D0F8D42200EB820258
:1042B000D2F8B82222B190F89C32032B02D004E04D
:1042C000032010BD526A02B19047002010BD10B506
:1042D0001C461346D0F8C8022246FDF76BFEBDE827
:1042E0001040FFF7A1BE10B5D0F8C802FDF793FE4D
:1042F000BDE81040FFF798BE2DE9F04100260125EA
:10430000044680F89C52C4F894626660C4F8A462C3
:1043100080F8A062D0F8B80230B1426822B1002122
:104320002046904700B10326002240231146204634
:10433000FFF7CDFF402784F86351A4F860713B4636
:10434000002280212046FFF7C2FF84F823502784F3
:104350003046BDE8F08190F89C12042903D190F812
:104360009D1280F89C120020704710B590F89C12A6
:10437000032905D1D0F8B81211B1C96901B1884734
:10438000002010BD01740020704710B5D0F8C8029D
:10439000FEF729FABDE81040FFF746BE70B50446A7
:1043A00000F2AA20054600F051F80120C4F894025A
:1043B000B4F8B002C4F8980294F8AA0210F01F01F1
:1043C0000AD001290ED0022912D000F08001204627
:1043D000BDE8704000F012B829462046BDE87040A4
:1043E00000F0D0B829462046BDE8704000F013BA6E
:1043F00029462046BDE8704000F05AB910B5D0F803
:10440000C802FDF724FEBDE81040FFF70DBE10B551
:10441000D0F8C802FEF701FABDE81040FFF704BE6D
:1044200090F89C12042903D090F89C1280F89D12F9
:10443000042180F89C120020704710B5D0F8C80203
:10444000FDF73EFEBDE81040FFF7EEBD70B5054636
:1044500011F8010B2870087868704C1C2046FFF793
:1044600065F96880A41C2046FFF760F9A880A01CAD
:10447000FFF75CF9E88070BD38B504460020ADF860
:104480000000A1B1C4F8B812D4F8D40204EB800043
:10449000D0F8B802C16A19B168468847C4F8D0029A
:1044A000D4F8D802401CC4F8D802002038BD03203C
:1044B00038BD02460020D2F8B832002B02D01B686B
:1044C00010461847704700002DE9F04188462B4EF2
:1044D0008978002504463170012906D941462046D5
:1044E000FFF726FC0320BDE8F08194F89C02022728
:1044F00002280CD003281DD041462046FFF718FCA7
:1045000031782046FFF7F6FB03252846EBE789B311
:1045100020466160FFF7CDFF050004D041462046EC
:10452000FFF706FC1DE02046FFF737FC032084F868
:104530009C02EAE7C1B1606888421BD0C1B2204644
:10454000FFF7D8FB317820466160FFF7B2FF050026
:1045500010D041462046FFF7EBFB21792046FFF7BC
:10456000C9FB84F89C72D0E784F89C722046616095
:10457000FFF7C0FB2046FFF710FCC6E788000020CD
:10458000FFF745BF2DE9F0410A78002512F06002DF
:104590000CD0202A01D0402A7DD1D0F8D42200EBC3
:1045A0008202D2F8B8229268904731E04B7800221C
:1045B00001260A2B6FD2DFE803F041666E586E08C1
:1045C000056E2D29FFF768FC67E004468888D8B996
:1045D000C888C8B94888802816D200F07F0794F8A8
:1045E0009C02032810D084F89E7239462046FFF7BB
:1045F000CCFE2046FFF7D1FB1FB1022084F89C02BD
:104600004BE084F89C6248E0204644E0FFF75CFF02
:10461000054642E0CB88012B3DD190F89C32012B1E
:1046200004D0022B02D0032B35D104E0826001229A
:1046300000F1080116E00122011D13E090F89C2210
:10464000012A03D0022A01D0032A24D1CA88022ACF
:1046500021D1C660D0F8A41209B10321C1600222A1
:1046600000F10C01FFF78BFB17E04A88012A02D00A
:10467000022A03D00FE0C0F8A46216E08988090A74
:1046800080F8A01211E090F89C32012B08D0022B88
:1046900006D0032B04D0FFF74BFB2846BDE8F08182
:1046A00049880129F9D1C0F8A422FFF776FBF4E785
:1046B0002DE9F041054608780C790E464FF00008C8
:1046C00010F060000BD0202801D040286BD121468B
:1046D0002846FFF719FBFF2800D0D8B398E0707880
:1046E000C8B3012824D003285DD195F89C02022884
:1046F00002D0032857D10CE0002C54D0802C52D08B
:1047000021462846FFF77AFE80212846FFF776FEED
:104710007EE0708840B93CB1802C05D0C88818B9BB
:1047200021462846FFF76AFE2846FFF736FB6FE072
:1047300095F89C020228DFD0032866D1708888BBD8
:10474000600603D021462846FFF78DFC2846FFF778
:1047500024FBBCE700E00AE0C5F8D402D5F8B802B3
:104760008268FAB1314628469047804650E095F875
:104770009C020027022802D0032846D114E00CB185
:10478000802C42D1200604F07F0000EB800005EB76
:10479000800101D5143101E001F5AA71022201F86E
:1047A0000E7F2EE034E030E0200604F00F0000EB36
:1047B000800005EB80000AD590F8230028B304F0B0
:1047C0007F0000EB800005EB800614360AE090F8CD
:1047D0006301D0B104F07F0000EB800005EB8006A0
:1047E00006F5AA764CB1802C07D021462846FFF763
:1047F00037FD10B10120B07300E0B773022206F15B
:104800000E012846FFF7BBFA02E02846FFF790FAB0
:104810004046BDE8F08170B50546087800240E4694
:1048200010F0600003D0202801D0402827D195F84F
:104830009C02012803D0022801D003281FD1B08890
:10484000C1B201291AD8C1B22846FFF75FFAFF2882
:104850000CD058B9D5F8B8128A683AB1C5F8D40264
:104860008A68314628469047044600E00324F088D1
:10487000204307D12846FFF790FA03E03146284647
:10488000FFF756FA204670BD704700000048704799
:104890006816002070B50A78012302F00F054E78E3
:1048A000AB401B4CD0F81C58012E17D045EA0343EF
:1048B000C0F81C3800EB4210D0F8002B12040BD4C7
:1048C000D0F8002B0B890979C3F30A031A4344EA91
:1048D00081410A43C0F8002B002070BD9BB21D43EC
:1048E000C0F81C5800EB4210D0F800391B04F3D478
:1048F000D0F800390D890979C5F30A0589042B43DD
:1049000041EA82510B432343C0F80039E4E7000039
:1049100000800010D0F800196FF30A01C0F80019E8
:10492000D0F8041841F48071C0F8041800207047D2
:1049300070B50D460446C2F3072104981E460129AE
:104940001BD0E06840F04000E060204600F032F804
:10495000C6F307210029A16B26D021F48031A16381
:10496000C5F30741012907D1A16841F00601A16003
:10497000A16841F02001A16070BDA16B21F48031DC
:10498000A163E1680A4A1140E160E16821F4401145
:10499000E160C0B2012803D1E06840F48010E0601B
:1049A000204600F007F8DBE741F48031D7E700004C
:1049B000BFFFBDFF08B5002100914FF07061009A64
:1049C000521C00928A4210D80269002AF7DA0A22A1
:1049D0000092521E0092FCD1026942F00102026173
:1049E000009A521C00928A4201D9032008BD026934
:1049F000D207F5D1002008BD30B54C780A780123E4
:104A000000EB4212012C2CD0D2F8004B002C0BDA18
:104A1000D2F8004B44F00064C2F8004BD2F8004BCF
:104A200044F08044C2F8004BD0F83C580C7804F0B5
:104A30000F0403FA04F425EA0444C0F83C48D0F813
:104A40001C48097801F00F018B4024EA0341C0F8AB
:104A50001C18D2F8000B19490840C2F8000B0020BE
:104A600030BDD2F80049002C0BDAD2F8004944F0EE
:104A70000064C2F80049D2F8004944F08044C2F80A
:104A80000049D0F83C480D7805F00F0503FA05F50C
:104A9000ADB2AC43C0F83C48D0F81C48097801F0EE
:104AA0000F018B4099B28C43C0F81C48D2F8000922
:104AB00003490840C2F80009D1E700000078F3EF8D
:104AC000007833ECD0F8001E21F00301C0F8001E7E
:104AD000D0F8041821F00201C0F804180020704733
:104AE000D0F8001E21F00301C0F8001ED0F8041811
:104AF00041F00201C0F80418002070472DE9F04F82
:104B000000250E46044617462846294604EB800237
:104B1000C2F80411401C0F28F8D3C3F307405FEA22
:104B20000009204616D0806B20F40012A263A06B0F
:104B300040F40022A263084688462146C4F8000ECD
:104B4000C7F30720012817D00846D1F8001841F014
:104B5000030118E0D0F8040840F00202C4F8042869
:104B6000A06B40F40012A263A06B20F40022A263A9
:104B7000A06B20F48022DDE7300E0846D1F8001843
:104B800001D041F00101C0F80018102100F08BFAAB
:104B900000B10125204600F06AFA00B10125404627
:104BA000C4F81088C4F81488C4F81C8800214FF099
:104BB000006B4FF0904E4FF67F3AF2B215E000BF17
:104BC00004EB4113D3F800C9BCF1000F06DA11B1B0
:104BD000C3F800E904E0C4F800B901E0C3F8000933
:104BE000C3F81009C3F808A9491C8A42E8D8002173
:104BF00015E000BF04EB4113D3F800CBBCF1000F6C
:104C000006DA11B1C3F800EB04E0C4F800BB01E020
:104C1000C3F8000BC3F8100BC3F808AB491C8A4259
:104C2000E8D8D4F8101821F48072C4F81028A061D4
:104C30006FF080406061C6F3074018B9A06940F08A
:104C40001000A061A0690A490843A061C7F30740AA
:104C500018B1A06940F00800A061B9F1010F03D1BB
:104C6000A06904490843A0612846BDE8F08F000010
:104C700000383C8004000040816821F0010181601F
:104C80000020704710B5036C134CA34203D9D0F831
:104C9000003B002B1EDB0023C0F8103BD0F8103B7C
:104CA00043F40023C0F8103BD0F8103B43F0180346
:104CB000C0F8103BD0F8103B43F0C043C0F8103BA5
:104CC000012907D1C0F8142BD0F8001B41F0802136
:104CD000C0F8001B002010BD0A30544F4A780B78F2
:104CE000012A00EB43100BD0D0F8002B22F4001265
:104CF000C0F8002B0979032914D0022912D017E03B
:104D0000D0F8002922F40012C0F8002909790329FB
:104D100001D002290CD1D0F8001941F08051C0F81F
:104D2000001905E0D0F8001B41F08051C0F8001BCD
:104D3000002070470A784B78D1B200EB4110012B6C
:104D400012D0D0F8001B002906DB2AB1D0F8001BD6
:104D500021F08041C0F8001BD0F8001B41F4001185
:104D6000C0F8001B00207047D0F80019002906DBAE
:104D70002AB1D0F8001921F08041C0F80019D0F80C
:104D8000001941F40011C0F80019EBE7F8B50C78F0
:104D90004F788B4DE3B26FF0604600EB4313012F69
:104DA00029D0D3F8107B6FF31207C3F8107BD3F828
:104DB000107B2F40C3F8107B002C7DD00D69002D97
:104DC0007BD08C6825446D1EB5FBF4F5ADB26C4309
:104DD0000C62D3F8104B06EAC5452C43C3F8104BC0
:104DE000D3F8104B0D6AC5F312052C43C3F8104BD2
:104DF000012A70D0CBE00F69EFB1D3F810796FF3CF
:104E00001207C3F81079D3F810792F40C3F810793E
:104E10000CB30F698D682F447F1EB7FBF5F5D3F8EF
:104E20001079ADB206EAC5463743C3F810790E795A
:104E3000012E1CD02AE0D3F810692E40C3F8106967
:104E4000D3F8105945F40025C3F81059D3F8105978
:104E50006FF3120520E00E698D68AE4200D90D6136
:104E6000D0F8105945F40026C0F810690EE0D3F8C8
:104E7000106926F0C046C3F81069D3F810694FF0E6
:104E8000C04707EA45752E43C3F81069D3F8105997
:104E90000E69C6F312063543C3F81059012A1BD018
:104EA00000EB4413D3F8004944F00444C3F800492C
:104EB0000C79012C31D001E044E057E00A695AB383
:104EC000D0F83428097801F00F03012199400A43F2
:104ED000C0F8342871E056E0CA691AB100EB4413F7
:104EE000C3F81429097901290ED1D0F80818C90589
:104EF00000EB4411D1F8002902D442F0005201E045
:104F000042F08052C1F8002900EB4410D0F800199B
:104F100041F00441C0F800194FE0D0F80848E4051A
:104F2000D3F8004902D444F0005401E044F0805426
:104F3000C3F8004900920A8A93B20A78C96800F05F
:104F4000DFF93AE00C690CB18C680C618C680C627A
:104F5000D0F8105BC4F312042543C0F8105BD0F8FE
:104F6000104B44F40024C0F8104B41E7D3F8104B29
:104F70008D68C5F312052C43C3F8104BD3F8104BC2
:104F800044F4002432E7CA680AB1C3F8142B097943
:104F900001290CD1D0F80808C005D3F8000B02D4C1
:104FA00040F0005001E040F08050C3F8000BD3F80F
:104FB000000B40F00440C3F8000B0020F8BD0000D7
:104FC000FFFF07E038B50022009213464D780A78BB
:104FD00042F2107400EB4212012D19D0D2F8005B9E
:104FE000002D3CDAD2F8005B45F00065C2F8005BAA
:104FF0000A7800EB4212D2F8005B45F08045C2F817
:10500000005B009A521C0092A24221D9012326E0A3
:10501000D2F80059002D22DAD2F8005945F0006587
:10502000C2F800590A7800EB4212D2F8005945F054
:105030008045C2F80059009A521C0092A242E5D85D
:105040000A7800EB4212D2F80029002AF3DB06E0CE
:105050000A7800EB4212D2F8002B002AD1DB184666
:1050600038BD816841F0010181600020704708B5BA
:1050700000214FF070620091009B5B1C00939342F3
:105080000AD80369002BF7DA009110210161009919
:10509000491C0091914201D9032008BD0169C9064C
:1050A000F5D4002008BD18B500224FF070630092BF
:1050B000009C641C00949C420CD80469002CF7DA14
:1050C0000092202242EA811101610099491C00915D
:1050D000994201D9032018BD01698906F5D4002041
:1050E00018BDD0F8080810F0060004D0022803D03C
:1050F000062801D00F20704702207047406900F059
:1051000001007047D0F81818D0F81C08084080B289
:105110007047D0F81818D0F81C080840000C7047E9
:1051200010B5D0F81038D0F8342801F00F0400EB97
:105130004110E24002F00102D0F8080943EAC2122D
:10514000104010BD00EB4111D1F8081BD0F8140835
:1051500008407047416980690840704730B5034690
:105160000846940802F00301002203F5805303E08F
:105170001D6840F8045B521CA242F9D300290BD0F1
:105180001C680022D50024FA05F3491E521C0904AC
:1051900000F8013B090CF5D130BD70B50446C0687C
:1051A000002520F0C040E060012901D079B120E065
:1051B000E06840F00050E0600A20FCF7A7FC60695E
:1051C0000A3510F0010F10D1C82DF5D30DE0E068BD
:1051D00040F08040E0600A20FCF798FC60690A35E6
:1051E00010F0010F01D0C82DF5D3C82D01D000203B
:1051F00070BD012070BDD0F8002822F4FE62C0F816
:105200000028D0F800284FF4FE6303EA01110A4396
:10521000C0F8002800207047022A3ED1264A274BBA
:105220000A449A4201D20F2138E0254A254B0A440C
:105230009A4201D20E2131E0234A244B0A449A4279
:1052400001D20D212AE0224A224B0A449A4201D27D
:105250000C2123E0204A214B0A449A4201D20B211F
:105260001CE01F4A1F4B0A449A4201D20A2115E052
:105270001D4A1E4B0A449A420FD31D4A1D4B0A4435
:105280009A4201D2082109E01B4A11441B4A91426B
:1052900001D2072102E0062100E00921C26822F4C0
:1052A0007052C260C2684FF4705303EA81210A430E
:1052B000C260002070470000405327FF00350C00FB
:1052C000401E1BFF40420F0000DC0BFF804F12000E
:1052D000808CF9FE20D6130060B6E5FE60E3160070
:1052E00000D3CEFE40771B00C05BB3FEC09121000F
:1052F00000CA91FE20753800E05459FEE09C410040
:1053000010B5029C74B9DB1C9C0800EB0230002332
:1053100000F5805004E000BF51F8042B02605B1CD4
:10532000A342F9D3002010BDFEE703B40198410069
:10533000009850EAC12018BF04204A0D18BF40F061
:10534000010040F2FF72B2EB515F08BF40F0020073
:10535000012808BF052002B070470907090E002880
:1053600004DB00F1E02080F80014704700F00F002B
:1053700000F1E02080F8141D704730380A2801D26F
:10538000012070470020704794B0FCF7D5FCFEF771
:10539000D5F9FDF7D1FFFDF783FFFEF703F8FEF720
:1053A0008DF83C4D12AC0DA900223B48FDF7CCFD19
:1053B000002221463848FDF7A5FD9DF84A009DF8DA
:1053C00035209DF834108DE807009DF849309DF890
:1053D0004B2032A103A8FAF7D7FF81B203A8FCF74C
:1053E00091F964210520FDF73FFF384E002440F677
:1053F000FF773748FCF706FB08B172B6FEE7642179
:105400003348FCF7A9FA08B172B6FEE73048FCF75A
:1054100045FA26F8140036F8140040F6E4414843F3
:10542000B0FBF7F045F82400641C032CE1D32848B6
:10543000FCF74EFB2C6825480C3804606968DFEDEA
:10544000250A00EE101AB0EE041AB8EE400A70EE0B
:10545000600A80EE810AF3EE090A30EE200A80ED40
:10546000020AAE68466010EE100A00F067F8CDE957
:1054700000013346224618A103A8FAF785FF81B23E
:1054800003A8FCF73FF94FF4FA610520FDF7ECFEA5
:1054900088E70000180100206C0100200D0A576504
:1054A0004163742053747564696F0D0A323025307E
:1054B00032642F253032642F25303264202530327B
:1054C000643A253032640D0A000000000C00002010
:1054D0002401002000003E44205041303A20253471
:1054E000646D560D0A567265663A202534646D5611
:1054F0000D0A74656D703A20252E31662027430D04
:105500000A00000010B500290AD00878002807D04A
:1055100005487844FBF72CFC002801D0002010BD82
:105520000248784410BD0000F2010000EA010000CA
:105530000808A0F500114FEA3101704743004FEA17
:10554000D30C4FEA3C0C43401FBF40070CF16051A5
:1055500013F0FE4F70471CF0006F03D100200CF0D9
:10556000004170470CF0004343EA507010B540EA28
:10557000CC0000F00EF800BF000000924FEA0001DE
:10558000FFF7D6BF4FF000414FF00000A1F500211A
:1055900070470EF1020E2EF0030E5EF8044B24420B
:1055A00004D44FEA4102B2F17F4F11D84FEA4003D1
:1055B000B3F17F4F0CD80ED14FEAD07CB2F17F4FC0
:1055C0000CEB4C0C0CF1020C08BF4CEBD17C04E052
:1055D0004FF0080C01E04FEAD17C0CEB4C0324FAAD
:1055E00003F404F00704B4F1040C06D20EEB840CAF
:1055F000BDE810404CF0010C6047DFE80CF00708F4
:1056000002024FF00040A0F5800010BD08464200A5
:1056100018BFD2F1807288BF00F0004010BD4FF07B
:105620004070E1EE100A7047FBF720B9000000005F
:105630000000000001020304060708090400000836
:105640000000000000000002000100001000000047
:1056500002400000000000A0000000000540000023
:10566000000000C8000000000C4000000000409C4A
:1056700000000000194000000020BCBE0000000037
:1056800034400000BFC91B8E00000004B54000007C
:10569000504BCFD06607E2CF010000006C41000004
:1056A0003E8251AADFEEA73401000000D94200007B
:1056B000DCB5A0E23A301F97FFFFFFFFB4450000C2
:1056C000FD25A0C8E9A3C14FFFFFFFFFFF3F00007A
:1056D0000000008000000000FF3F0000000000808C
:1056E0000000000020570008000000201801000002
:1056F000D40100083858000818010020B82800001C
:10570000F00100081C00000043000000F8FFFFFF4C
:105710000C0000000E0000000F0000002E00000032
:105720000000000000000000000000000000000079
:1057300000000000D13D0008013E00080D3E0008B9
:10574000353E0008613E0008B13D0008DD3D00081F
:1057500004030904120100020202004083044057BE
:1057600000020102030100001A0300000000000013
:105770000000000000000000000000000000000029
:1057800000000000C5160008BF160008BB16000880
:10579000E9160008011700080100000010000000D1
:1057A000000000000024F4000000000081018200DD
:1057B0000A06000200000040010000000902430048
:1057C000020100C0320904000001020201000524A8
:1057D0000010010524010001042402020524060032
:1057E000010705820308001009040100020A0000F5
:1057F000000705010240000007058102400000008B
:10580000293A000899380008CF3B00080000000042
:105810002D390008E53700085B380008000000005B
:105820000000000000000000AD39000871390008D8
:08583000ED390008653900089C
:040000050800019955
:00000001FF
