:020000040800F2
:10000000E806002039020008931300088312000854
:10001000911300084B040008C515000800000000FB
:100020000000000000000000000000001D15000896
:100030004D04000800000000951300081F1500087B
:10004000530200085302000853020008530200083C
:10005000530200085302000853020008530200082C
:10006000530200085302000853020008530200081C
:10007000530200085302000853020008530200080C
:100080005302000853020008530200080000000059
:100090000000000000000000000000005302000803
:1000A00053020008530200085302000853020008DC
:1000B00053020008530200085302000853020008CC
:1000C00053020008530200085302000853020008BC
:1000D0005302000853020008530200080000000009
:1000E00053020008530200085302000800000000F9
:1000F00000000000000000000000000053020008A3
:1001000000000000530200085302000853020008D8
:1001100000000000000000000000000000000000DF
:10012000530200085302000853020008530200085B
:100130005302000800000000000000000000000062
:100140000000000000000000000000005302000852
:10015000530200085302000853020008530200082B
:1001600053020008530200080000000000000000D5
:10017000000000000000000000000000000000007F
:100180000000000053020008000000000000000012
:10019000530200085302000800F002F800F03CF897
:1001A0000AA090E8000C82448344AAF10107DA45D2
:1001B00001D100F031F8AFF2090EBAE80F0013F0E8
:1001C000010F18BFFB1A43F001031847E01E00009F
:1001D000001F0000103A24BF78C878C1FAD852072F
:1001E00024BF30C830C144BF04680C6070470000B1
:1001F0000023002400250026103A28BF78C1FBD830
:10020000520728BF30C148BF0B6070471FB501F0CF
:100210009FFE1FBD10B510BD00F0E2F81146FFF7BC
:10022000F5FF01F05DFE00F000F903B4FFF7F2FF07
:1002300003BC00F003F90000094880470948004763
:10024000FEE7FEE7FEE7FEE7FEE7FEE7FEE7FEE786
:10025000FEE7FEE704480549054A064B70470000E3
:10026000B515000899010008E8000020E806002004
:10027000E8020020E802002053EA020C00F0698046
:100280002DE9F04B4FF00006002B1FBFB3FA83F5AA
:1002900003FA05F424FA05F65E4012BF1643B2FADB
:1002A00082F502FA05F4C5F120051EBF22FA05FC0D
:1002B00044EA0C04203556EA044C4FEA144418BFB3
:1002C000641C4FF000084FF00009904271EB030CE2
:1002D00039D3002919BFB1FA81F701FA07F6B0FA4C
:1002E00080F700FA07F6C7F120071EBF20FA07FCC7
:1002F00046EA0C062037B6FBF4FCA7EB0507103FD7
:1003000007F01F0BCBF120060CFA0BFB2CFA06F6BC
:1003100044BFB3460026202FA4BF5E464FF0000B1B
:100320005BEA060C08BF4FF0010B19EB0B09ABFBA6
:10033000027C48EB0608C01B06FB02CC0BFB03CC7F
:1003400071EB0C01C1E70B46024641464846BDE849
:10035000F08B13B54FF000004FF00001AFF30080B9
:10036000BDE81C4070474FF0000200B513469446AC
:100370009646203922BFA0E80C50A0E80C50B1F1FD
:100380002001BFF4F7AF090728BFA0E80C5048BF11
:100390000CC05DF804EB890028BF40F8042B08BFAF
:1003A000704748BF20F8022B11F0804F18BF00F8AB
:1003B000012B704770477047704710B500F008F880
:1003C000006810BD10B5044600F002F8046010BDCE
:1003D00000487047840000200048704784000020D7
:1003E0007546FFF7F9FFAE4605006946534620F013
:1003F0000700854618B020B5FFF72CFFBDE8204068
:100400004FF000064FF000074FF000084FF0000BD0
:1004100021F00701AC46ACE8C009ACE8C009ACE883
:10042000C009ACE8C0098D46704710B50446AFF36B
:1004300000802046BDE81040FFF7F7BE01491820B4
:10044000ABBEFEE7260002007047FEE7704772B6BB
:10045000FEE7000070B5044600F004F90546601C94
:1004600002D004480078044400F0FCF8401BA0428D
:10047000FAD370BD000000202DE9F84FDFF8B8A1D5
:100480000022012403254FF00F090AF1040BAAF101
:10049000040E00BF0B6804FA02F63340B34273D176
:1004A0000F7907F00307012F01D0022F16D18768BB
:1004B0004FEA420805FA08FC27EA0C07D1F80CC0FD
:1004C0000CFA08FC4CEA070CC0F808C04768B743B0
:1004D0000E79C6F3001696403E4346600E79F64309
:1004E000B6070DD0C768560005FA06FC27EA0C07C8
:1004F000D1F808C00CFA06FC4CEA070CC0F80CC096
:100500000E7906F00306022E10D1D60800EB8608FD
:10051000D8F8206057074FEAD76C09FA0CF7BE43AA
:100520000F6907FA0CF73743C8F8207006684FEADE
:10053000420C05FA0CF7BE430F7907F0030707FAE0
:100540000CF7374307604E6816F4403F6DD03B4EC2
:10055000376847F480473760366822F0030706F4AF
:1005600080460096364E07EB060CDCF808689707C5
:100570003F0F09FA07F826EA0806DFF8C880404569
:1005800003D14FF000081EE04FE0DFF8BC8040458B
:1005900002D14FF0010816E0DFF8B080404502D1EB
:1005A0004FF002080FE0DFF8A880404502D14FF07D
:1005B000030808E0DFF89C80404502D14FF00408B2
:1005C00001E04FF0070808FA07F848EA0608CCF8F7
:1005D0000888DAF800605746D1F804C09E435FEA05
:1005E000CC2C00D51E433E60DBF800605F46D1F89E
:1005F00004C09E435FEA8C2C00D51E433E60DEF8AB
:1006000000607746D1F804C09E435FEA8C3C00D579
:100610001E433E60084F083F3E68D1F804C09E4329
:100620005FEACC3C00D51E433E60521C102AFFF40A
:1006300031AFBDE8F88F0000083C0140443802406B
:100640000030014000000240000402400008024067
:10065000000C0240001002400AB181617047090499
:10066000FBE70000014880687047000000000020A0
:1006700002488168027811448160704700000020C0
:100680000B4810B5016841F400710160016841F444
:1006900080610160016841F480710160032000F015
:1006A00061F8002000F006F800F024F8002010BDEA
:1006B000003C024070B50D4D04464FF47A71287825
:1006C000B1FBF0F00A490968B1FBF0F000F0C5FD9C
:1006D00048B9102C07D200222146501E00F022F803
:1006E00000206C6070BD012070BD00000000002083
:1006F0000C0000200A4808B5016841F480410160FF
:10070000006800F4804000900548001F016841F037
:1007100080510160006800F08050009008BD00002A
:1007200044380240F0B40E4B1B680C46C3F302235E
:10073000C3F10705042D00D90425191D072901D28D
:10074000002300E0DB1E012606FA05F1491E2140C8
:1007500099409E40761E16403143F0BC01F057B8D8
:100760000CED00E0064900F0070208684FF6FF03B1
:10077000184040EA0220034A104308607047000016
:100780000CED00E00000FA052DE9F0470E460500EB
:1007900065D0DFF81481D8F80000F7B200F0070048
:1007A000B04207D288F80070D8F8000000F00700C7
:1007B000B04254D128683D4C810712D5400703D57B
:1007C000206840F4E05020602878000703D52068B6
:1007D00040F4604020602068A96820F0F0000843E1
:1007E00020602878C0072DD0304968680839012872
:1007F00012D0022813D0032811D0096889070029D4
:100800002DDA216821F0030101432160FFF72AFF5F
:10081000814641F2883A0EE009688903EFE70968EA
:100820008901ECE7FFF71EFFA0EB0901514502D952
:100830000320BDE8F0872068696800F00C00B0EB89
:10084000810FEFD1D8F80010404601F00701B14206
:1008500007D90770006800F00700B04201D00120FE
:10086000E7E72878400705D52068E96820F4E050DC
:10087000084320602878000706D52068296920F4FD
:10088000604040EAC100206000F018F82168084A82
:10089000C1F30311515CC84006490860064800686E
:1008A000FFF708FF0020C4E7003C02400838024080
:1008B0005A1F00080C00002004000020154810B545
:1008C000006810F00C02144813D01449042A0FD009
:1008D000082A0ED10F4C241F2268236802F03F0221
:1008E0005B0207D52068C0F38810A0FB010106E079
:1008F000084610BD2168C1F38811A1FB0001002347
:10090000FFF7BAFC2168C1F30141491C4900B0FB63
:10091000F1F010BD083802400024F40040787D0159
:100920002DE9F84F04006ED02078DFF84C93C00713
:10093000A9F104054AD009F104000168C1F381015D
:10094000012908D00068C0F3810002280AD1D9F833
:100950000000400206D52868800337D5606800286B
:10096000E1D033E06068B0F5803F10D0B0F5A02F43
:10097000286810D020F480302860286820F4802077
:1009800028606068A8B1FFF76DFE06460DE0286894
:1009900040F48030F4E740F480202860F7E700BF9F
:1009A000FFF760FE801B642873D828688003F7D5A2
:1009B0000CE0FFF757FE064605E000BFFFF752FECA
:1009C000801B6428F0D828688003F7D42078DFF8EB
:1009D000AC8280074FF0000A3ED5A748001D016891
:1009E00011F00C0F08D00068C0F3810002280BD171
:1009F000D9F80000400207D42868800716D5E068BF
:100A0000012800D112E033E1E068B8B10120C8F854
:100A10000000FFF727FE064605E000BFFFF722FEB5
:100A2000801B0228C0D828688007F7D5286821696C
:100A300020F0F80040EAC10028600DE0C8F800A0EE
:100A4000FFF710FE064604E0FFF70CFE801B0228AD
:100A50001FD828688007F7D42078000722D5864F52
:100A600087486169703771B101210160FFF7FAFDB4
:100A7000064604E0FFF7F6FD801B022809D8386817
:100A80008007F7D50EE0C0F800A0FFF7EBFD0646A3
:100A900005E082E0FFF7E6FD801B02287DD838687C
:100AA0008007F7D42078400768D5DFF8CCB100275D
:100AB0000BF13C0BDBF80000C0000BD4DBF800109E
:100AC00041F08051CBF80010DBF80000012700F066
:100AD000805000906B4E3068C00510D4306840F4F0
:100AE00080703060FFF7BEFD009005E0FFF7BAFDB3
:100AF0000099401A022850D83068C005F6D55E4EDD
:100B0000A0686C3601280FD00528306810D020F07E
:100B100001003060306820F004003060A068B8B197
:100B2000FFF7A0FD00900FE0306840F00100F4E70F
:100B300040F004003060F7E7FFF794FD0099411A98
:100B400041F28830814266D830688007F4D50EE0E3
:100B5000FFF788FD009007E0FFF784FD0099411A38
:100B600041F28830814256D830688007F4D42FB1E2
:100B7000DBF8001021F08051CBF80010A069C8B359
:100B80003D49091D0968C1F3810102294AD00228A3
:100B9000504607D0C8F8600000E03CE0FFF762FD77
:100BA00004463BE04746C8F86000FFF75BFD064699
:100BB00005E000BFFFF756FD801B02282BD82868F0
:100BC0008001F7D4D4E907010843A16A2E4A4908F5
:100BD00002EB0141626A41EA8211084394F82C1049
:100BE00040EA0161C9F8001001203866FFF73AFDBC
:100BF000044606E03EE000BFFFF734FD001B02287C
:100C000009D828688001F7D534E000BFFFF72AFD36
:100C1000001B022802D90320BDE8F88F2868800154
:100C2000F4D427E00128F7D0D9F80000E26900F4F5
:100C3000800191421CD1226A00F03F01914217D1FC
:100C400047F6C071626A0140B1EB821F10D1A26AFF
:100C50004FF0FF3300F4403103EB5202B1EB024F8F
:100C600006D194F82C1000F07060B0EB016F01D049
:100C70000120D1E70020CFE70438024000004742BE
:100C8000800E4742007000400000FFFF70B5040076
:100C900009D0606A002540B125616561A56294F8BC
:100CA000510040B10CE0012070BD6068B0F5827F5A
:100CB000F4D0E561F2E784F85050204600F044F8A3
:100CC000022084F851002068016821F04001016091
:100CD000A088218900F4827001F404410843A189AD
:100CE00001F400610843217C01F002010843217DE9
:100CF00001F001010843218B01F400710843217FB9
:100D000001F03801084394F8201001F080010843F5
:100D1000218D01F40051084321680860A069042175
:100D200001EA104094F8241001F0100108432168F2
:100D300048602068C16921F40061C16165650120D6
:100D400084F85100002070BD10B586B0044614210F
:100D50006846FFF708FB13492068884220D11248F3
:100D60000021026842F480520260006800F4805062
:100D700005900D481438026842F0010202600068D4
:100D800000F001000590E02000900220CDE9010173
:100D9000032003900520049069460448FFF76CFB8C
:100DA00006B010BD0030014044380240000002404F
:100DB0002DE9F84F044690F851001D4616460F469F
:100DC000012838D1002F77D0002E75D060684FF001
:100DD0000408B0F5827F01D1A06810B3FFF742FC90
:100DE000824694F85000012825D04FF0010984F87C
:100DF000509084F851804FF00008C4F85480A763E5
:100E0000A687E687C4F83080A4F83480A4F836803A
:100E1000C4F84080C4F84480A068B0F5004F0CD0FE
:100E200015E084F85180009313460A46204600F0EE
:100E30001CF9BDE8F88F0220FBE72068016821F06B
:100E4000400101602068016821F480410160206850
:100E50000168490603D4016841F040010160E0687F
:100E6000C0B134E020688168C90709D0007BA16B5C
:100E70000870A06B401CA063E08F401EE08709E073
:100E8000FFF7F0FBA0EB0A00A84202D3681C01D0D8
:100E900032E085B3E08F0028E4D11BE02068816850
:100EA000C9070AD0C068A16B0880A06B801CA06332
:100EB000E08F401EE0870AE01BE0FFF7D3FBA0EBCA
:100EC0000A00A84202D3681C01D015E09DB1E08F52
:100ED0000028E3D152462946204600F05CFA08B1CA
:100EE0002020606584F8519084F85080606D00285F
:100EF0009FD001209DE7FFE784F8519084F850804F
:100F0000032096E72DE9F84F984616468A46044690
:100F1000FFF7A8FB814694F8510001281ED1BAF1D1
:100F2000000F73D0002E71D094F85000012815D016
:100F3000012784F85070032084F85100002565656E
:100F4000C4F830A0A686E686A563A587E587656414
:100F50002564A068B0F5004F03D00CE00220BDE886
:100F6000F88F2068016821F0400101602068016865
:100F700041F48041016020680168490603D401689A
:100F800041F040010160E068B0F5006F606803D097
:100F900048B3012E27D047E008B1012E1FD1206BA6
:100FA00021680088C86006E020688168890709D543
:100FB000216B0988C160206B801C2063E08E401E7D
:100FC000E0860CE0FFF74EFBA0EB0901414503D39F
:100FD000B8F1FF3F03D035E0B8F1000F32D0E08E1A
:100FE0000028E1D123E0206B21680078087306E037
:100FF0002068816889070AD5216B09780173206B05
:10100000401C2063E08E401EE0860DE02BE0FFF7E1
:1010100029FBA0EB0901414503D3B8F1FF3F03D001
:1010200010E0B8F1000F0DD0E08E0028E0D14A4664
:101030004146204600F0DEF908B120206065A06836
:1010400030B109E084F8517084F85050032086E7ED
:101050002068C1688068009084F8517004F8505F7F
:1010600060680028F3D0012079E72DE9FF4F81B0B7
:101070001D46934604464FF001090E9EFFF7F2FA13
:10108000074694F851006168012806D0B1F5827FC7
:101090003CD1A168C9BB042838D10298002871D07E
:1010A000BBF1000FFBD0002DF9D094F850000128BF
:1010B0002CD04FF0010A84F850A094F85100042875
:1010C00002D0052084F851004FF00008C4F8548085
:1010D000C4F838B0E587A58702992163E586A5861F
:1010E000C4F84080C4F8448020680168490603D4ED
:1010F000016841F040010160E068B0F5006F606890
:1011000008D0F0B3012D49D081E0FFE7022005B0FF
:10111000BDE8F08F08B1012D39D1206B216800881E
:10112000C860206B801C2063E08E401EE0862EE0AD
:101130002068816889070FD5E18E69B1B9F1010F87
:101140000AD1216B0988C160206B801C2063E08E6E
:10115000401EE0864FF0000920688168C9070CD066
:10116000E18F51B1C068A16B0880A06B801CA063A7
:10117000E08F401EE0874FF00109FFF773FAC01BB4
:1011800001E00BE067E0B04201D3701C50D1E08E6B
:101190000028CDD1E08F0028CAD13EE0206B216825
:1011A00000780873206B401C2063E08E401EE086B0
:1011B0002DE02068816889070FD5E18E69B1B9F10A
:1011C000010F0AD1216B09780173206B401C206349
:1011D000E08E401EE0864FF0000920688168C90754
:1011E0000CD0E18F51B1C068A16B0870A06B401C9E
:1011F000A063E08F401EE0874FF00109FFF732FA4D
:10120000C01BB04202D3701C01D011E086B1E08E49
:101210000028CED1E08F0028CBD13A463146204677
:1012200000F0E8F850B12020606584F8508012E0AA
:1012300084F851A084F85080032068E7A06818B9AA
:101240002068C1688068009084F851A084F85080BC
:10125000606D0028F1D0012059E710B5401EB0F1B3
:10126000807F01D3012010BD4FF0E02460610F2189
:10127000601700F0CCFA0020A06107202061002058
:1012800010BDFEE72DE9F0410B4F0C4605464FF42B
:101290000056002231463846FFF7DEF9681EFFF798
:1012A000D9F8012231463846FFF7D6F9601EBDE86D
:1012B000F041FFF7CFB8000000080240F0B587B05A
:1012C00014216846FFF74FF81D480024016841F0DB
:1012D00004010160016801F004010591016841F019
:1012E00080010160016801F080010591016841F011
:1012F000010101600068012200F00100114E550358
:10130000059029463046FFF7A7F90F4F002210211C
:101310003846FFF7A1F900950125CDE9015469464A
:1013200030460394FFF7A8F810200090CDE901544F
:10133000694638460394FFF79FF807B0F0BD0000F8
:101340003038024000080240000002400F4810B54B
:101350000D4901604FF48271416000218160C160DC
:101360004FF400720161C0E90512C161016241627E
:1013700081620A21C162FFF789FC002803D0BDE821
:101380001040FFF764B810BD00300140100000208D
:10139000FEE7FEE77047F8B5044640684FF48273F5
:1013A000984221D1A0684FF48065B0F5004F01D07C
:1013B000A8420AD12068066826F0400606606068E8
:1013C000984211D1A068A8420ED000920B4600228C
:1013D0008021204600F044F8002804D0606D40F0E1
:1013E000200060650320F8BD00920B460022012119
:1013F000EFE70000F8B515460E460B46009204468E
:101400000122022100F02CF8A0B91348134900680A
:10141000B0FBF1F04FF47A71484300906068B0F58A
:10142000827F0DD13346002280212046009500F0B6
:1014300017F870B1606D40F0200060650320F8BDC2
:10144000009830B1401E009020688068C0430006BC
:10145000F6D50020F8BD00000C00002000366E011B
:101460002DE9F8431E46914688460446089DFFF73D
:10147000F9F8401B351AFFF7F5F8074626480068CB
:10148000C0F3CB3068430AE0701C09D0FFF7EAF8DC
:10149000C01BA8420FD275B10098B8B3401E00908F
:1014A0002068816838EA010033D000214945EBD13A
:1014B0000020BDE8F8832068416821F0E001416028
:1014C0006068B0F5827F0BD1A068B0F5004F02D004
:1014D000B0F5806F04D12068016821F040010160FF
:1014E000A06AB0F5005F09D12068016821F40051BD
:1014F00001602068016841F400510160012084F816
:101500005100002084F850000320D2E7FFE70025B7
:10151000C6E70121CAE700000C0000207047FFF772
:10152000A7B8000030B593B030216846FEF71BFF26
:1015300014210CA8FEF717FF1C480025016841F094
:1015400080510160006800F08050119018480168D7
:1015500041F4404101600068022400F440401190D1
:1015600001200090000401908001CDE9064019207F
:101570000890A820CDE9090404200B906846FFF7E5
:10158000CFF908B172B6FEE70CA90F2081E831004F
:101590004FF48050CDE90F0502210CA8FFF7F4F8B5
:1015A000002801D072B6FEE713B030BD40380240CB
:1015B000007000400248016841F47001016070470A
:1015C00088ED00E0FEE7000038B5FFF74BF8044671
:1015D000C7208DF8000000F0D5F8114D0022102131
:1015E0002846FFF739F84FF47A73012269460D480F
:1015F000FFF788FC012210212846FFF72DF80A4D3D
:1016000007E000BFFFF72EF8001BA84201D9032016
:1016100038BD00F00BF80228F4D0002038BD0000DF
:10162000000002401000002090D003007CB511A003
:10163000114C00680090002210212046FFF70CF8A2
:101640004FF47A752B46012269460C48FFF75AFC85
:101650002B46012201A90948FFF7AAFB012210210C
:101660002046FEF7F9FF9DF80400C00700D00220D5
:101670007CBD0000050000000000024010000020BA
:1016800038B504464FF48070A0610001606100012C
:10169000E060684600F04AF8BDF80000C0B21338B8
:1016A000052801D3012038BD00EE100AF8EEC00A6B
:1016B000B0EE000A00F0BCF8BCEEC00ABDF80010A5
:1016C00010EE100A0005C4E900106169B0FBF1F1E9
:1016D0002161E168B0FBF1F0A060002038BD00009E
:1016E00038B50EA00E4C0068009000221021204654
:1016F000FEF7B2FF4FF47A73022269460948FFF7FA
:1017000001FC012210212046FEF7A6FF0420FEF76F
:10171000A1FEBDE838400448FFF7B2BF669900005B
:101720000000024010000020680000207CB5044644
:1017300011A0124D00680190002210212846FEF7EA
:101740008BFF4FF47A763346042201A90C48FFF749
:10175000D9FB3346022269460948FFF729FB9DF869
:1017600001009DF80010012200EB012020801021D3
:101770002846FEF771FF7CBD90000000000002408B
:1017800010000020F8B515A000680090FEF76AFF71
:10179000134E0546002210213046FEF75DFF4FF440
:1017A0007A742346012269460E48FFF7ABFB0122FB
:1017B00010213046FEF750FF0AE000BFFEF752FF4F
:1017C000401BA04201D90320F8BD0020FEF742FED5
:1017D000FFF72CFF0228F1D00020F8BD0600000022
:1017E00000000240100000204100080218BF042041
:1017F0000A0E18BF40F001004FF07F4232EA0101AB
:1018000008BF40F00200012808BF05207047090703
:10181000090E002804DB00F1E02080F80014704776
:1018200000F00F0000F1E02080F8141D7047000068
:1018300010B510EE100A2DED068BB7EE001A10EE63
:10184000901AB0EE418A0022A0F5000CDFEDFE9A5E
:101850004FF00073BCF1FE4F4FF07F4403EB410C9F
:1018600080F0B481BCF1804FC0F02082F749014480
:101870009FEDF73AB1F5005F40F2D48200F5802188
:10188000CB0C03F00F0101EE901AC3F307137F3B5B
:10189000A0EBC350B8EEE12A00EE100A1A44DFEDC7
:1018A000ED2AF0EE411A42EE221AF0EE613A70EEA5
:1018B000232A30EE632A12EE900A00F500606FF3DF
:1018C0000B0001EE900A73EEE13A33EE804AC1EE6E
:1018D000223A22EE230A10EE100A00F500606FF3A0
:1018E0000B0000EE100A00EE612A00EE442A62EEC0
:1018F000232A70EE221A21EEA12ADFEDD73A02EE5A
:10190000233A23EE023A20EE012A22EE811A03EE58
:10191000211A32EE010A10EE100A00F500606FF392
:101920000B0000EE100A72EE401A31EE812A9FED94
:10193000CB1A60EE011A9FEDCA1A20EE011A9FED34
:10194000C90A02EE001A31EE810A10EE100A00F503
:1019500000606FF30B0000EE100AC34871EEC01A6E
:1019600031EE812A784400EBC10090ED003AD0EDD1
:10197000011A100101EE100AF8EEC12A32EE211A06
:1019800031EE001A31EE031A31EE221A11EE100A6E
:1019900000F500606FF30B0009EE100A39EE621AD1
:1019A00031EE431A31EE400A30EE610A32EE40AABF
:1019B00010EE900A002100F500606FF30B0008EEB6
:1019C000900A084670EEE8AA4FF0000029EE280AB7
:1019D00000F00C01F0EEC00A10EE900AB0F18B4F4F
:1019E0000DDD10EE900AB4EB400F08D310EE100A94
:1019F0004FF08B4262F31E0008EE900A13E069EE8E
:101A00002A0A38EEAA1A4AEE010A30EE201A11EE1E
:101A1000100A00F500606FF30B0008EE900A30EE3C
:101A2000680A70EE209A0C204FF0000038EEA90AE8
:101A3000B5EEC00AF1EE10FA34BFFEEE000AF6EE83
:101A4000000A30EE800ABDEEC00A10EE100A011145
:101A500000EE101AF8EEC00A00EE100AB8EEC00A46
:101A600038EEC00A30EE290ADFED801A9FED801AA9
:101A700000EE211ADFED7F1A7F4900F00F0040EEE3
:101A8000011A21EE800A794401EB800191ED001AE0
:101A90007A49794401EB8001D1ED001A784901EED1
:101AA000801A794401EB8000764990ED000A31EE0E
:101AB000001AB0EEE00A10EE100A884215DA10EEB5
:101AC000100AB4EB400F10D39FED6F0A30EE800A7E
:101AD000DFED6E0A20EE200A68EE010ABDEC068BEF
:101AE000BCEEC00A20EE200A10BD10EE100A6849B4
:101AF000884243DA10EE100AB4EB400F3ED3BDEE3D
:101B0000E00A68EE010A10EE100A00EBD0725110E4
:101B1000C90501F17E5100EE101AA0EB6200C0056C
:101B200060EE200A00F17E5000EE100A60EE808A1E
:101B300018EE900AB4EB400F0FD10220FEF742FCE2
:101B400000F0BEF910EE101A18EE100ABDEC068B6C
:101B500061F31E0000EE100A10BD18EE900A40005E
:101B600011D018EE900AFFF73FFE042808BF00F0DE
:101B7000AFF9B0EE680ABDEC068B10BDF5EEC00AF9
:101B8000F1EE10FA0FD20220FEF71CFC00F0A0F9D3
:101B900010EE101A18EE100ABDEC068B61F31E0051
:101BA00000EE100A10BD0220FEF70CFC00F088F9D0
:101BB00010EE101AB0EE480A10EE100ABDEC068BBB
:101BC00061F31E0000EE100A10BD00BFBCF1804F93
:101BD0006CD300BF00F1FF43B3F1FE4F24D200BF2E
:101BE000B0EEC00A10EE100AC1F3C7537F2B0DDB15
:101BF000972BBFF63BAEC3F196034FF0010C0CFAE6
:101C000003F3A3F1010C1CEA010F08D00120FEF739
:101C1000D9FBBDEC068BBDE8104000F049B90B4282
:101C200018BFBFEE008A21E643001CBF4FF080734F
:101C3000B3EB400F34D96FF01A02DFED161A20EE25
:101C4000210A10EE100A27E000000000001080C0FA
:101C5000ABAAAA3E0000803D7EE24C3E00B0384276
:101C6000D49AB8BB3BAA384204060000FC5963373B
:101C7000C9FF753A1872313DA2050000D605000073
:101C8000460500000000FC420000FE420000004B40
:101C9000000040430000004D10F0004FA0D1E5E5EA
:101CA000A0F50003B3F1FE4F21D2DFE503EB4103C2
:101CB000B3F1007F11D3F5EEC00AF1EE10FA05D1B1
:101CC000430018BFB4EB400F76D883E701F0004122
:101CD00041F0FC5100EE901A7CE7B3F1807F06D210
:101CE00010EE903AA3F5000300EE903A72E720F070
:101CF00000426FF0FF4C604C02EB0C03A34210D388
:101D000021F000439C44A4450BD3B0F17E5F18BF83
:101D10005FEA410C50D0B2F1FF4F98BFB3F1FF4FD3
:101D200005D9BDEC068BBDE8104000F0BDB8B0F1A0
:101D3000FF4F0FD0C1F3C7527F2A09DB972A11DA70
:101D4000C2F19602012303FA02F2531E0B4205D0A0
:101D5000002208E011F0004F55D128E00A4218BFD8
:101D6000012200D1022210F5000F13D028B3B0F1E8
:101D7000004F26D010F1814F4FD04FF0FE42B2EB12
:101D8000400F94BF01200020012202EBE171884244
:101D900039D10CE011F0004F02D0012A38D032E0E6
:101DA000012A02BF9FED350ABDEC068B10BD9FEDE9
:101DB000340ABDEC068B10BD2FE011F0004F0CD1A2
:101DC00021E0B1F1FF4F1ED011F5000F05D011F049
:101DD000004F15D00AB1012A08D00220FEF7F2FA0E
:101DE000BDEC068BBDE8104000F054B80220FEF7B1
:101DF000E9FA00F04FF8BDEC068BB1EE400A10BDD9
:101E00000AB1012A04D0B0EE690ABDEC068B10BD00
:101E1000BDEC068B9FED1B0A10BDBDEC068BB7EE2B
:101E2000000A10BD30EE410AB5EE001A9FED172AE8
:101E300000EE413AB6EE001A60EE001A00EE431AC8
:101E400061EEC11A9FED101A20EE011A20EE020A6F
:101E50009FED0F2A01EE820A71EE001A11EE900A30
:101E600000F500606FF30B0009EE100A31EE491A1D
:101E700031EE00AA9CE50000FFFF3F00000080FF5C
:101E80000000807F0000008000B0B841D49A38BBC9
:101E90003BAAB841DFED030AB7EE001A81EE200A33
:101EA000704700000000000030EE200A704700007C
:101EB000DFED020A80EEA00A70470000000000007B
:101EC0009FED020A20EE000A70470000000000703B
:101ED0009FED020A20EE000A70470000000000108B
:101EE000FEF7CEFBFFF71EFBFFF7E8F9FFF72EFA30
:101EF000FFF7F6FB144800781338052804D3322185
:101F00000846FFF7BFF9FAE74FF4967450212046D0
:101F1000FFF7B8F950212046FFF7B4F900224FF43B
:101F200000510A48FEF798FBFFF74EFB04464FF4BA
:101F3000FA7524B128462946FFF7A4F9F9E729469E
:101F40003220FFF79FF9FAE76800002000080240FE
:101F50004FF04070E1EE100A7047000000000000F2
:101F60000000010203040607080900000000000049
:101F7000000000000000B33FB2BE7D3A00002E40DA
:101F8000DFCF513800007E40BF51FABA00E0A440D4
:101F900019DAC3BA00E0C840C2ED8AB90040EB408C
:101FA000CD1F2CBA001006412AFFFABA00C0154115
:101FB000DFCFD13700D024419A97703A0050334197
:101FC00089478E3600404141E75B9D3800B04E4165
:101FD000C00A98B900A05B41558F943A003068411F
:101FE000DA92C0BA0040744162B3C63A0000803F42
:101FF00000A0853F00908B3F00C0913F0030983F8C
:1020000000F09E3F00F0A53F0050AD3F0000B53FFF
:102010000000BD3F0060C53F0020CE3F0040D73FDD
:1020200000C0E03F00C0EA3F0020F53F0000000094
:102030007D36AC397D3C3839EBDCF438320A7E39F8
:10204000124C26399B6AED39A4EE83397F661E391E
:10205000F6398A392B426539A48211395B991F39C7
:10206000C3EECD39DDE7C637A5A22F390000803F8A
:10207000C3AA853FC2958B3FD3C3913FF037983FAA
:1020800032F59E3FD7FEA53F3F58AD3FF304B53F25
:10209000A408BD3F2A67C53F8C24CE3FFD44D73FEF
:1020A000DFCCE03FC7C0EA3F7D25F53FCC200008EC
:1020B0000000002010000000D4010008DC2000080F
:1020C00010000020D8060000F00100080100000008
:0C20D00010000000000000000024F400DC
:040000050800019955
:00000001FF
