:020000040800F2
:104000008806002065420008B1440008A944000861
:10401000AD44000821430008CD490008000000001D
:10402000000000000000000000000000254600081D
:104030002543000800000000194500082946000833
:104040007F4200087F4200087F4200087F4200084C
:104050007F4200087F4200087F4200087F4200083C
:104060007F4200087F4200087F4200087F4200082C
:104070007F4200087F4200087F4200087F4200081C
:104080007F4200087F4200087F42000800000000D5
:104090000000000000000000000000007F42000857
:1040A0007F4200087F4200087F4200087F420008EC
:1040B0007F420008D94700087F4200087F4200087D
:1040C0007F4200087F4200087F4200087F420008CC
:1040D0007F4200087F4200087F4200080000000085
:1040E0007F4200087F4200087F4200080000000075
:1040F0000000000000000000000000007F420008F7
:10410000000000007F4200087F4200087F42000854
:10411000000000000000000000000000000000009F
:104120007F4200087F4200087F4200087F4200086B
:104130007F420008000000000000000000000000B6
:104140000000000000000000000000007F420008A6
:104150007F4200087F4200087F4200087F4200083B
:104160007F4200087F4200080000000000000000BD
:10417000000000000000000000000000000000003F
:10418000000000007F420008000000000000000066
:104190007F4200087F42000800F002F800F052F869
:1041A00014A696E8000CB244B344DA4501D100F0FD
:1041B00049F8BAE80F000FA696E83000A5EB040511
:1041C00004EB0607AAEB0704A7F101074FEA151550
:1041D0004FEA3414A4F10104AC4201D300F032F8E8
:1041E00013F0010F18BFFB1A43F0010300F001F8B0
:1041F000DBE718470009000020090000103A24BF3F
:1042000078C878C1FAD8520724BF30C830C144BF3B
:1042100004680C6070470000704700000023002411
:1042200000250026103A28BF78C1FBD8520728BFC6
:1042300030C148BF0B6070471FB500F03EFC1FBD8A
:1042400010B510BD00F031F81146FFF7F5FF00F092
:10425000D5FB00F04FF803B4FFF7F2FF03BC00F00A
:1042600057F800000948804709480047FEE7FEE785
:10427000FEE7FEE7FEE7FEE7FEE7FEE7FEE7FEE716
:1042800004480549054A064B70470000B54600083A
:10429000994100088800002088060020880200203C
:1042A00088020020704770477047754600F02CF870
:1042B000AE4605006946534620F00700854618B013
:1042C00020B5FFF7DDFFBDE820404FF000064FF0BE
:1042D00000074FF000084FF0000BAC46ACE8C009F7
:1042E000ACE8C009ACE8C009ACE8C00921F007019E
:1042F0008D46704710B50446AFF300802046BDE8F8
:104300001040FFF7A8BF00000048704708000020D9
:1043100001491820ABBEFEE72600020070470000EE
:10432000FEE7000070470000F0B583B001200121D6
:10433000012600F0F3F84FF48070019040F2023053
:104340000024C0F20010C4F2020401AD0290204625
:10435000294600F01FF84FF480000021002700F0EC
:1043600047F90420012100F0D9F84FF40050CDE9BD
:10437000010604F50060294600F00CF820462946A5
:1043800001968DF808708DF80B6000F003F803B00B
:10439000F0BD00002DE9F04FD1F800C0002302224B
:1043A0004FF0010E4FF003094FF6FE7810E000BF0A
:1043B000C46804EA0A04C460CC79C56894402C43FC
:1043C000C4600233102B02F1040208BFBDE8F08F75
:1043D0000EFA03FB1CEA0B0F2ED0961E076809FA93
:1043E00006F46FEA040A27EA040404600C790768FB
:1043F00004FA06F5013C3D43012C056013D884689E
:1044000004EA0A0484604C798D798768B4403C439F
:104410008460446824EA0B04446005FA03F44568A8
:10442000A4B22C434460C46804EA0A04C460CC7992
:10443000C568B4402C43C46003F1010B0EFA0BF5C0
:104440001CEA050FBDD0076809FA02F46FEA040AF6
:1044500027EA040404600C79076804FA02F6013CB8
:104460003E43012C0660A3D8846804EA0A048460F1
:104470004C798E79876894403C4384604468AC43AF
:10448000446006FA0BF4456804EA08042C434460CF
:104490008EE700000069084018BF01207047000047
:1044A0004183704701837047FEE70000FEE700008C
:1044B0007047000010B5C17800294EF20011CEF20D
:1044C00000011DD04EF60C52CEF2000212680723F6
:1044D00023EA12220F23C2F1040C23FA02FE4278CF
:1044E00084785FFA8CF390F800C09A4004EA0E03D7
:1044F0001A43120101EB0C0383F8002301E000BF13
:1045000080310078012300F01F0203FA02F2C0F3A9
:10451000421041F8202010BD70470000002943F6EA
:104520003001C4F202010A680CBF22EA0000104305
:1045300008607047002943F64001C4F202010A688E
:104540000CBF22EA00001043086070474C21C4F2FF
:10455000472108607047000010B543F60401C4F21B
:1045600002014A6802F00C0342F20042082BC0F23A
:10457000F40207D0042B21D147F64002C0F27D128D
:104580001CE000BFD1F800C0D1F800E00B680EF0CD
:104590003F0EC3F388145FEA4C2347F64003C0F292
:1045A0007D1358BF1346B3FBFEF20B686243C3F39F
:1045B0000143022404EB4303B2FBF3F202604B68B5
:1045C00044F6E424C3F30313C0F60004E35CDA40CA
:1045D00042604B68C3F38223E35C22FA03F38360F7
:1045E0004968C1F34231615C22FA01F1C16010BD3A
:1045F00043F60802C4F202021368084323F0EC6396
:10460000184310607047000040F28400C2F20000BE
:104610000068704740F28400C2F200000168013176
:104620000160704770470000FFF7F4BF80B543F6A4
:104630000400C4F20200416801F00C0242F20041A1
:10464000082AC0F2F40107D0042A21D147F640011C
:10465000C0F27D111CE000BFD0F800C00368026802
:1046600003F03F03C2F3881E5FEA4C2247F6400284
:10467000C0F27D1258BF0A46B2FBF3F10268022372
:10468000C2F301420EFB01F103EB4202B1FBF2F176
:1046900040F20002C2F200021160406844F6D423E6
:1046A000C0F30310C0F60003185C21FA00F010609C
:1046B00080BD000082B04EF6885CCEF2000CDCF8C3
:1046C000002043F6000142F47002C4F20201CCF86B
:1046D00000200A684FF6FF7042F001020A600022D3
:1046E0008A600B68CFF6F6601840086043F210004D
:1046F000C2F200404860086820F480200860CA6068
:1047000001920092086840F480300860086800F464
:1047100000300090019801300190009818B901987C
:10472000B0F5A04FF2D10868800354BF00200120EB
:1047300000900098012849D1086C40F0805008642E
:1047400047F20000C4F20000026842F440420260F6
:104750008868886088688860886840F480508860CD
:1047600045F21940C0F241704860086840F080701E
:1047700008600868800109D4086880015CBF086887
:104780005FEA801002D408688001F2D540F202701E
:10479000C1F80004886820F003008860886840F051
:1047A00002008860886800F00C0008280ED0886835
:1047B00000F00C00082809D0886800F00C000828D8
:1047C00004D0886800F00C000828EBD14FF000609E
:1047D0004CF8800C02B0704710B540F20044C4F2AF
:1047E00000042046012100F08FF8002808BF10BD0A
:1047F0002046012100F040F8BDE81040AFF30080F2
:1048000080B540F2800EC2F2000E9EF80000BEF8A5
:10481000022038B1013A1304AEF802200DD1002273
:1048200007E000BF013293B2DB097C2BAEF8022017
:1048300003D980F001008EF800009EF8013092B29A
:104840004CF6CD4C591C40F6000002FB0CF2322B0A
:1048500088BF0021CBB2C4F20200B3EB126F8EF816
:1048600001104FF4005103D2BDE88040FFF718BE9D
:10487000BDE88040FFF716BEC943018270470000C3
:104880000288002918BF012122F001021144018091
:1048900070470000B0B584B002200121FFF74AFE46
:1048A0001D20C0F20110039003A8FFF703FE40F2A1
:1048B0000000C2F2000000684DF68361C4F21B31B3
:1048C000A0FB01014FF0FF3000EBD145642040F226
:1048D000004401900020C4F200040090ADF80800EC
:1048E0006946204600F028F8A9B22046012200F0CF
:1048F0001FF820460121012200F012F82046012174
:10490000FFF7BEFF04B0B0BD028A80890A4000EA0A
:10491000010018BF0122002818BF01201040704775
:10492000002A82890CBF22EA01011143818170476C
:10493000018582827047000010B540F6FF32B0F862
:1049400000E0C4F2000240F2004C9042C4F2010CBC
:1049500010DCB0F1804F1AD040F20042C4F20002E5
:10496000904214D040F60002C4F2000290420ED0F1
:1049700012E000BF40F60042C4F20002904206D0AE
:10498000604504D00022C4F20102904204D14A885A
:104990002EF0700342EA030E41F2004340F48062BD
:1049A000C4F200039A4204D00C892EF4407344EA06
:1049B000030EA0F800E04B686245C3620B880385D4
:1049C00004BF897A01860121818210BDFEE70000C3
:1049D0004EF60C50BFF34F8FCEF200000168042258
:1049E00001F4E061C0F2FA5211430160BFF34F8F4E
:1049F00000BF00BF00BF00BFFAE7000082B04EF664
:104A0000085444F20000CEF20004C0F6000020601A
:104A10000120FFF79BFDFFF709FE40F26805C2F297
:104A2000000505F10800FFF797FDE86844F6D3514B
:104A3000C1F26201A0FB01014FF0FF3606EB9111BC
:104A40000020B0EB116F09D14EF21002CEF200023D
:104A50005160F021E17690600720106032200190D3
:104A6000FFF7D2FD01990446481C38BF064600BF37
:104A7000FFF7CAFD001BB042FAD3FFF755FCFFF762
:104A800009FF0024C4F20204002600E06E60FFF774
:104A9000BBFD29688842FAD0FFF7B6FD28602046A2
:104AA0000121FFF7F7FC0028F0D168680130B0F56C
:104AB000FA7F6860EBD3FFF78BFFF1EE100A4FF639
:104AC000FF71C0F2C03120EA010040F04070E1EE19
:104AD000100A7047000000000000000001020304FB
:104AE0000607080900000000010203040102030494
:104AF00006070809184B0008000000200800000005
:104B0000FC410008204B000808000020800600003F
:104B10001C4200080000000000BD0105000000006C
:040000050800419915
:00000001FF
