:020000040800F2
:1000000020710020890200084B2C00088725000879
:10001000492C00086F070008055600080000000082
:100020000000000000000000000000008D3B000800
:100030007107000800000000C72D0008993B000868
:10004000A3020008A3020008A3020008A3020008FC
:10005000A3020008C92D0008A3020008A30200089B
:10006000A3020008A3020008A3020008A3020008DC
:10007000A3020008A3020008A3020008A3020008CC
:10008000A3020008A3020008A30200080000000069
:10009000000000000000000000000000A3020008B3
:1000A000A3020008A3020008A3020008A30200089C
:1000B000A3020008A3020008A3020008A30200088C
:1000C000A3020008A3020008A3020008493900089F
:1000D000A3020008A3020008A30200080000000019
:1000E000A3020008A3020008A30200080000000009
:1000F000000000000000000000000000A302000853
:1001000000000000A3020008A3020008A3020008E8
:1001100000000000000000000000000000000000DF
:10012000A3020008A3020008A3020008A30200081B
:10013000A302000800000000000000000000000012
:100140000000000000000000000000004D2C00082E
:10015000A3020008A3020008A3020008A3020008EB
:10016000A3020008A3020008000000000000000035
:10017000000000000000000000000000000000007F
:1001800000000000A30200080000000000000000C2
:10019000A3020008A302000800F002F800F064F8CF
:1001A0000AA090E8000C82448344AAF10107DA45D2
:1001B00001D100F059F8AFF2090EBAE80F0013F0C0
:1001C000010F18BFFB1A43F001031847B08100006C
:1001D000D08100000A444FF0000C10F8013B13F0EE
:1001E000070408BF10F8014B1D1108BF10F8015B90
:1001F000641E05D010F8016B641E01F8016BF9D183
:1002000013F0080F1EBF10F8014BAD1C0C1B09D1D9
:100210006D1E58BF01F801CBFAD505E014F8016B4B
:1002200001F8016B6D1EF9D59142D6D370470000DD
:100230000023002400250026103A28BF78C1FBD8EF
:10024000520728BF30C148BF0B607047642900F0D7
:10025000FB80782900F03481002070471FB507F03B
:100260005CFD1FBD10B510BD00F04CFA1146FFF744
:10027000F5FF07F07DFB00F06AFA03B4FFF7F2FF29
:1002800003BC00F06DFA00000948804709480047A8
:10029000FEE7FEE7FEE7FEE7FEE7FEE7FEE7FEE736
:1002A000FEE7FEE704480549054A064B7047000093
:1002B000353C000899010008204D002020710020E5
:1002C000206D0020206D002053EA020C00F06980B0
:1002D0002DE9F04B4FF00006002B1FBFB3FA83F55A
:1002E00003FA05F424FA05F65E4012BF1643B2FA8B
:1002F00082F502FA05F4C5F120051EBF22FA05FCBD
:1003000044EA0C04203556EA044C4FEA144418BF62
:10031000641C4FF000084FF00009904271EB030C91
:1003200039D3002919BFB1FA81F701FA07F6B0FAFB
:1003300080F700FA07F6C7F120071EBF20FA07FC76
:1003400046EA0C062037B6FBF4FCA7EB0507103F86
:1003500007F01F0BCBF120060CFA0BFB2CFA06F66C
:1003600044BFB3460026202FA4BF5E464FF0000BCB
:100370005BEA060C08BF4FF0010B19EB0B09ABFB56
:10038000027C48EB0608C01B06FB02CC0BFB03CC2F
:1003900071EB0C01C1E70B46024641464846BDE8F9
:1003A000F08B13B54FF000004FF00001AFF3008069
:1003B000BDE81C40704700000FB41CB5074B06AAEF
:1003C0007B4469460090059800F07BF9002069465F
:1003D00000F08AF91CBC5DF814FB00002503000046
:1003E0002DE9F0410E460446002020622046E168D7
:1003F000884730B3252805D0D4E901219047206AE9
:10040000401CF2E7E168204600278847050018D025
:10041000A5F14100192802D820354FF40067324673
:10042000294620462760FFF711FF40B1012804D07C
:10043000F61D26F007060836D8E7361DD6E728460B
:10044000DAE7206ABDE8F0812DE9F0410646002494
:1004500010687529314616A510D0AFF3008000282A
:1004600002DA404213A507E031688A0701D512A5D8
:1004700002E0490704D511A5012401E0AFF3008093
:1004800000210A2206F1240709E0B0FBF2FCB0FBD0
:10049000F2F302FB1C00303078541846491C002847
:1004A000F3D123462A463046BDE8F04100F0AAB811
:1004B000000000002D0000002B00000020000000C4
:1004C00070B504460D4621461068AFF300802188C0
:1004D000090502D50F4A7A4402E00E4A7A440E32E8
:1004E000002104F1240305E000F00F060009965DE9
:1004F0005E54491C0028F7D120780023000704D55A
:10050000702D02D009B1022311322046BDE870409F
:1005100000F078B8D67C000010B5431C02E010F85B
:10052000011B71B18107FAD14FF0013202C88C1A58
:100530008C4314EAC211F9D0C01A0A0603D0C01EB7
:1005400010BDC01A10BD0A0401D0801E10BD0902E2
:10055000FCD0401E10BD4FF000020429C0F01280F4
:1005600010F0030C00F01B80CCF1040CBCF1020F66
:1005700018BF00F8012BA8BF20F8022BA1EB0C013B
:1005800000F00DB85FEAC17C24BF00F8012B00F831
:10059000012B48BF00F8012B70474FF0000200B557
:1005A000134694469646203922BFA0E80C50A0E896
:1005B0000C50B1F12001BFF4F7AF090728BFA0E844
:1005C0000C5048BF0CC05DF804EB890028BF40F810
:1005D000042B08BF704748BF20F8022B11F0804F52
:1005E00018BF00F8012B704770477047704710B56F
:1005F00000F080F8006810BD10B5044600F07AF8ED
:10060000046010BD2DE9F0470D4699469246044618
:1006100000F124080168880604D5E06921F0100182
:10062000216000E00120A84201DD471B00E0002717
:10063000A1697A1902EB0900081AA0612078C006A6
:1006400002D42046AFF30080002608E0D4E901215F
:100650001AF806009047206A401C761C20624E451E
:10066000F4DB2078C0060AD52046AFF3008006E010
:10067000D4E9012130209047206A401C2062381EB6
:10068000A7F10107F4DC07E0D4E9012118F805001F
:100690009047206A401C2062281EA5F10105F3DC6A
:1006A0002046AFF300802078000602D50220BDE886
:1006B000F0870120FBE7000001694A1C026108780D
:1006C000704700B58FB0CDE9013100210591054992
:1006D0007944CDE9031011466846FFF781FE0FB05B
:1006E00000BD0000E5FFFFFF0A6802F8010B0A6089
:1006F0007047000000487047BC4C0020004870471D
:10070000BC4C00207546FFF7F9FFAE460500694670
:10071000534620F00700854618B020B5FFF7C2FD0C
:10072000BDE820404FF000064FF000074FF00008F2
:100730004FF0000B21F00701AC46ACE8C009ACE873
:10074000C009ACE8C009ACE8C0098D46704710B5D7
:100750000446AFF300802046BDE81040FFF78DBD92
:1007600001491820ABBEFEE7260002007047FEE7F5
:10077000704772B6FEE70022AFF3008030B50E4B33
:10078000054601205C7A002C14D1587A1C54587A02
:1007900003EB800045605D7A03F108002A54587A23
:1007A000421C5A72303008703A2048702F208870EE
:1007B000CC70002030BD00007C4C002090F835103B
:1007C000022903D08021416501207047052180F86E
:1007D00035100068016821F00101016000207047B8
:1007E00070B5044600F00CF90546601C02D00448C0
:1007F0000078044400F004F9401BA042FAD370BD15
:10080000940000202DE9F84FDFF8B8A10022012460
:1008100003254FF00F090AF1040BAAF1040E00BFE3
:100820000B6804FA02F63340B34273D10F7907F034
:100830000307012F01D0022F16D187684FEA420823
:1008400005FA08FC27EA0C07D1F80CC00CFA08FCE2
:100850004CEA070CC0F808C04768B7430E79C6F3E6
:10086000001696403E4346600E79F643B6070DD01B
:10087000C768560005FA06FC27EA0C07D1F808C03D
:100880000CFA06FC4CEA070CC0F80CC00E7906F016
:100890000306022E10D1D60800EB8608D8F8206097
:1008A00057074FEAD76C09FA0CF7BE430F6907FAEE
:1008B0000CF73743C8F8207006684FEA420C05FA77
:1008C0000CF7BE430F7907F0030707FA0CF737431D
:1008D00007604E6816F4403F6DD03B4E376847F4D2
:1008E00080473760366822F0030706F4804600969A
:1008F000364E07EB060CDCF8086897073F0F09FA3D
:1009000007F826EA0806DFF8C880404503D14FF013
:1009100000081EE04FE0DFF8BC80404502D14FF0F8
:10092000010816E0DFF8B080404502D14FF0020820
:100930000FE0DFF8A880404502D14FF0030808E03F
:10094000DFF89C80404502D14FF0040801E04FF0F1
:10095000070808FA07F848EA0608CCF80888DAF821
:1009600000605746D1F804C09E435FEACC2C00D506
:100970001E433E60DBF800605F46D1F804C09E4332
:100980005FEA8C2C00D51E433E60DEF8006077469F
:10099000D1F804C09E435FEA8C3C00D51E433E6004
:1009A000084F083F3E68D1F804C09E435FEACC3C44
:1009B00000D51E433E60521C102AFFF431AFBDE843
:1009C000F88F0000083C01404438024000300140EC
:1009D000000002400004024000080240000C0240F7
:1009E000001002400AB1816170470904FBE7000072
:1009F00002480068C0F30B0070470000002004E0CC
:100A00000148806870470000940000200248816817
:100A10000278114481607047940000200B4810B5A3
:100A2000016841F400710160016841F48061016076
:100A3000016841F480710160032000F077F8002024
:100A400000F006F800F024F8002010BD003C024041
:100A500070B50D4D04464FF47A712878B1FBF0F073
:100A60000A490968B1FBF0F001F079FD48B9102C92
:100A700007D200222146501E00F038F800206C609A
:100A800070BD012070BD000094000020A000002077
:100A90000E4808B5016841F480410160006800F427
:100AA000804000900948001F016841F080510160BA
:100AB0000068002200F0805000901146052000F0F0
:100AC00015F8BDE80840052000F002B8443802409F
:100AD000002809DB00F01F0201219140400980003D
:100AE00000F1E020C0F8001170470000F0B40E4B98
:100AF0001B680C46C3F30223C3F10705042D00D97C
:100B00000425191D072901D2002300E0DB1E012660
:100B100006FA05F1491E214099409E40761E164076
:100B20003143F0BC04F02BBF0CED00E0064900F0AF
:100B3000070208684FF6FF03184040EA0220034A04
:100B400010430860704700000CED00E00000FA055B
:100B500070470068416200207047F0B50368586A2A
:100B600039B19C6A4FF4827600EB144400204D1E8C
:100B70000AE040EA024098620FE006EB8007DF5986
:100B8000401C04EB1744C0B2A842F6D344EA02402A
:100B90004FF4807202EB810158500020F0BDD0F874
:100BA000E00403F0AEBA01EBC10200EB8202D0F820
:100BB000E004126A03F0FFB901EBC10200EB82020C
:100BC000D0F8E004D2F8602203F051BAD0F8E00483
:100BD00003F099BA0A0601F00F0101EBC10100EB25
:100BE000810101D5143101E001F51571006804F0AF
:100BF000EDBA70B504460B0601F00F0000EBC00122
:100C000004EB81014FF001024FF0000502D54A7557
:100C1000143103E081F8555201F51571087094F80C
:100C20009404012808D084F89424206803F0E8FF95
:100C300084F89454002070BD022070BD70B5044645
:100C400001F00F002279904201D9012070BD0B06FE
:100C500001F00F0101EBC10104EB81014FF0010232
:100C60004FF0000502D54A75143103E081F8555262
:100C700001F515718D70087094F89404012808D05E
:100C800084F89424206804F02DF984F8945400200A
:100C900070BD022070BD10B5044690F89404012880
:100CA0000AD0012084F89404080607D501F00F014A
:100CB000206804F0FCFA04E0022010BD206804F073
:100CC000DAFA002084F8940410BD01F00F0101EB62
:100CD000C10100EB8100D0F8680270472DE9F041B6
:100CE00004460F0601F00F0000EBC00104EB810188
:100CF0004FF001064FF0000502D54E75143103E0A8
:100D000081F8555201F51571C2F30A0208708A6024
:100D10000B714A7802B14883022B00D14D7194F8CF
:100D20009404012809D084F89464206803F0B6FE86
:100D3000284684F89454BDE8F0810220FBE710B502
:100D400001F00F0404EBC40100EB8101C1E9982319
:100D50000023C1F8683281F8553281F85442837912
:100D600001F51571012B00D1CA618279006804F088
:100D700011F9002010BD70B504460D4601F00F00BA
:100D80002179884201D9012070BD29064FF0000663
:100D90004FF0010206D500EBC00104EB81014A755A
:100DA000143107E005EBC50104EB810181F85562C0
:100DB00001F515718A70087094F89404012807D021
:100DC00084F89424206804F0B9F8280702D007E0DA
:100DD000022070BDA17904F29C42206804F056F80C
:100DE00084F89464002070BD10B501F00F0404EB8A
:100DF000C40100EB8101C1E9082300238B620123B8
:100E00004B7501F8144F8379012B00D1CA618279A7
:100E1000006804F0BFF8002010BD00002DE9FC5F61
:100E200005680446284604F06DFA00287DD1206844
:100E300004F094FA002878D0D5F80808C0F30D2003
:100E4000C4F8D404206804F089FA800704D5206827
:100E5000416901F002014161206804F07FFAC10696
:100E600004F29C40009034D52068816921F0100183
:100E700081612F6A07F00F0000EBC00004EB8006D1
:100E8000C7F3434006F51576022802D0062811D094
:100E90001AE047F6F070074216D0C7F30A12174659
:100EA0002846F16804F05EFAF0683844F060706932
:100EB000384408E008222846009904F053FA706983
:100EC000C7F30A11084470612068816941F010017C
:100ED0008161206804F042FA00034FF0080B4FF0E4
:100EE000000A4FF001097CD50026206804F015FAAD
:100EF000074674E0F80770D0F1B2206804F026FAD3
:100F00008046C00707D005EB4611C1F8089B314663
:100F1000204601F0A1FE5FEA087024D505EB4611DA
:100F2000C1F808BB2068016C00E023E200EB46102A
:100F30000191D0F8082BFB4B994205D9110403D538
:100F40004FF40041C0F8081B204600F0F3FAF549C1
:100F50000198884207D9A079012804D1206801218D
:100F6000009A03F093FF5FEAC86004D505EB4611D1
:100F70001020C1F8080B5FEA88701DD5686900066B
:100F800005D5D5F8040840F48061C5F8041806EBCF
:100F9000C60004EB800090F8571200F51570012987
:100FA00005D180F803A0F1B2204600F0E9F905EB85
:100FB00046110220C1F8080B5FEA886004D505EBF2
:100FC00046102021C0F8081B5FEA884005D505EBD4
:100FD00046104FF40051C0F8081B7F08761C002F04
:100FE00088D1206804F0BAF940036ED5206804F077
:100FF0008DF90746002666E0F80762D0F1B2206856
:1010000004F092F98046C00723D006F00F01D5F80E
:10101000342809FA01F18A43C5F8342805EB461152
:10102000C1F80899A07901280FD106EBC60004EB9E
:101030008000D0E907211144016236B9606A20B905
:1010400020680121009A03F021FFF1B22046FFF74A
:10105000AAFD5FEA087003D505EB4611C1F808B98F
:101060005FEAC86004D505EB46111020C1F80809F5
:101070005FEA486004D505EB46104021C0F8081926
:101080005FEA887016D53146284604F010F906EB61
:10109000C60004EB8000C17D1430012905D180F821
:1010A00003A0F1B2204600F067F905EB46110220DB
:1010B000C1F808095FEA086003D53146204601F00F
:1010C00031FE7F08761C002F96D1206804F046F987
:1010D000002811DAD5F8040820F00101C5F8041839
:1010E00094F8CC0401282BD0204600F008FA2068A0
:1010F000416901F000414161206804F02FF90005C9
:101100000BD5D5F80808C00702D0204600F03AFAFF
:101110002068416901F400614161206804F01EF912
:10112000C00467D5D5F8040820F00100C5F804080C
:101130001021206804F0BBF800214FF67F3220E038
:1011400084F8CCA400212046FFF702FDCFE700BFC2
:1011500005EB4110C0F80829D0F8003923F400133A
:10116000C0F80039C0F8082BD0F8003B23F4001376
:10117000C0F8003BD0F8003B43F00063C0F8003BF0
:10118000491C20798842E3D8D5F81C0840F00111A9
:10119000C5F81C18E07B002828460DD0D0F884083C
:1011A00040F00B01C5F88418D5F8440840F00B0155
:1011B0002846C5F844180DE0D0F8140842F22B0177
:1011C0000843C5F81408D5F8100840F00B0128466C
:1011D000C5F81018D0F8000820F4FE61C5F8001812
:1011E000A1792068009A03F051FE2068416901F45A
:1011F00080514161206804F0B1F8800415D5206861
:1012000003F08CFC206804F070F8E07100F016FB2D
:101210000146E279206804F003F9204600F05CF909
:101220002068416901F400514161206804F096F89A
:10123000000707D5204600F066F92068416901F0F3
:1012400008014161206804F089F8000616D5A869F4
:1012500020F08001A96101260DE000BF06EBC60069
:1012600004EB800090F85702012803D1F1B2204628
:10127000FFF7B0FC761C2079B042EFD8206804F06C
:101280006DF8C0021FD501264F4614E005EB46104D
:10129000D0F8000906EBC60104EB81010A7E012AA1
:1012A00008D1002806DACF75F0B240F08001204660
:1012B000FFF790FC761C2079B042E7D8206841699E
:1012C00001F480114161206804F048F8800234D5AF
:1012D00001204A4629E000BF05EB4011D1F8001B70
:1012E00000EBC00304EB830393F85862012E1BD17B
:1012F000002919DA94F8D464C1F3004106F001061C
:101300008E4211D183F85722A96941F08003AB6165
:101310006969090608D4D5F8040840F40070C5F8D6
:10132000040805E00A30544F401C21798142D3D88B
:101330002068416901F400114161206804F00EF851
:10134000400007D52046FFF72AFC2068416901F0DC
:1013500080414161206804F001F840070AD5206807
:101360004568680702D52046FFF730FC20684168D1
:1013700029434160BDE8FC9FD0F8E00402F01FBFA4
:10138000D0F8E00402F02FBFF8B5040005D094F8BF
:1013900095042668002510B106E00120F8BD84F808
:1013A0009454204600F056F8032084F89504B6F1D2
:1013B000A04F00D1A571206803F062FD207C8DF85C
:1013C000000094E80F0003F0B7FB0226B8BB002131
:1013D000206803F0E6FF90BB002001270DE000BF6E
:1013E00000EBC00104EB81014F750875C8850D76CF
:1013F000CD610D62401CC0B24D6221798142EFD8AF
:10140000002011E000EBC00104EB810181F855528E
:1014100081F8540281F85852C1F85C52C1F8605208
:10142000401CC0B2C1F8645221798142EAD8207CC4
:101430008DF8000094E80F0003F064FC10B184F80C
:101440009564AAE7657484F89574206803F04CFCF1
:101450000020F8BD10B586B0044614216846FFF799
:101460009CF82068B0F1A04F2FD1194800210268E4
:1014700042F001020260006800F0010005904FF4A4
:10148000C05000900220CDE90101032003900A2002
:10149000049069460F48FFF7B5F90D48001D016833
:1014A00041F0800101600A481430016841F4804134
:1014B00001600068002200F4804005900121432073
:1014C000FFF714FB4320FFF703FB06B010BD00003D
:1014D000303802400000024070B50446C079012552
:1014E000022801D0FFF745F92946D4F8E00402F0BC
:1014F000E9FED4F8E004BDE8704002F09DBED0F8EB
:10150000E00402F0C8BED0F8E00402F0CEBE10B590
:10151000044690F8940401280AD0012084F8940429
:101520006174206803F06BFF002084F8940410BD00
:10153000022010BDD0F8E02400F29C41104602F0D9
:10154000CDBE10B50446006894F89414012909D062
:10155000012184F89414C168490609D5617B0129E9
:1015600002D005E0022010BD816B41F4803181631F
:10157000206803F07AFE206803F0A8FB002084F8BE
:10158000940410BD10B50446D0F8E00402F0E8FE63
:101590002068D0F8001E41F00101C0F8001EE07A7A
:1015A000002804D00248016841F00601016010BD26
:1015B00010ED00E02DE9F843044600684FF0010902
:1015C000C1074FF0000601D1400729D5DFF820817F
:1015D000C8F86860FFF714FA0746464D05E000BFFB
:1015E000FFF70EFAC01B022859D828680001F7D46B
:1015F000A068217B800140EA0170616808433D4991
:1016000084310860C8F86890FFF7FAF9074604E0EB
:10161000FFF7F6F9C01B022841D828680001F7D56A
:101620002078800752D533484030016841F080511E
:1016300001600068304D00F080500090286840F450
:1016400080702860FFF7DCF9074604E0FFF7D8F95F
:10165000C01B022823D82868C005F7D5254D703552
:10166000286810F4407020D0218A01F44071814232
:101670001BD02868214920F44070C1F800900E600A
:1016800028602868C00710D0FFF7BAF9064641F273
:10169000883707E0FFF7B4F9801BB84202D903206E
:1016A000BDE8F88328688007F4D521691148C1F3A3
:1016B00001220830032A12D0016821F4F8110160D8
:1016C0002868218AC1F30B010843286020780007AD
:1016D00003D50B49207DC1F8E0010020E0E7026856
:1016E000084B22F4F81219400A430260E8E70000B0
:1016F000000047420038024000700040400E474260
:1017000000104742FFFCFF0F2DE9F0470E46050091
:1017100065D0DFF81481D8F80000F7B200F00700B8
:10172000B04207D288F80070D8F8000000F0070037
:10173000B04254D128683D4C810712D5400703D5EB
:10174000206840F4E05020602878000703D5206826
:1017500040F4604020602068A96820F0F000084351
:1017600020602878C0072DD03049686808390128E2
:1017700012D0022813D0032811D009688907002944
:101780002DDA216821F0030101432160FFF738F9C8
:10179000814641F2883A0EE009688903EFE709685B
:1017A0008901ECE7FFF72CF9A0EB0901514502D9BB
:1017B0000320BDE8F0872068696800F00C00B0EBFA
:1017C000810FEFD1D8F80010404601F00701B14277
:1017D00007D90770006800F00700B04201D001206F
:1017E000E7E72878400705D52068E96820F4E0504D
:1017F000084320602878000706D52068296920F46E
:10180000604040EAC100206000F01EF82168084AEC
:10181000C1F30311515CC8400649086006480068DE
:10182000FFF716F90020C4E7003C024008380240E8
:10183000487D0008A00000209800002001480068B2
:1018400070470000A0000020154810B5006810F097
:101850000C02144813D01449042A0FD0082A0ED1C0
:101860000F4C241F2268236802F03F025B0207D559
:101870002068C0F38810A0FB010106E0084610BDF7
:101880002168C1F38811A1FB00010023FEF71CFDB4
:101890002168C1F30141491C4900B0FBF1F010BDC2
:1018A000083802400024F40040787D012DE9F84F0B
:1018B00004006ED02078DFF84C93C007A9F104052E
:1018C0004AD009F104000168C1F38101012908D05F
:1018D0000068C0F3810002280AD1D9F80000400254
:1018E00006D52868800337D560680028E1D033E04A
:1018F0006068B0F5803F10D0B0F5A02F286810D0F8
:1019000020F480302860286820F4802028606068F7
:10191000A8B1FFF775F806460DE0286840F480305E
:10192000F4E740F480202860F7E700BFFFF768F88D
:10193000801B642873D828688003F7D50CE0FFF774
:101940005FF8064605E000BFFFF75AF8801B6428E1
:10195000F0D828688003F7D42078DFF8AC828007BD
:101960004FF0000A3ED5A748001D016811F00C0F8A
:1019700008D00068C0F3810002280BD1D9F800001C
:10198000400207D42868800716D5E068012800D1F6
:1019900012E033E1E068B8B10120C8F80000FFF7B9
:1019A0002FF8064605E000BFFFF72AF8801B022843
:1019B000C0D828688007F7D52868216920F0F8008A
:1019C00040EAC10028600DE0C8F800A0FFF718F851
:1019D000064604E0FFF714F8801B02281FD8286889
:1019E0008007F7D42078000722D5864F87486169A1
:1019F000703771B101210160FFF702F8064604E07B
:101A0000FEF7FEFF801B022809D838688007F7D54B
:101A10000EE0C0F800A0FEF7F3FF064605E082E006
:101A2000FEF7EEFF801B02287DD838688007F7D4C8
:101A30002078400768D5DFF8CCB100270BF13C0BCC
:101A4000DBF80000C0000BD4DBF8001041F080513F
:101A5000CBF80010DBF80000012700F08050009068
:101A60006B4E3068C00510D4306840F48070306030
:101A7000FEF7C6FF009005E0FEF7C2FF0099401A8E
:101A8000022850D83068C005F6D55E4EA0686C3686
:101A900001280FD00528306810D020F001003060F8
:101AA000306820F004003060A068B8B1FEF7A8FFED
:101AB00000900FE0306840F00100F4E740F00400CF
:101AC0003060F7E7FEF79CFF0099411A41F2883039
:101AD000814266D830688007F4D50EE0FEF790FFAB
:101AE000009007E0FEF78CFF0099411A41F2883020
:101AF000814256D830688007F4D42FB1DBF800104B
:101B000021F08051CBF80010A069C8B33D49091DF0
:101B10000968C1F3810102294AD00228504607D042
:101B2000C8F8600000E03CE0FEF76AFF04463BE0D6
:101B30004746C8F86000FEF763FF064605E000BFB1
:101B4000FEF75EFF801B02282BD828688001F7D49F
:101B5000D4E907010843A16A2E4A490802EB014172
:101B6000626A41EA8211084394F82C1040EA01614C
:101B7000C9F8001001203866FEF742FF044606E06F
:101B80003EE000BFFEF73CFF001B022809D8286892
:101B90008001F7D534E000BFFEF732FF001B0228BA
:101BA00002D90320BDE8F88F28688001F4D427E02B
:101BB0000128F7D0D9F80000E26900F480019142D1
:101BC0001CD1226A00F03F01914217D147F6C07143
:101BD000626A0140B1EB821F10D1A26A4FF0FF335D
:101BE00000F4403103EB5202B1EB024F06D194F8FE
:101BF0002C1000F07060B0EB016F01D00120D1E734
:101C00000020CFE70438024000004742800E4742E0
:101C1000007000400000FFFF10B5040002D0607F9C
:101C200010B106E0012010BD00202077204600F012
:101C300041F8022060772068C168C943C90632D5DF
:101C4000CA214162216853204862204601F0C8F849
:101C500020BB20688168164A11408160216888682D
:101C600062681043D4E904231A4310438860216852
:101C7000E068086120680169228941EA0241016146
:101C8000204601F0D1F848B921680A6C22F480227C
:101C90000A6421680A6CA3691A430A642268FF2156
:101CA000516208B110BD00200121617710BD000014
:101CB000BFFF8FFF10B586B0044618216846FEF7B7
:101CC0006CFC0949206888420CD102200090C001B8
:101CD00004906846FFF76EFC08B1FEF74AFD034921
:101CE0000120086006B010BD002800403C0E4742AD
:101CF00070B50446007F0B46012819D001262677CF
:101D000002206077B2B19878D97840EA01455878D6
:101D10001978000240EA413005432168CA20486230
:101D2000216853204862204601F05AF8D0B122E0E1
:101D3000022070BD5878C10603D500F0EF000A30CC
:101D40005870D87801F041F80204587801F03DF855
:101D500042EA0022987801F038F80243187842EA03
:101D60004035DAE70748054020684560204601F025
:101D70005BF800B966772268FF2151620021217764
:101D800070BD00003FFFFF002DE9F0410446007FD9
:101D90000D46012823D04FF0010884F81C80022052
:101DA00060772068002780684FEA4060D2B1002841
:101DB00000DBEF70A878297840EA01466878E97876
:101DC000000240EA815006432168CA204862216827
:101DD00053204862204601F003F8B8B12CE00220FD
:101DE000BDE8F081002800DBEF70287800F0EDFFFF
:101DF0000204687800F0E9FF42EA0022A87800F0C7
:101E0000E4FF0243E87842EA8056DDE70D480640E9
:101E1000206806602068816821F480218160D5E90E
:101E20000301084321688A6810438860204600F057
:101E3000FBFF08B984F81D802268FF2151622777D3
:101E4000CEE700007F7F7F0070B504460B48216815
:101E5000C860FEF7D5FD05464FF47A7607E000BF6F
:101E6000FEF7CEFD401BB04201D9032070BD2068B3
:101E7000C0688006F4D5002070BD00005F3F0100FF
:101E80007047000038B5016804464A688868C04356
:101E9000430606D5C30704D1D3435B0601D4216CA6
:101EA00005E0830708D4D3431B0605D4616C01B059
:101EB0002046BDE830400847830603D5430601D5D8
:101EC000C30551D4D3439B064ED443060AD494F899
:101ED0005130032B49D0636D43F004036365CB6835
:101EE0008B680093830609D4636D43F00103636537
:101EF0008B6800930B6823F040030B60C00506D489
:101F0000606D40F008006065206880680090606D3A
:101F1000002829D02068416821F0E00141600120BB
:101F200084F85100900701D4D00722D0206841687E
:101F300021F003014160114DE06C40B10565E06C9A
:101F4000FEF73CFC18B1606D40F040006065A06C8D
:101F5000002809D00565A06CFEF730FC002803D0EE
:101F6000606D40F04000606538BDC86888680090CA
:101F700038BD2046FFF784FF38BD00005539000802
:101F800070B5040009D0606A002540B12561656123
:101F9000A56294F8510040B10CE0012070BD60686A
:101FA000B0F5827FF4D0E561F2E784F85050204626
:101FB00000F044F8022084F851002068016821F004
:101FC00040010160A088218900F4827001F404417D
:101FD0000843A18901F400610843217C01F002015A
:101FE0000843217D01F001010843218B01F40071B8
:101FF0000843217F01F03801084394F8201001F0D4
:1020000080010843218D01F40051084321680860D4
:10201000A069042101EA104094F8241001F0100195
:102020000843216848602068C16921F40061C161EA
:102030006565012084F85100002070BD10B586B0A0
:10204000044614216846FEF7A8FA1749206888421A
:1020500028D116480021026842F4805202600068CC
:1020600000F48050059011481438026842F00102D3
:102070000260006800F001000590E020009002205E
:10208000CDE901010320039005200490694608482A
:10209000FEF7B8FB002211462320FEF727FD232080
:1020A000FEF716FD06B010BD003001404438024076
:1020B000000002402DE9F84F044690F851001D46FB
:1020C00016460F46012838D1002F77D0002E75D044
:1020D00060684FF00408B0F5827F01D1A06810B3AA
:1020E000FEF78EFC824694F85000012825D04FF070
:1020F000010984F8509084F851804FF00008C4F82A
:102100005480A763A687E687C4F83080A4F834809B
:10211000A4F83680C4F84080C4F84480A068B0F5C4
:10212000004F0CD015E084F85180009313460A4606
:10213000204600F01CF9BDE8F88F0220FBE720687C
:10214000016821F0400101602068016821F48041AC
:10215000016020680168490603D4016841F040012C
:102160000160E068C0B134E020688168C90709D027
:10217000007BA16B0870A06B401CA063E08F401E29
:10218000E08709E0FEF73CFCA0EB0A00A84202D37E
:10219000681C01D032E085B3E08F0028E4D11BE059
:1021A00020688168C9070AD0C068A16B0880A06B4D
:1021B000801CA063E08F401EE0870AE01BE0FEF772
:1021C0001FFCA0EB0A00A84202D3681C01D015E056
:1021D0009DB1E08F0028E3D152462946204601F008
:1021E000C1FB08B12020606584F8519084F85080CC
:1021F000606D00289FD001209DE7FFE784F8519093
:1022000084F85080032096E72DE9F84F984616464B
:102210008A460446FEF7F4FB814694F851000128F3
:102220001ED1BAF1000F73D0002E71D094F8500077
:10223000012815D0012784F85070032084F851003C
:1022400000256565C4F830A0A686E686A563A58747
:10225000E58765642564A068B0F5004F03D00CE005
:102260000220BDE8F88F2068016821F0400101607C
:102270002068016841F480410160206801684906D6
:1022800003D4016841F040010160E068B0F5006FDF
:10229000606803D048B3012E27D047E008B1012E73
:1022A0001FD1206B21680088C86006E02068816823
:1022B000890709D5216B0988C160206B801C2063C8
:1022C000E08E401EE0860CE0FEF79AFBA0EB0901D1
:1022D000414503D3B8F1FF3F03D035E0B8F1000F1B
:1022E00032D0E08E0028E1D123E0206B2168007815
:1022F000087306E02068816889070AD5216B097890
:102300000173206B401C2063E08E401EE0860DE0D0
:102310002BE0FEF775FBA0EB0901414503D3B8F1B3
:10232000FF3F03D010E0B8F1000F0DD0E08E002881
:10233000E0D14A464146204601F042FB08B1202048
:102340006065A06830B109E084F8517084F850509D
:10235000032086E72068C1688068009084F8517087
:1023600004F8505F60680028F3D0012079E72DE978
:10237000FF4F81B01D46934604464FF001090E9E63
:10238000FEF73EFB074694F851006168012806D02D
:10239000B1F5827F3CD1A168C9BB042838D102982D
:1023A000002871D0BBF1000FFBD0002DF9D094F8BC
:1023B000500001282CD04FF0010A84F850A094F866
:1023C0005100042802D0052084F851004FF0000885
:1023D000C4F85480C4F838B0E587A5870299216312
:1023E000E586A586C4F84080C4F84480206801686A
:1023F000490603D4016841F040010160E068B0F58E
:10240000006F606808D0F0B3012D49D081E0FFE78C
:10241000022005B0BDE8F08F08B1012D39D1206B45
:1024200021680088C860206B801C2063E08E401EFD
:10243000E0862EE02068816889070FD5E18E69B1BA
:10244000B9F1010F0AD1216B0988C160206B801C92
:102450002063E08E401EE0864FF00009206881680E
:10246000C9070CD0E18F51B1C068A16B0880A06B87
:10247000801CA063E08F401EE0874FF00109FEF74B
:10248000BFFAC01B01E00BE067E0B04201D3701C53
:1024900050D1E08E0028CDD1E08F0028CAD13EE097
:1024A000206B216800780873206B401C2063E08E4D
:1024B000401EE0862DE02068816889070FD5E18EF7
:1024C00069B1B9F1010F0AD1216B09780173206B51
:1024D000401C2063E08E401EE0864FF0000920681B
:1024E0008168C9070CD0E18F51B1C068A16B087039
:1024F000A06B401CA063E08F401EE0874FF00109F5
:10250000FEF77EFAC01BB04202D3701C01D011E06E
:1025100086B1E08E0028CED1E08F0028CBD13A469C
:102520003146204601F04CFA50B12020606584F815
:10253000508012E084F851A084F85080032068E7AE
:10254000A06818B92068C1688068009084F851A01C
:1025500084F85080606D0028F1D0012059E710B553
:10256000401EB0F1807F01D3012010BD4FF0E02468
:1025700060610F21601703F002FA0020A0610720BC
:102580002061002010BDFEE7F0B500230A243025AD
:1025900037261F4611E000BFB4EB107F02D905EBD0
:1025A000107C01E006EB107C01F813C001EB430C3A
:1025B00000015B1C8CF80170DBB29342ECD3F0BDE0
:1025C0002DE9F0410546D0F8D40205EB8000D0F8A3
:1025D000C042002C1ED004F580510F4E087F38B940
:1025E000886928B1607A18B93178284601F0A6FECA
:1025F0000A4F2846397801F0A1FE607A022809D1F5
:102600003978284601F09AFE31782846BDE8F04135
:1026100001F094BEBDE8F081E9000020E800002050
:102620002DE9F0410646D0F8D40206EB8000D0F840
:10263000C042002C60D004F5805568696863A869C1
:10264000A8632E480178304601F075FD1F280BD194
:102650002B492869884207D1697F2068814203D8C5
:10266000A87F08B1102808D9697F202305223046A9
:1026700001F00BF8022060720AE041F21F002218FC
:10268000304600F041FC0028207A08DA052804D002
:102690003046BDE8F041FFF793BF012127E0022853
:1026A0002AD0012828D0032826D0E768F7B1D6F829
:1026B000D412304606EB810104F11002D1F8C05269
:1026C000002D19D005F580518B69BB4200D33B46E4
:1026D0008C6BE41B8C63002481F83C40042129723C
:1026E00008490978BDE8F04101F047BE00213046B5
:1026F000BDE8F04100F0E2B8BDE8F081E90000205B
:1027000055534243E800002010B50446D0F8D402E7
:1027100004EB8000D0F8C002002818D0407A0228CC
:1027200009D0090613D5012811D02046BDE8104074
:10273000012100F0C3B806480178204601F0FEFDF3
:10274000044801782046BDE8104001F0F7BD10BDF7
:10275000E8000020E900002010B50446D0F8D402BB
:1027600004EB8000D0F8C022002A18D0107A02288A
:1027700005D0032801D0042811D100210AE041F23C
:102780001D00815C801C0244204600F0BDFB002837
:1027900005DA01212046BDE8104000F08FB810BDD9
:1027A00010B50446D0F8D40204EB8000D0F8C02263
:1027B000002A18D0107A88B1012814D141F21D00E6
:1027C000815C801C0244204600F09EFB00280ADA4F
:1027D0002046BDE81040012100F070B82046BDE859
:1027E0001040FFF71DBF10BDD0F8D41200EB8100E0
:1027F000D0F8C002002801D000210172704700000B
:1028000070B50546D0F8D40205EB8000D0F8C04280
:10281000002C26D00020207204F58051607281F8CF
:10282000610001F8600F8870D5F8D40205EB8000D4
:10283000D0F8C4020168002088470A4E2846317843
:1028400001F070FC08480178284601F06BFC1F235A
:1028500041F21000221831782846BDE8704001F09E
:10286000E2BC70BDE9000020E800002070B505461C
:10287000D0F8D40205EB8000D0F8C042002C17D06D
:1028800000202072012060720A480178284601F079
:1028900080FB094E2846317801F07BFB1F2341F273
:1028A0001000221831782846BDE8704001F0BBBC0A
:1028B00070BD0000E8000020E900002070B505466A
:1028C000D0F8D40205EB8000D0F8C042002C1BD019
:1028D00004F580520D48106382F83C1000202072ED
:1028E00041F2300022180A480D230178284601F0F1
:1028F00044FD1F2341F210002218064801782846A3
:10290000BDE8704001F08FBC70BD000055534253CC
:10291000E8000020E900002010B59CB02E492F48A7
:10292000FDF729FF2C4C641E0028207051D1012294
:10293000611C2B4804F0F4FA207050B10220207082
:10294000C00200220090274B1146601C04F042F8A0
:1029500039E0062224A12B4804F00EFB002832D1D6
:10296000FEF746F802462848038828A101A8FDF78B
:1029700023FD01A8FDF7D0FD02461AAB01A92148AD
:1029800004F04BFC2848416802680B0D27A101A800
:10299000FDF712FD01A8FDF7BFFD02461AAB01A924
:1029A000184804F03AFC2D4901A8FDF705FD01A8DF
:1029B000FDF7B2FD02461AAB01A9124804F02DFC46
:1029C000104803F0F3FF012225A1054804F0A8FAFE
:1029D00020701CB010BD00001D0000200800002069
:1029E000B001002014220020576541637420537405
:1029F0007564696F20436F726520426F6172642E47
:102A000074787400E4110020227AFF1F4D43552092
:102A100049443A20307825782C20524F4D3A2025D1
:102A2000644B420D0A0D0A00A04C0020783235514B
:102A300058580D0A466C6173682049443A20305852
:102A400025580D0A466C6173682053697A653A20EF
:102A50002564204D420D0A0D0A000000188300086D
:102A600000000000F0B587B014216846FDF795FD21
:102A70002A480024016841F004010160016801F066
:102A800004010591016841F080010160016801F0D5
:102A900080010591016841F001010160016801F0C8
:102AA00001010591016841F0020101600068012205
:102AB00000F002001A4D5603059031462846FDF7F6
:102AC00091FF184F012210213846FDF78BFF009629
:102AD0000126CDE90164694628460394FDF792FE7C
:102AE00048F20F700325CDE9000569460294384687
:102AF000FDF788FE1020CDE9000669463846CDE98D
:102B00000245FDF77FFE4FF2FF70CDE900056946F3
:102B100002940548FDF776FE07B0F0BD303802405C
:102B200000080240000002400004024010B586B0D8
:102B300014216846FDF731FD1C4800241A4905940C
:102B4000C0E900147F218160FF21C0E903144461C2
:102B50008461FFF761F808B1FDF70BFE8DF80040C6
:102B60008DF801408DF802400394012269460F4818
:102B70000494FFF709F908B1FDF7FBFD01208DF87A
:102B8000140004218DF815108DF8160019208DF809
:102B90001700012205A90548FFF7AAF8002801D06F
:102BA000FDF7E7FD06B010BD002800403801002009
:102BB0000F4810B50D4901604FF48271416000214A
:102BC0008160C1604FF400720161C0E90512C1610A
:102BD0000162416281620A21C162FFF7D1F90028D6
:102BE00003D0BDE81040FDF7C4BD10BD003001406A
:102BF0005801002010B500220F49104801F0B6F925
:102C000008B1FDF7B6FD0E490C4801F039FD08B1D9
:102C1000FDF7AFFD0B49094801F0A0FC08B1FDF735
:102C2000A8FD064801F0B0FD002803D0BDE8104023
:102C3000FDF79FBD10BD00002400002014320020CD
:102C4000B000002074000020FEE7FEE70148FEF718
:102C5000E5B80000784700202DE9F04103680D46F3
:102C600004461E6C03EB4511D1F8080B94F806E0FE
:102C70004FF400474FF0200C04F29C42BEF1010FCC
:102C800009D0DFF898E0764539D1020432D500BF8B
:102C9000C1F8087B3FE0224B5FEA007E04D59E42EC
:102CA00039D90004F4D436E05FEA806E02D5C1F869
:102CB00008CB30E010F0280F2DD19E4201D900043E
:102CC000E6D405EBC50004EB8000D1F8101BD0F86A
:102CD0007432C1F31201591AC0F8681200F5157068
:102CE000ADB903691BB1C2681144C1600FE0012195
:102CF00020680AE080060AD5C1F808CB07E035B99C
:102D0000D4F8640218B90021184602F0BFF8E9B2FD
:102D10002046FDF751FF0020BDE8F0810A31544FF5
:102D20000A30544F2DE9F84F0E4601EBC60100EB77
:102D3000810481460568D4E909101434884202D917
:102D40000120BDE8F88F081AA168814200D2084628
:102D5000C01C870805EB46181BE000BFA0EB010A6A
:102D6000A068504500D282460AF10300870899F80E
:102D7000060000901FFA8AF3F2B22846E16802F0DA
:102D8000C3FBE16801EB0A00E060616901EB0A0046
:102D90006061D8F8180980B2B84205D3D4E90401BB
:102DA000814201D20028D9D1D4E90401884208D84F
:102DB00006F00F0101208840D5F834188143C5F88A
:102DC00034180020BDE770477047002102E00A3840
:102DD000C0B2491C0A28FAD2090740EA11607047BC
:102DE0002DE9F041044600680025C168490618D461
:102DF000C16841F08001C160FDF702FE06464FF454
:102E00007A78042707E000BFFDF7FAFD801B4045F4
:102E100001D9677701252068C068400601D4002DDC
:102E2000F2D02846BDE8F08170B504460068002560
:102E3000C16821F08001C16020688068800606D4E6
:102E40002046FFF701F810B10420607701252846DD
:102E500070BD70B5D0F8D44241F2640600EB840432
:102E6000D4F8C04204EB01152E444FF0FF353CB1BD
:102E70001A4473689A4205D92123052200F005FC03
:102E8000284670BD002070BD2DE9F0410446D0F801
:102E9000D402134604EB80064FF0FF35D6F8C0028B
:102EA00080B100F5805297697FB15F78FF0715D038
:102EB000997869B180290ED0517F242305222046BC
:102EC00000F0E3FB2846BDE8F081517F2023F5E7C1
:102ED00006220B490FE008220A490CE0D6F8C4226A
:102EE00001EBC1011B79D26902EB81010A79521D04
:102EF000934200D81A4600F027FC0020E3E70000C8
:102F0000160100201C0100202DE9F0411646D0F8E2
:102F1000D4224FF0FF3500EB8202D2F8C082B8F124
:102F2000000F53D03378794F0024252B76D011DC55
:102F30001B2B32D007DC0BB3032B24D0122B27D052
:102F40001A2B19D15DE01C2B69D01E2B4AD0232BE4
:102F500012D190E09E2B6ED008DC282B6CD02A2B4F
:102F60006BD02F2B6AD05A2B06D16AE0A02B74D0DD
:102F7000A82B73D0AA2B72D0202324E03246BDE8C0
:102F8000F04100F0B1BB3246BDE8F04100F03ABB81
:102F90003246BDE8F041FFF777BF08F5805292F85E
:102FA0006230012B04D1337903F00303022B7DD06F
:102FB000307900F0030101290DD0022907D0C04368
:102FC000800708D009E0052200F05FFB89E00220BD
:102FD00082F8620001E082F862402046C8F80C40A6
:102FE000BDE8F081307938B141F26200012100F88A
:102FF0000810C8F80C4022E041F2620000F80840D6
:10300000F7E70846D2F8C4120425C968884738B1E2
:103010003F48817841F08001817005E030E067E051
:10302000B87820F08000B8703079042800D80546C0
:103030002A4637491DE028E02CE035E040E02046F4
:10304000CEE70846D2F8C4120825C9688847002888
:10305000F87805D040F0800004E044E01FE02AE06A
:1030600020F08000F870307A082800D805462749FB
:103070002A46404646E03246BDE8F04100F050BAEC
:103080003246BDE8F04100F0A8B93246BDE8F04153
:1030900000F0E8B93246BDE8F04100F0E9B8324648
:1030A000BDE8F04100F03CB9324600E010E0BDE878
:1030B000F04100F059BB3246BDE8F04100F0CABB18
:1030C00008EB011241F264031A4473789B0701D59F
:1030D000242378E7D3689268FFF7BBFE0028BFF689
:1030E00071AF28467CE73246BDE8F04100F05CBA9B
:1030F000B6F8031040464ABA002AA0D0082A00D9E0
:103100000822044900F020FB99E700002801002074
:1031100024010020300100202DE9F0470746D0F8B7
:10312000D402894607EB800041F26402D0F8C06205
:103130004FF0FF3806EB09118C18E6B12188E568DD
:103140004FF480524D43954200D31546B5FBF1F143
:10315000D0F8C4028BB206F11001D0F810C0A268FA
:103160008A464846E047002808DA112304224946E7
:10317000384600F08AFA4046BDE8F0870E482B46F4
:1031800052460178384601F0F8F82088A168B5FB6E
:10319000F0F00844A0602088E168B5FBF0F0081A60
:1031A000E06006F58050816B491B8163E06808B9D7
:1031B000032030720020DFE7E80000202DE9F05FF7
:1031C0008A46D0F8D412804600EB810041F26402B6
:1031D000D0F8C0624FF0FF3906EB0A118C18E6B147
:1031E0002188E7684FF480554F43AF4200D32F4604
:1031F000B7FBF1F1D0F8C4028BB206F11001D0F8A0
:1032000014C0A2688B465046E047002808DA032322
:1032100004225146404600F038FA4846BDE8F09F87
:103220002088A168B7FBF0F00844A0602088E1681E
:10323000B7FBF0F0081A06F58056E060B06BC01BD3
:10324000B063E36863B120884343AB4200D32B46AD
:1032500006485A460178404600F0E5FF0020DDE7C9
:1032600000214046FFF72AFBF8E70000E9000020B4
:103270002DE9F0478946D0F8D412804600EB810052
:103280001746D0F8C04241F2640204EB09118E18CF
:103290004FF0FF3A5CB3217AB1BB04F58055297F2A
:1032A00009062DD595F86210022905D0D0F8C40280
:1032B00081684846884730B13A2302224946404651
:1032C00000F0E3F913E07888397940BA000440EA65
:1032D000012079790843B060B7F80700494643BA3E
:1032E000F3604046B268FFF7B4FD002802DA5046AA
:1032F000BDE8F0873188F0684843A969884204D066
:103300002023697F0522DAE701E0022020724FF4D2
:103310008050E06049464046BDE8F047FFF7FCBEFC
:103320002DE9F0478946D0F8D412804600EB8100A1
:103330001546D0F8C04241F2640204EB09118F181F
:103340004FF0FF3A84B3217A89BB04F58056317F70
:10335000090633D596F86210022905D0D0F8C402C8
:1033600081684846884730B13A23022249464046A0
:1033700000F08BF918E06888297940BA000440EA27
:10338000012069790843B860E888297A40BA0004C6
:1033900040EA0123687A49460343FB604046BA6825
:1033A000FFF757FD002803DA5046BDE8F0870BE031
:1033B0003988F8684843B169884203D02023717F77
:1033C0000522D4E7022020724FF48050E060494685
:1033D0004046BDE8F047FFF79FBE2DE9F0410646A5
:1033E000D0F8D402884606EB800041F26402D0F89F
:1033F000C0424FF0FF3704EB08118D1844B1D0F8EC
:10340000C4022A46291D43684046984718BB02E07B
:103410003846BDE8F08141F26200005D02281AD012
:103420006868401E000E20746868401E000C6074BE
:10343000A888401E000AA0742879401EE07400206D
:10344000207560752888000AA0752878E075082026
:10345000E0600020DDE73A2302224146304600F0DA
:1034600014F9D5E72DE9F0470746D0F8D40289468C
:1034700007EB80001646D0F8C04241F2640104EB2D
:10348000091255184FF0FF3844B1D0F8C4022A464B
:10349000291D436848469847A0B902E04046BDE868
:1034A000F08741F26200005D02280BD07089317B09
:1034B00040BA000440EA0120717B0843E06000202C
:1034C000014609E03A2302224946384600F0DDF879
:1034D000E4E72218401C1174E2688242F9D8686857
:1034E000401E000E20756868401E000C6075A8889C
:1034F000401E000AA0752879401EE075217661768D
:103500002888000AA0762878E0767089317B40BA56
:10351000000440EA0120717B0843E0600020BEE720
:103520002DE9FC410546D0F8D4020F4605EB80009A
:103530004FF0FF36D0F8C04244B1D0F8C4026A461A
:1035400001A943683846984738BB02E03046BDE8D9
:10355000FC8141F26200005D02281ED0002001467D
:103560002218401C80B211740C28F9D30820E07492
:103570000198401E020E2275020C6275020AA275A5
:10358000E075022020766176BDF80000010AA17680
:10359000E0760C20E0600020D9E73A230222394689
:1035A000284600F072F8D1E710B5D0F8D41200EB3D
:1035B0008100D0F8C04284B118211148FCF7CBFF3C
:1035C00020680F4BC1000831080E1870080C5870A5
:1035D000080A9870D970002207E04FF0FF3010BD44
:1035E00003EBC2004272521CD2B220689042F7D262
:1035F00008318AB20249204600F0A6F8002010BD2A
:10360000884C002070B5D0F8D4124FF0FF3400EB96
:103610008101D1F8C01231B301F580539D6925B302
:10362000002005460C18401CC0B225741228F9D39E
:10363000702008740C20C87593F8600093F86140FE
:10364000A0421AD001EBC00404F58254401C267835
:103650008E7426790E776479C0B24C7783F8600057
:10366000042808D009E0204670BD597F2023052298
:1036700000F00BF8F7E783F860501220C86010796B
:10368000122800D8C860002070BD10B5D0F8D41240
:1036900000EB8100D0F8C012002924D001F5805041
:1036A00090F8614001EBC40404F5805484F8402094
:1036B00090F8612001EBC20202F5805282F844309A
:1036C00090F86130002201EBC30101F5805181F8CF
:1036D000452090F86110491CC9B280F86110042996
:1036E00001D180F8612010BD2DE9F0410546D0F8E8
:1036F000D402884605EB80004FF0FF36D0F8C04278
:10370000E4B104F580518A6932B1497F2023052252
:103710002846FFF7BAFF11E091F862100527022949
:1037200005D0D0F8C40281684046884748B13A23A2
:10373000022241462846FFF7A8FF27723046BDE81F
:10374000F0810020E060FAE710B508B1C26007E040
:103750004FF0FF3010BD521E92B284188B5C237460
:10376000002AF8D1002010BD2DE9F0470746D0F817
:10377000D402904607EB80008A46D0F8C04241F25E
:10378000640204EB0A118E184FF0FF39F4B3217A6A
:1037900029B151463846BDE8F047FFF70FBD04F5A3
:1037A0008055A96999B3297F09063CD4D0F8C40291
:1037B00081685046884728B13A230EE03846FFF723
:1037C00064FF27E0D7F8D40207EB8000D0F8C402EA
:1037D000C1685046884718B1272302225146EDE7B9
:1037E000B8F8020040BA010498F8040041EA002049
:1037F00098F805100843B060B8F80700514643BA7E
:10380000F3603846B268FFF724FB01E002E00AE00B
:10381000002802DA4846BDE8F0873088F368434361
:10382000A869984203D02023697F0522C6E74FF498
:103830008050834200D3034601202072044804F1E3
:1038400010020178384600F0EEFC0020E3E70000AB
:10385000E90000202DE9F05F8B46D0F8D4128046B5
:1038600000EB81001646D0F8C04241F2640204EB3E
:103870000B118F184FF0FF3A8CB3217A29B15946BA
:103880004046BDE8F05FFFF799BC04F58055A96993
:1038900011B1297F090606D5697F202305224046FC
:1038A000FFF7F3FE35E0D0F8C40281685846884738
:1038B0004FF0050908B13A230AE0D8F8D41208EB12
:1038C0008100D0F8C402C1685846884740B1272318
:1038D000022259464046FFF7D8FE84F8089018E0C7
:1038E0007088317940BA000440EA012071790843B8
:1038F000B860F088317A40BA000440EA0123707A57
:1039000059460343FB604046BA68FFF7A2FA002815
:1039100002DA5046BDE8F09F3888FB684343A86947
:103920009842B9D14FF48050834200D3034601201E
:103930002072044804F110020178404600F073FC44
:103940000020E7E7E90000200148FEF79BBA0000ED
:103950005801002010B5806B0021C187C186FEF799
:103960008FFA10BDF8B5044640684FF48273984250
:1039700021D1A0684FF48065B0F5004F01D0A84276
:103980000AD12068066826F0400606606068984202
:1039900011D1A068A8420ED000920B4600228021CF
:1039A000204600F043F8002804D0606D40F020006D
:1039B00060650320F8BD00920B4600220121EFE76D
:1039C000F8B515460E460B46009204460122022128
:1039D00000F02CF8A0B9134813490068B0FBF1F0CF
:1039E0004FF47A71484300906068B0F5827F0DD142
:1039F0003346002280212046009500F017F870B170
:103A0000606D40F0200060650320F8BD009830B183
:103A1000401E009020688068C0430006F6D5002054
:103A2000F8BD0000A000002000366E012DE9F8432B
:103A30001E46914688460446089DFCF7E1FF401B60
:103A4000351AFCF7DDFF074626480068C0F3CB3087
:103A500068430AE0701C09D0FCF7D2FFC01BA842E3
:103A60000FD275B10098B8B3401E009020688168ED
:103A700038EA010033D000214945EBD10020BDE8F0
:103A8000F8832068416821F0E00141606068B0F58A
:103A9000827F0BD1A068B0F5004F02D0B0F5806FE7
:103AA00004D12068016821F040010160A06AB0F5EE
:103AB000005F09D12068016821F40051016020688D
:103AC000016841F400510160012084F85100002098
:103AD00084F850000320D2E7FFE70025C6E7012164
:103AE000CAE70000A0000020034803690B60808A39
:103AF0001080002070470000A04C0020002070477C
:103B00000020704700207047002070472DE9F041E9
:103B10001F4615460E460024DFF82C800FE000BF3C
:103B2000D8F8141001FB05F00A460146304601F0B2
:103B300025FED8F81400641C0644A4B26D1CBC42D7
:103B4000EED30020BDE8F081A04C00202DE9F0412B
:103B5000984615460F4600240B4E10E070696843E6
:103B600001F052FD716901FB05F00A460146384635
:103B700001F060FE7069641C0744A4B26D1C4445EA
:103B8000ECD30020BDE8F081A04C00207047017804
:103B9000407841EA00207047FCF738BF30B593B059
:103BA00030216846FCF7F9FC14210CA8FCF7F5FC61
:103BB0001E480025016841F080510160006800F056
:103BC000805011901A48016841F44041016000683A
:103BD000022400F440401190052000904FF4803002
:103BE0000190012002908005CDE90640192008903F
:103BF000C020CDE9090404200B906846FDF756FE6D
:103C000008B172B6FEE70CA90F2081E831004FF42D
:103C10008050CDE90F0503210CA8FDF775FD0028A4
:103C200001D072B6FEE713B030BD0000403802404C
:103C3000007000400248016841F470010160704763
:103C400088ED00E010B5D0F8B82200245268904703
:103C500000B10324204610BD0020704700207047AB
:103C6000134610B50A46002100F0DDFA002010BD11
:103C7000134610B50A46002100F07FFB002010BD5E
:103C800010B50446802100F059FB2046BDE81040E5
:103C9000002100F053BB10B50521C0F89412002399
:103CA0001A46194600F0BFFA002010BD10B50223D5
:103CB000C0F8943242618261134641620A46002193
:103CC00000F05BFB002010BD10B50421C0F8941279
:103CD00000231A46194600F050FB002010BD0000DA
:103CE00010B50A46024903A000F00DF9004810BDC6
:103CF000F03400204D534320436F6E666967000027
:103D000012200880004870474400002010B50A4681
:103D1000024903A000F0F7F8004810BDF03400207D
:103D20004D534320496E74657266616365000000FF
:103D300004200880004870474000002010B50A4663
:103D4000024903A000F0DFF8004810BDF034002065
:103D500053544D6963726F656C656374726F6E69FD
:103D60006373000010B50A46024903A000F0CBF8C7
:103D7000004810BDF034002053544D3332204D61C3
:103D800073732053746F72616765000010B51A2059
:103D900008800A480168001D0468001D00680818B2
:103DA00009D008220649FEF7EFFB0549042210312D
:103DB0002046FEF7E9FB0248801E10BD107AFF1F67
:103DC0005A000020F8B504460020ADF800004888ED
:103DD0000D46010A08295FD2DFE801F05E040917E9
:103DE0005E5E3C45D4F8B412207C0A6819E0207C61
:103DF00002260028D4F8B80205D0C16A6846884770
:103E00000146467039E0816AF8E7C0B2062843D21D
:103E1000DFE800F0030A1014181CD4F8B40242685A
:103E200005E0694690471CE0D4F8B402826892B37A
:103E3000207CF6E7D4F8B402C268F8E7D4F8B402FC
:103E40000269F4E7D4F8B4024269F0E7D4F8B402A6
:103E50008269ECE7207CF0B9D4F8B802416B68467F
:103E60008847014609E0207CA8B9D4F8B802016B64
:103E700068468847014607204870EA888AB1BDF83D
:103E8000000040B1824200D90246ADF80020204631
:103E9000FFF70CFFF8BDFFE729462046FFF7F0FECD
:103EA000F8E72046FFF710FFF4E778B50E464288A2
:103EB0000178002504468A4212D9ADF800100AE0C4
:103EC000694600F019F84178052904D18178054642
:103ED000B14205D000256188BDF800209142EFD89D
:103EE000284678BD0146002002E0401CC0B2491CB3
:103EF0000A78002AF9D170470A8803781A440A80A0
:103F000001780844704770B516460D46002820D049
:103F10000446FFF7E7FF022101EB40014FF4007078
:103F2000814204D82046FFF7DDFF4000801C30802E
:103F300030782870032068700220002206E029549F
:103F4000401CC0B22A54401CC0B2641C2178002915
:103F5000F5D170BD01004FF0000004D0012901D05F
:103F6000022901D0032070470120704778B1002357
:103F7000C0F8B832C0F8C432C0F8D03209B1C0F8C5
:103F8000B412012180F89C12027000F0D9B803200D
:103F9000704710B5D0F8C802FCF750FEBDE81040DD
:103FA000FFF7D8BF10B5D0F8C802FCF722FEBDE875
:103FB0001040FFF7CFBF70B50446002521B194F83B
:103FC0009C02032846D050E0D4F8941204F1140067
:103FD000022939D1818942688A420AD9511A41603D
:103FE000828901691144016142682046FFF740FE61
:103FF0000FE0914214D10068884211D3D4F898128E
:1040000088420DD2002211462046FFF731FEC4F847
:10401000985200231A461946204600F004F913E08E
:1040200094F89C02032808D1D4F8B802C16821B1E1
:10403000C4F8D452C168204688478021204600F049
:104040007DF92046FFF727FE94F8A00268B184F8B6
:10405000A0520AE0D4F8B802426932B1C4F8D4528E
:10406000426920469047002800D1002070BD10B55D
:104070000446002221B194F89C02032834D03EE08B
:10408000D4F8941204F5AA70032938D181894368C1
:104090008B420ED9591A416082890169114401612C
:1040A00042688089824200D802462046FFF7D8FD48
:1040B00025E094F8AA0210F01F0003D0012802D0D6
:1040C000022800D0002294F89C02032808D1D4F8DA
:1040D000B802016921B1C4F8D42201692046884799
:1040E0002046FFF7F1FD0AE0D4F8B802836933B146
:1040F000C4F8D422826920469047002800D10020CD
:1041000010BD0020704710B50024012180F89C12DA
:10411000D0F8B82222B152680179904700B1032447
:10412000204610BD10B5D0F8C802FCF7B4FDBDE8BC
:104130001040FFF70FBFD0F8C802FCF7C6BD000063
:1041400010B5017839BB15490222C1F8E004C0F866
:10415000C8124FF0A040086004200871CA71002006
:1041600088714A728872C87208738873C873084667
:10417000FDF70AF908B1FCF7FCFA80210748FCF7C3
:10418000E8FC402200210548FCF7E7FC80220121E1
:104190000248FCF7E2FC002010BD00007847002038
:1041A0000A0601F07F01D0F8C80201EBC10100EB63
:1041B000810001D5807D704790F85602704710B598
:1041C000D0F8D42200EB8202D2F8B82222B190F8C3
:1041D0009C32032B02D004E0032010BD126A02B10E
:1041E0009047002010BD10B5D0F8D42200EB820219
:1041F000D2F8B82222B190F89C32032B02D004E00E
:10420000032010BD526A02B19047002010BD10B5C6
:104210001C461346D0F8C8022246FCF75FFDBDE8F5
:104220001040FFF797BE10B5D0F8C802FCF787FD25
:10423000BDE81040FFF78EBE2DE9F04100260125B4
:10424000044680F89C52C4F894626660C4F8A46284
:1042500080F8A062D0F8B80230B1426822B10021E3
:104260002046904700B103260022402311462046F5
:10427000FFF7CDFF402784F86351A4F860713B46F7
:10428000002280212046FFF7C2FF84F823502784B4
:104290003046BDE8F08190F89C12042903D190F8D3
:1042A0009D1280F89C120020704710B590F89C1267
:1042B000032905D1D0F8B81211B1C96901B18847F5
:1042C000002010BD01740020704710B5D0F8C8025E
:1042D000FDF71DF9BDE81040FFF73CBE70B5044680
:1042E00000F2AA20054600F0B5F90120C4F89402B6
:1042F000B4F8B002C4F8980294F8AA0210F01F01B2
:104300000AD001290ED0022912D000F080012046E7
:10431000BDE8704000F012B829462046BDE8704064
:1043200000F034BA29462046BDE8704000F077BB63
:1043300029462046BDE8704000F0BEBA10B5D0F85E
:10434000C802FCF718FDBDE81040FFF703BE10B52A
:10435000D0F8C802FDF7F5F8BDE81040FFF7FABD48
:1043600090F89C12042903D090F89C1280F89D12BA
:10437000042180F89C120020704710B5D0F8C802C4
:10438000FCF732FDBDE81040FFF7E4BD10B5FEF7C5
:10439000E3F9002010BD10B5FEF702FA002010BDB1
:1043A00070B51C4D04466978FFF7FCFD687800265F
:1043B00000F00F0000EB800004EB800080F86361E8
:1043C00029782046FFF7EEFD287800F00F0000EB7B
:1043D000800004EB800080F82360D4F8D40204EB62
:1043E0008000D0F8C00290B12046FEF7FDF9D4F865
:1043F000D40204EB8000D0F8C00200F049FBD4F8EE
:10440000D40204EB8000C0F8C062C4F8BC62002093
:1044100070BD0000E80000200A21018000487047BC
:104420000C01002070B5054681210848FFF73DFDCD
:10443000044601210548FFF738FD402104B1A18061
:1044400000B1818020202880004870BDEC00002051
:1044500070B5054681210948FFF727FD0446012173
:104460000648FFF722FD4FF4007104B1A18000B1AE
:10447000818020202880014870BD0000EC000020D1
:1044800070B5054681210848FFF70FFD044601215C
:104490000548FFF70AFD402104B1A18000B18180E9
:1044A00020202880004870BDEC0000202DE9F0415C
:1044B000044641F2840000F0EDFA78B3D4F8D41247
:1044C000254D04EB81010126C1F8C002C4F8BC02ED
:1044D000207C68B34023022269782046FFF797FECC
:1044E0006878402300F00F0000EB800004EB8000B0
:1044F00080F86361022229782046FFF788FE287839
:1045000000F00F0000EB800004EB800080F82360D7
:104510002046FEF775F90020BDE8F081FFE7D4F8EA
:10452000D412002004EB8101C1F8C0020220F3E79D
:104530004FF400773B46022269782046FFF767FE7A
:1045400068783B4600F00F0000EB800004EB800031
:1045500080F86361CEE70000E800002039B1D0F8B0
:10456000D42200EB8200C0F8C41200207047032060
:104570007047F8B50646D0F8D4020C4606EB800129
:104580000025D1F8C072ADF8005037B1207810F096
:10459000600226D0202A43D101E00320F8BD6278D2
:1045A000FE2A02D0FF2A3BD111E062889ABBE28842
:1045B000012A35D1000633D5D1F8C402806980477D
:1045C000022800D902200122394638601FE06188A4
:1045D00009BBE188F9B9000622D43046FEF746F956
:1045E00023E0607830B1012824D00A2809D00B28B4
:1045F00016D111E096F89C02032811D102226946D7
:1046000005E096F89C0203280AD10122391D3046A4
:10461000FFF74CFB09E003E096F89C02032806D064
:1046200021463046FFF72CFB03252846F8BDA0782D
:104630007860FAE796F89C020328F6D16088002893
:10464000F3D121793046FFF76DFD21793046FEF731
:104650005BF8EAE770B5054611F8010B2870087899
:1046600068704C1C2046FFF792FA6880A41C204614
:10467000FFF78DFAA880A01CFFF789FAE88070BDCB
:1046800038B504460020ADF80000A1B1C4F8B81256
:10469000D4F8D40204EB8000D0F8B802C16A19B192
:1046A00068468847C4F8D002D4F8D802401CC4F841
:1046B000D802002038BD032038BD02460020D2F8C1
:1046C000B832002B02D01B68104618477047000014
:1046D0002DE9F04188462B4E89780025044631703B
:1046E000012906D941462046FFF7CAFA0320BDE852
:1046F000F08194F89C02022702280CD003281DD0D8
:1047000041462046FFF7BCFA31782046FFF79AFA77
:1047100003252846EBE789B320466160FFF7CDFF0C
:10472000050004D041462046FFF7AAFA1DE02046C6
:10473000FFF7CAFA032084F89C02EAE7C1B1606877
:1047400088421BD0C1B22046FFF77CFA3178204660
:104750006160FFF7B2FF050010D041462046FFF729
:104760008FFA21792046FFF76DFA84F89C72D0E722
:1047700084F89C7220466160FFF764FA2046FFF7D8
:10478000A3FAC6E7AC000020FFF7E1BD2DE9F04138
:104790000A78002512F060020CD0202A01D0402AAD
:1047A0007DD1D0F8D42200EB8202D2F8B8229268F0
:1047B000904731E04B78002201260A2B6FD2DFE8C8
:1047C00003F041666E586E08056E2D29FFF7FAFA60
:1047D00067E004468888D8B9C888C8B9488880285E
:1047E00016D200F07F0794F89C02032810D084F8BA
:1047F0009E7239462046FFF768FD2046FFF764FAAF
:104800001FB1022084F89C024BE084F89C6248E0CF
:10481000204644E0FFF75CFF054642E0CB88012BD1
:104820003DD190F89C32012B04D0022B02D0032BF7
:1048300035D104E08260012200F1080116E0012276
:10484000011D13E090F89C22012A03D0022A01D016
:10485000032A24D1CA88022A21D1C660D0F8A41222
:1048600009B10321C160022200F10C01FFF71EFA19
:1048700017E04A88012A02D0022A03D00FE0C0F8CC
:10488000A46216E08988090A80F8A01211E090F865
:104890009C32012B08D0022B06D0032B04D0FFF74B
:1048A000EFF92846BDE8F08149880129F9D1C0F81F
:1048B000A422FFF709FAF4E72DE9F041054608784C
:1048C0000C790E464FF0000810F060000BD0202845
:1048D00001D040286BD121462846FFF7BDF9FF28BB
:1048E00000D0D8B398E07078C8B3012824D003284A
:1048F0005DD195F89C02022802D0032857D10CE024
:10490000002C54D0802C52D021462846FFF716FDAB
:1049100080212846FFF712FD7EE0708840B93CB147
:10492000802C05D0C88818B921462846FFF706FD17
:104930002846FFF7C9F96FE095F89C020228DFD0FE
:10494000032866D1708888BB600603D021462846BC
:10495000FFF71FFB2846FFF7B7F9BCE700E00AE0C6
:10496000C5F8D402D5F8B8028268FAB131462846B3
:104970009047804650E095F89C020027022802D01C
:10498000032846D114E00CB1802C42D1200604F05B
:104990007F0000EB800005EB800101D5143101E0C0
:1049A00001F5AA71022201F80E7F2EE034E030E01A
:1049B000200604F00F0000EB800005EB80000AD514
:1049C00090F8230028B304F07F0000EB800005EB93
:1049D000800614360AE090F86301D0B104F07F003D
:1049E00000EB800005EB800606F5AA764CB1802C22
:1049F00007D021462846FFF7D3FB10B10120B07342
:104A000000E0B773022206F10E012846FFF74EF9C7
:104A100002E02846FFF734F94046BDE8F08170B562
:104A20000546087800240E4610F0600003D02028C8
:104A300001D0402827D195F89C02012803D00228F4
:104A400001D003281FD1B088C1B201291AD8C1B240
:104A50002846FFF703F9FF280CD058B9D5F8B8124B
:104A60008A683AB1C5F8D4028A6831462846904728
:104A7000044600E00324F088204307D12846FFF7CE
:104A800023F903E031462846FFF7FAF8204670BDC7
:104A90007047000000487047F036002070B50A7873
:104AA000012302F00F054E78AB401B4CD0F81C5888
:104AB000012E17D045EA0343C0F81C3800EB421022
:104AC000D0F8002B12040BD4D0F8002B0B890979F5
:104AD000C3F30A031A4344EA81410A43C0F8002B96
:104AE000002070BD9BB21D43C0F81C5800EB421063
:104AF000D0F800391B04F3D4D0F800390D890979B6
:104B0000C5F30A0589042B4341EA82510B43234331
:104B1000C0F80039E4E7000000800010D0F8001968
:104B20006FF30A01C0F80019D0F8041841F480713D
:104B3000C0F804180020704770B50D460446C2F353
:104B4000072104981E4601291BD0E06840F0400070
:104B5000E060204600F032F8C6F307210029A16B7F
:104B600026D021F48031A163C5F30741012907D183
:104B7000A16841F00601A160A16841F02001A16097
:104B800070BDA16B21F48031A163E1680A4A114034
:104B9000E160E16821F44011E160C0B2012803D175
:104BA000E06840F48010E060204600F007F8DBE7A2
:104BB00041F48031D7E70000BFFFBDFF08B50021F9
:104BC00000914FF07061009A521C00928A4210D8F6
:104BD0000269002AF7DA0A220092521E0092FCD1E2
:104BE000026942F001020261009A521C00928A425C
:104BF00001D9032008BD0269D207F5D1002008BD04
:104C000030B54C780A78012300EB4212012C2CD0ED
:104C1000D2F8004B002C0BDAD2F8004B44F00064C1
:104C2000C2F8004BD2F8004B44F08044C2F8004B6D
:104C3000D0F83C580C7804F00F0403FA04F425EA89
:104C40000444C0F83C48D0F81C48097801F00F0132
:104C50008B4024EA0341C0F81C18D2F8000B194914
:104C60000840C2F8000B002030BDD2F80049002CEB
:104C70000BDAD2F8004944F00064C2F80049D2F8D7
:104C8000004944F08044C2F80049D0F83C480D780F
:104C900005F00F0503FA05F5ADB2AC43C0F83C488A
:104CA000D0F81C48097801F00F018B4099B28C4371
:104CB000C0F81C48D2F8000903490840C2F80009AE
:104CC000D1E700000078F3EF007833ECD0F8001E55
:104CD00021F00301C0F8001ED0F8041821F00201F1
:104CE000C0F8041800207047D0F8001E21F003011E
:104CF000C0F8001ED0F8041841F00201C0F80418F2
:104D0000002070472DE9F04F00250E460446174657
:104D10002846294604EB8002C2F80411401C0F28E3
:104D2000F8D3C3F307405FEA0009204616D0806B32
:104D300020F40012A263A06B40F40022A263084694
:104D400088462146C4F8000EC7F30720012817D073
:104D50000846D1F8001841F0030118E0D0F8040823
:104D600040F00202C4F80428A06B40F40012A263D1
:104D7000A06B20F40022A263A06B20F48022DDE768
:104D8000300E0846D1F8001801D041F00101C0F8FA
:104D90000018102100F08BFA00B10125204600F028
:104DA0006AFA00B101254046C4F81088C4F8148896
:104DB000C4F81C8800214FF0006B4FF0904E4FF666
:104DC0007F3AF2B215E000BF04EB4113D3F800C9FB
:104DD000BCF1000F06DA11B1C3F800E904E0C4F831
:104DE00000B901E0C3F80009C3F81009C3F808A925
:104DF000491C8A42E8D8002115E000BF04EB4113AA
:104E0000D3F800CBBCF1000F06DA11B1C3F800EB08
:104E100004E0C4F800BB01E0C3F8000BC3F8100BBA
:104E2000C3F808AB491C8A42E8D8D4F8101821F41A
:104E30008072C4F81028A0616FF080406061C6F3F2
:104E4000074018B9A06940F01000A061A0690A49A4
:104E50000843A061C7F3074018B1A06940F00800FB
:104E6000A061B9F1010F03D1A06904490843A06111
:104E70002846BDE8F08F000000383C800400004068
:104E8000816821F0010181600020704710B5036C3A
:104E9000134CA34203D9D0F8003B002B1EDB0023A8
:104EA000C0F8103BD0F8103B43F40023C0F8103B8F
:104EB000D0F8103B43F01803C0F8103BD0F8103B7B
:104EC00043F0C043C0F8103B012907D1C0F8142BB0
:104ED000D0F8001B41F08021C0F8001B002010BD5D
:104EE0000A30544F4A780B78012A00EB43100BD05C
:104EF000D0F8002B22F40012C0F8002B0979032906
:104F000014D0022912D017E0D0F8002922F40012A0
:104F1000C0F800290979032901D002290CD1D0F861
:104F2000001941F08051C0F8001905E0D0F8001BCD
:104F300041F08051C0F8001B002070470A784B7880
:104F4000D1B200EB4110012B12D0D0F8001B002988
:104F500006DB2AB1D0F8001B21F08041C0F8001B0D
:104F6000D0F8001B41F40011C0F8001B002070476E
:104F7000D0F80019002906DB2AB1D0F8001921F079
:104F80008041C0F80019D0F8001941F40011C0F8B0
:104F90000019EBE7F8B50C784F788B4DE3B26FF062
:104FA000604600EB4313012F29D0D3F8107B6FF339
:104FB0001207C3F8107BD3F8107B2F40C3F8107B87
:104FC000002C7DD00D69002D7BD08C6825446D1E92
:104FD000B5FBF4F5ADB26C430C62D3F8104B06EAA6
:104FE000C5452C43C3F8104BD3F8104B0D6AC5F3DD
:104FF00012052C43C3F8104B012A70D0CBE00F6987
:10500000EFB1D3F810796FF31207C3F81079D3F822
:1050100010792F40C3F810790CB30F698D682F44B5
:105020007F1EB7FBF5F5D3F81079ADB206EAC54699
:105030003743C3F810790E79012E1CD02AE0D3F83B
:1050400010692E40C3F81069D3F8105945F40025B3
:10505000C3F81059D3F810596FF3120520E00E6908
:105060008D68AE4200D90D61D0F8105945F4002684
:10507000C0F810690EE0D3F8106926F0C046C3F8F6
:105080001069D3F810694FF0C04707EA45752E4301
:10509000C3F81069D3F810590E69C6F312063543E8
:1050A000C3F81059012A1BD000EB4413D3F8004970
:1050B00044F00444C3F800490C79012C31D001E0DC
:1050C00044E057E00A695AB3D0F83428097801F06F
:1050D0000F03012199400A43C0F8342871E056E0DB
:1050E000CA691AB100EB4413C3F8142909790129DC
:1050F0000ED1D0F80818C90500EB4411D1F80029E9
:1051000002D442F0005201E042F08052C1F800297E
:1051100000EB4410D0F8001941F00441C0F8001928
:105120004FE0D0F80848E405D3F8004902D444F031
:10513000005401E044F08054C3F8004900920A8A08
:1051400093B20A78C96800F0DFF93AE00C690CB153
:105150008C680C618C680C62D0F8105BC4F312048C
:105160002543C0F8105BD0F8104B44F40024C0F87D
:10517000104B41E7D3F8104B8D68C5F312052C4353
:10518000C3F8104BD3F8104B44F4002432E7CA683C
:105190000AB1C3F8142B097901290CD1D0F80808F9
:1051A000C005D3F8000B02D440F0005001E040F0FD
:1051B0008050C3F8000BD3F8000B40F00440C3F854
:1051C000000B0020F8BD0000FFFF07E038B500220B
:1051D000009213464D780A7842F2107400EB4212A6
:1051E000012D19D0D2F8005B002D3CDAD2F8005B1B
:1051F00045F00065C2F8005B0A7800EB4212D2F875
:10520000005B45F08045C2F8005B009A521C00929A
:10521000A24221D9012326E0D2F80059002D22DA3A
:10522000D2F8005945F00065C2F800590A7800EB41
:105230004212D2F8005945F08045C2F80059009A50
:10524000521C0092A242E5D80A7800EB4212D2F832
:105250000029002AF3DB06E00A7800EB4212D2F8BC
:10526000002B002AD1DB184638BD816841F00101CE
:1052700081600020704708B500214FF070620091F6
:10528000009B5B1C009393420AD80369002BF7DA5A
:105290000091102101610099491C0091914201D9AE
:1052A000032008BD0169C906F5D4002008BD18B562
:1052B00000224FF070630092009C641C00949C429A
:1052C0000CD80469002CF7DA0092202242EA8111FE
:1052D00001610099491C0091994201D9032018BD30
:1052E00001698906F5D4002018BDD0F8080810F02F
:1052F000060004D0022803D0062801D00F207047F2
:1053000002207047406900F001007047D0F818187B
:10531000D0F81C08084080B27047D0F81818D0F8B0
:105320001C080840000C704710B5D0F81038D0F8B1
:10533000342801F00F0400EB4110E24002F00102BA
:10534000D0F8080943EAC212104010BD00EB411129
:10535000D1F8081BD0F814080840704741698069EB
:105360000840704730B503460846940802F0030130
:10537000002203F5805303E01D6840F8045B521CD3
:10538000A242F9D300290BD01C680022D50024FAD0
:1053900005F3491E521C090400F8013B090CF5D124
:1053A00030BD70B50446C068002520F0C040E06004
:1053B000012901D079B120E0E06840F00050E060C0
:1053C0000A20FBF70DFA60690A3510F0010F10D1C1
:1053D000C82DF5D30DE0E06840F08040E0600A2081
:1053E000FBF7FEF960690A3510F0010F01D0C82DF6
:1053F000F5D3C82D01D0002070BD012070BDD0F8BC
:10540000002822F4FE62C0F80028D0F800284FF4EB
:10541000FE6303EA01110A43C0F800280020704728
:10542000022A3ED1264A274B0A449A4201D20F2132
:1054300038E0254A254B0A449A4201D20E2131E038
:10544000234A244B0A449A4201D20D212AE0224ADF
:10545000224B0A449A4201D20C2123E0204A214BDC
:105460000A449A4201D20B211CE01F4A1F4B0A44F6
:105470009A4201D20A2115E01D4A1E4B0A449A4263
:105480000FD31D4A1D4B0A449A4201D2082109E05C
:105490001B4A11441B4A914201D2072102E0062116
:1054A00000E00921C26822F47052C260C2684FF461
:1054B000705303EA81210A43C26000207047000054
:1054C000405327FF00350C00401E1BFF40420F00D9
:1054D00000DC0BFF804F1200808CF9FE20D61300F9
:1054E00060B6E5FE60E3160000D3CEFE40771B00F9
:1054F000C05BB3FEC091210000CA91FE2075380048
:10550000E05459FEE09C410010B5029C74B9DB1CCC
:105510009C0800EB0230002300F5805004E000BF3F
:1055200051F8042B02605B1CA342F9D3002010BD8C
:1055300010B500F0FDF8034900B1012008700878AB
:1055400010BD00000600002079B1094801290AD0E9
:10555000022903D0032904D004207047808A1080D8
:1055600003E0C06800E000691060002070470000A0
:10557000A04C00202DE9F0411F4615460E460024A0
:10558000DFF82C800EE000BFD8F8141001FB05F006
:105590000A460146304600F0F1F8D8F81400641CC1
:1055A00006446D1CBC42EFD30020BDE8F081000032
:1055B000A04C0020024800210170007870470000D4
:1055C000060000202DE9F041984614460F460025BC
:1055D0000B4E0FE07069604300F016F8716901FB33
:1055E00004F00A460146384600F024F97069641C4C
:1055F00007446D1C4545EDD30020BDE8F081000057
:10560000A04C0020FEE7000038B50446FBF7F8F98F
:10561000054620208DF80000200C8DF80100200A9E
:105620008DF802008DF8034000F064F9114C00225F
:1056300010212046FBF7D6F94FF47A73042269460D
:105640000D48FCF7E1FD012210212046FBF7CAF9C5
:1056500040F6B83407E000BFFBF7D2F9401BA04288
:1056600001D9032038BD00F009F80228F4D0002049
:1056700038BD000000000240580100207CB511A098
:10568000114C00680090002210212046FBF7AAF977
:105690004FF47A752B46012269460C48FCF7B4FD9D
:1056A0002B46012201A90948FCF704FD0122102123
:1056B0002046FBF797F99DF80400C00700D00220B0
:1056C0007CBD0000050000000000024058010020E1
:1056D00038B504464FF48070A0610001606100019C
:1056E000E060684600F07AF8BDF80000C0B21338F8
:1056F000052801D3012038BD00EE100AF8EEC00ADB
:10570000B0EE000A00F04CF9BCEEC00ABDF8001083
:1057100010EE100A0005C4E900106169B0FBF1F158
:105720002161E168B0FBF1F0A060002038BD00000D
:1057300038B50EA00E4C00680090002210212046C3
:10574000FBF750F94FF47A73022269460948FCF7D7
:105750005BFD012210212046FBF744F90420FBF7F2
:105760003FF8BDE838400448FFF7B2BF6699000033
:105770000000024058010020A04C0020F8B505466A
:1057800003208DF80000080C8DF80100080A8DF840
:105790000200104F14468DF80310002210213846E5
:1057A000FBF720F94FF47A763346042269460A481B
:1057B000FCF72AFDA2B2334629460748FCF77AFCDB
:1057C00008B10120F8BD012210213846FBF70AF983
:1057D0000020F8BD00000240580100207CB50446BE
:1057E00011A0124D00680190002210212846FBF7FD
:1057F000F9F84FF47A763346042201A90C48FCF7F5
:1058000003FD3346022269460948FCF753FC9DF824
:1058100001009DF80010012200EB012020801021E2
:105820002846FBF7DFF87CBD900000000000024036
:10583000580100202DE9F84F16460C468346FBF729
:10584000DFF80746002001E000F58070A042FBD998
:10585000051BB54200D9354604EB060ADFF88C80FB
:105860004FF002094FF47A768DF80090200C8DF8F5
:105870000100200A8DF802008DF8034000F03AF88C
:10588000002210214046FBF7ADF83346042269465A
:105890001748FCF7B9FC30B9AAB233465946144848
:1058A000FCF7B2FC10B10120BDE8F88F01221021F5
:1058B0004046FBF797F806E0FBF7A2F8C01BB042A2
:1058C00001D90320F0E7FFF7D9FE0228F4D02C44D9
:1058D00004F58070AB44504502D9AAEB040501E001
:1058E0004FF480755445BFD30020DDE7000002402F
:1058F00058010020F8B515A000680090FBF780F86B
:10590000134E0546002210213046FBF76BF84FF48A
:105910007A742346012269460E48FCF775FC012281
:1059200010213046FBF75EF80AE000BFFBF768F88D
:10593000401BA04201D90320F8BD0020FAF750FF18
:10594000FFF79CFE0228F1D00020F8BD0600000001
:1059500000000240580100204100080218BF042046
:105960000A0E18BF40F001004FF07F4232EA0101F9
:1059700008BF40F00200012808BF05207047090752
:10598000090E002804DB00F1E02080F800147047C5
:1059900000F00F0000F1E02080F8141D70470000B7
:1059A00010B510EE100A2DED068BB7EE001A10EEB2
:1059B000901AB0EE418A0022A0F5000CDFEDFE9AAD
:1059C0004FF00073BCF1FE4F4FF07F4403EB410CEE
:1059D00080F0B481BCF1804FC0F02082F7490144CF
:1059E0009FEDF73AB1F5005F40F2D48200F58021D7
:1059F000CB0C03F00F0101EE901AC3F307137F3BAA
:105A0000A0EBC350B8EEE12A00EE100A1A44DFED15
:105A1000ED2AF0EE411A42EE221AF0EE613A70EEF3
:105A2000232A30EE632A12EE900A00F500606FF32D
:105A30000B0001EE900A73EEE13A33EE804AC1EEBC
:105A4000223A22EE230A10EE100A00F500606FF3EE
:105A50000B0000EE100A00EE612A00EE442A62EE0E
:105A6000232A70EE221A21EEA12ADFEDD73A02EEA8
:105A7000233A23EE023A20EE012A22EE811A03EEA7
:105A8000211A32EE010A10EE100A00F500606FF3E1
:105A90000B0000EE100A72EE401A31EE812A9FEDE3
:105AA000CB1A60EE011A9FEDCA1A20EE011A9FED83
:105AB000C90A02EE001A31EE810A10EE100A00F552
:105AC00000606FF30B0000EE100AC34871EEC01ABD
:105AD00031EE812A784400EBC10090ED003AD0ED20
